{
  "contractName": "QrCode",
  "abi": [
    {
      "inputs": [],
      "stateMutability": "nonpayable",
      "type": "constructor"
    },
    {
      "anonymous": false,
      "inputs": [
        {
          "indexed": true,
          "internalType": "uint256",
          "name": "id",
          "type": "uint256"
        }
      ],
      "name": "ItemAdded",
      "type": "event"
    },
    {
      "anonymous": false,
      "inputs": [
        {
          "indexed": true,
          "internalType": "uint256",
          "name": "id",
          "type": "uint256"
        },
        {
          "indexed": false,
          "internalType": "string",
          "name": "itemName",
          "type": "string"
        },
        {
          "indexed": false,
          "internalType": "string",
          "name": "description",
          "type": "string"
        }
      ],
      "name": "ItemDetailsUpdated",
      "type": "event"
    },
    {
      "anonymous": false,
      "inputs": [
        {
          "indexed": true,
          "internalType": "uint256",
          "name": "id",
          "type": "uint256"
        }
      ],
      "name": "ItemRecorded",
      "type": "event"
    },
    {
      "anonymous": false,
      "inputs": [
        {
          "indexed": true,
          "internalType": "address",
          "name": "manufacturer",
          "type": "address"
        }
      ],
      "name": "ManufacturerAdded",
      "type": "event"
    },
    {
      "anonymous": false,
      "inputs": [
        {
          "indexed": true,
          "internalType": "address",
          "name": "retailer",
          "type": "address"
        }
      ],
      "name": "RetailerAdded",
      "type": "event"
    },
    {
      "anonymous": false,
      "inputs": [
        {
          "indexed": true,
          "internalType": "address",
          "name": "retailer",
          "type": "address"
        }
      ],
      "name": "RetailerRemoved",
      "type": "event"
    },
    {
      "inputs": [
        {
          "internalType": "string",
          "name": "",
          "type": "string"
        }
      ],
      "name": "hashToId",
      "outputs": [
        {
          "internalType": "uint256",
          "name": "",
          "type": "uint256"
        }
      ],
      "stateMutability": "view",
      "type": "function",
      "constant": true
    },
    {
      "inputs": [
        {
          "internalType": "address",
          "name": "",
          "type": "address"
        },
        {
          "internalType": "string",
          "name": "",
          "type": "string"
        }
      ],
      "name": "identifiers",
      "outputs": [
        {
          "internalType": "uint256",
          "name": "",
          "type": "uint256"
        }
      ],
      "stateMutability": "view",
      "type": "function",
      "constant": true
    },
    {
      "inputs": [
        {
          "internalType": "uint256",
          "name": "",
          "type": "uint256"
        }
      ],
      "name": "itemDetails",
      "outputs": [
        {
          "internalType": "string",
          "name": "itemName",
          "type": "string"
        },
        {
          "internalType": "string",
          "name": "description",
          "type": "string"
        }
      ],
      "stateMutability": "view",
      "type": "function",
      "constant": true
    },
    {
      "inputs": [
        {
          "internalType": "address",
          "name": "",
          "type": "address"
        }
      ],
      "name": "manufacturerDetails",
      "outputs": [
        {
          "internalType": "address",
          "name": "manufacturer",
          "type": "address"
        },
        {
          "internalType": "string",
          "name": "name",
          "type": "string"
        },
        {
          "internalType": "string",
          "name": "location",
          "type": "string"
        },
        {
          "internalType": "string",
          "name": "email",
          "type": "string"
        },
        {
          "internalType": "uint256",
          "name": "phoneNumber",
          "type": "uint256"
        },
        {
          "internalType": "bool",
          "name": "isSignedUp",
          "type": "bool"
        }
      ],
      "stateMutability": "view",
      "type": "function",
      "constant": true
    },
    {
      "inputs": [
        {
          "internalType": "address",
          "name": "",
          "type": "address"
        },
        {
          "internalType": "address",
          "name": "",
          "type": "address"
        }
      ],
      "name": "manufacturerToRetailerDetails",
      "outputs": [
        {
          "internalType": "address",
          "name": "retailer",
          "type": "address"
        },
        {
          "internalType": "uint256",
          "name": "retailerID",
          "type": "uint256"
        },
        {
          "internalType": "string",
          "name": "name",
          "type": "string"
        },
        {
          "internalType": "string",
          "name": "location",
          "type": "string"
        },
        {
          "internalType": "string",
          "name": "email",
          "type": "string"
        },
        {
          "internalType": "uint256",
          "name": "phoneNumber",
          "type": "uint256"
        }
      ],
      "stateMutability": "view",
      "type": "function",
      "constant": true
    },
    {
      "inputs": [],
      "name": "owner",
      "outputs": [
        {
          "internalType": "address",
          "name": "",
          "type": "address"
        }
      ],
      "stateMutability": "view",
      "type": "function",
      "constant": true
    },
    {
      "inputs": [
        {
          "internalType": "uint256",
          "name": "",
          "type": "uint256"
        }
      ],
      "name": "qrHashArr",
      "outputs": [
        {
          "internalType": "uint256",
          "name": "",
          "type": "uint256"
        }
      ],
      "stateMutability": "view",
      "type": "function",
      "constant": true
    },
    {
      "inputs": [
        {
          "internalType": "string",
          "name": "",
          "type": "string"
        }
      ],
      "name": "recordedItems",
      "outputs": [
        {
          "internalType": "bool",
          "name": "",
          "type": "bool"
        }
      ],
      "stateMutability": "view",
      "type": "function",
      "constant": true
    },
    {
      "inputs": [
        {
          "internalType": "string",
          "name": "",
          "type": "string"
        }
      ],
      "name": "retailerDetails",
      "outputs": [
        {
          "internalType": "address",
          "name": "retailer",
          "type": "address"
        },
        {
          "internalType": "uint256",
          "name": "retailerID",
          "type": "uint256"
        },
        {
          "internalType": "string",
          "name": "name",
          "type": "string"
        },
        {
          "internalType": "string",
          "name": "location",
          "type": "string"
        },
        {
          "internalType": "string",
          "name": "email",
          "type": "string"
        },
        {
          "internalType": "uint256",
          "name": "phoneNumber",
          "type": "uint256"
        }
      ],
      "stateMutability": "view",
      "type": "function",
      "constant": true
    },
    {
      "inputs": [
        {
          "internalType": "address",
          "name": "",
          "type": "address"
        }
      ],
      "name": "sysOwnerMap",
      "outputs": [
        {
          "internalType": "string",
          "name": "",
          "type": "string"
        }
      ],
      "stateMutability": "view",
      "type": "function",
      "constant": true
    },
    {
      "inputs": [
        {
          "internalType": "string",
          "name": "_manfName",
          "type": "string"
        },
        {
          "internalType": "string",
          "name": "_location",
          "type": "string"
        },
        {
          "internalType": "string",
          "name": "_email",
          "type": "string"
        },
        {
          "internalType": "uint256",
          "name": "_phoneNumber",
          "type": "uint256"
        }
      ],
      "name": "signUp",
      "outputs": [],
      "stateMutability": "nonpayable",
      "type": "function"
    },
    {
      "inputs": [
        {
          "internalType": "string",
          "name": "_qrHash",
          "type": "string"
        }
      ],
      "name": "storeQrHash",
      "outputs": [],
      "stateMutability": "nonpayable",
      "type": "function"
    },
    {
      "inputs": [],
      "name": "getQrHashList",
      "outputs": [
        {
          "internalType": "uint256[]",
          "name": "",
          "type": "uint256[]"
        }
      ],
      "stateMutability": "view",
      "type": "function",
      "constant": true
    },
    {
      "inputs": [
        {
          "internalType": "uint256",
          "name": "_indeId",
          "type": "uint256"
        }
      ],
      "name": "getQrHash",
      "outputs": [
        {
          "internalType": "string",
          "name": "_qrHash",
          "type": "string"
        }
      ],
      "stateMutability": "view",
      "type": "function",
      "constant": true
    },
    {
      "inputs": [
        {
          "internalType": "address",
          "name": "_retailer",
          "type": "address"
        },
        {
          "internalType": "string",
          "name": "_name",
          "type": "string"
        },
        {
          "internalType": "string",
          "name": "_location",
          "type": "string"
        },
        {
          "internalType": "string",
          "name": "_email",
          "type": "string"
        },
        {
          "internalType": "uint256",
          "name": "_phoneNumber",
          "type": "uint256"
        }
      ],
      "name": "addRetailerInfo",
      "outputs": [],
      "stateMutability": "nonpayable",
      "type": "function"
    },
    {
      "inputs": [
        {
          "internalType": "address",
          "name": "_retailer",
          "type": "address"
        }
      ],
      "name": "removeRetailer",
      "outputs": [],
      "stateMutability": "nonpayable",
      "type": "function"
    },
    {
      "inputs": [
        {
          "internalType": "string",
          "name": "_qrHash",
          "type": "string"
        },
        {
          "internalType": "string",
          "name": "_itemName",
          "type": "string"
        },
        {
          "internalType": "string",
          "name": "_description",
          "type": "string"
        }
      ],
      "name": "addItemDetails",
      "outputs": [],
      "stateMutability": "nonpayable",
      "type": "function"
    },
    {
      "inputs": [
        {
          "internalType": "string",
          "name": "_qrHash",
          "type": "string"
        }
      ],
      "name": "getItemIdentifier",
      "outputs": [
        {
          "internalType": "uint256",
          "name": "",
          "type": "uint256"
        }
      ],
      "stateMutability": "view",
      "type": "function",
      "constant": true
    },
    {
      "inputs": [
        {
          "internalType": "string",
          "name": "_qrHash",
          "type": "string"
        }
      ],
      "name": "scanItem",
      "outputs": [
        {
          "internalType": "bool",
          "name": "",
          "type": "bool"
        }
      ],
      "stateMutability": "view",
      "type": "function",
      "constant": true
    }
  ],
  "bytecode": "0x608060405234801561001057600080fd5b50336000806101000a81548173ffffffffffffffffffffffffffffffffffffffff021916908373ffffffffffffffffffffffffffffffffffffffff160217905550612db6806100606000396000f3fe608060405234801561001057600080fd5b50600436106101215760003560e01c80638da5cb5b116100ad578063e382bf7011610071578063e382bf701461036f578063e38483a31461039f578063ef4834f8146103bb578063f3b21854146103eb578063fe244c371461040957610121565b80638da5cb5b1461029b5780638fd6a8cf146102b957806391588da2146102ee578063bd5128cc1461031e578063de5df3981461033a57610121565b80634329550c116100f45780634329550c146101e7578063477c74c1146102175780636030775e1461023357806370099ec81461026357806385ff2fd21461027f57610121565b8063121b618e146101265780631fb4e3f01461015657806324a113b11461018757806324f2fc0c146101b7575b600080fd5b610140600480360381019061013b9190611e14565b61043e565b60405161014d9190611e76565b60405180910390f35b610170600480360381019061016b9190611ebd565b61046c565b60405161017e929190611f69565b60405180910390f35b6101a1600480360381019061019c9190611e14565b6105a0565b6040516101ae9190611e76565b60405180910390f35b6101d160048036038101906101cc9190611ebd565b6105c8565b6040516101de9190611e76565b60405180910390f35b61020160048036038101906101fc9190611e14565b6105ec565b60405161020e9190611fbb565b60405180910390f35b610231600480360381019061022c9190611fd6565b610622565b005b61024d60048036038101906102489190611e14565b61087f565b60405161025a9190611fbb565b60405180910390f35b61027d600480360381019061027891906120db565b6108c5565b005b61029960048036038101906102949190612108565b610c94565b005b6102a3610f5b565b6040516102b091906121d2565b60405180910390f35b6102d360048036038101906102ce9190611e14565b610f7f565b6040516102e5969594939291906121ed565b60405180910390f35b61030860048036038101906103039190612263565b611189565b6040516103159190611e76565b60405180910390f35b610338600480360381019061033391906122bf565b6111c4565b005b610354600480360381019061034f919061238e565b6115dc565b604051610366969594939291906121ed565b60405180910390f35b61038960048036038101906103849190611ebd565b6117dd565b60405161039691906123ce565b60405180910390f35b6103b960048036038101906103b49190611e14565b611882565b005b6103d560048036038101906103d091906120db565b611964565b6040516103e291906123ce565b60405180910390f35b6103f3611a04565b60405161040091906124ae565b60405180910390f35b610423600480360381019061041e91906120db565b611a5c565b604051610435969594939291906124d0565b60405180910390f35b6007818051602081018201805184825260208301602085012081835280955050505050506000915090505481565b600860205280600052604060002060009150905080600001805461048f90612575565b80601f01602080910402602001604051908101604052809291908181526020018280546104bb90612575565b80156105085780601f106104dd57610100808354040283529160200191610508565b820191906000526020600020905b8154815290600101906020018083116104eb57829003601f168201915b50505050509080600101805461051d90612575565b80601f016020809104026020016040519081016040528092919081815260200182805461054990612575565b80156105965780601f1061056b57610100808354040283529160200191610596565b820191906000526020600020905b81548152906001019060200180831161057957829003601f168201915b5050505050905082565b60006007826040516105b291906125e2565b9081526020016040518091039020549050919050565b600c81815481106105d857600080fd5b906000526020600020016000915090505481565b6009818051602081018201805184825260208301602085012081835280955050505050506000915054906101000a900460ff1681565b600360003373ffffffffffffffffffffffffffffffffffffffff1673ffffffffffffffffffffffffffffffffffffffff16815260200190815260200160002060050160009054906101000a900460ff166106b1576040517f08c379a00000000000000000000000000000000000000000000000000000000081526004016106a89061266b565b60405180910390fd5b6002547f186760a37e06b130959978c68b5c592841caf4f64de1dc960b2c54cf454ca9dd60405160405180910390a26002547fc40b4fd4fc7e11f0a3b712073e4ccb984f6ba0dc1a6b95bf2e84d3dcd301115e8383604051610714929190611f69565b60405180910390a26002547ff0a826a8cafb62b616a6fcc2766fcfb5293f3fd1b47f06610616b9a948ba08d760405160405180910390a26002600081548092919061075e906126ba565b9190505550600254600660003373ffffffffffffffffffffffffffffffffffffffff1673ffffffffffffffffffffffffffffffffffffffff168152602001908152602001600020846040516107b391906125e2565b9081526020016040518091039020819055506002546007846040516107d891906125e2565b908152602001604051809103902081905550604051806040016040528083815260200182815250600860006002548152602001908152602001600020600082015181600001908161082991906128ae565b50602082015181600101908161083f91906128ae565b50905050600160098460405161085591906125e2565b908152602001604051809103902060006101000a81548160ff021916908315150217905550505050565b600060098260405161089191906125e2565b908152602001604051809103902060009054906101000a900460ff16156108bb57600190506108c0565b600090505b919050565b600360003373ffffffffffffffffffffffffffffffffffffffff1673ffffffffffffffffffffffffffffffffffffffff16815260200190815260200160002060050160009054906101000a900460ff16610954576040517f08c379a000000000000000000000000000000000000000000000000000000000815260040161094b9061266b565b60405180910390fd5b600073ffffffffffffffffffffffffffffffffffffffff16600460003373ffffffffffffffffffffffffffffffffffffffff1673ffffffffffffffffffffffffffffffffffffffff16815260200190815260200160002060008373ffffffffffffffffffffffffffffffffffffffff1673ffffffffffffffffffffffffffffffffffffffff16815260200190815260200160002060000160009054906101000a900473ffffffffffffffffffffffffffffffffffffffff1673ffffffffffffffffffffffffffffffffffffffff1603610a62576040517f08c379a0000000000000000000000000000000000000000000000000000000008152600401610a59906129cc565b60405180910390fd5b8073ffffffffffffffffffffffffffffffffffffffff167fdb7176e79cffef81cb01767dd0447a0b24bb72ca9778d4b245581086b2a7e6db60405160405180910390a2600460003373ffffffffffffffffffffffffffffffffffffffff1673ffffffffffffffffffffffffffffffffffffffff16815260200190815260200160002060008273ffffffffffffffffffffffffffffffffffffffff1673ffffffffffffffffffffffffffffffffffffffff168152602001908152602001600020600080820160006101000a81549073ffffffffffffffffffffffffffffffffffffffff02191690556001820160009055600282016000610b619190611c5d565b600382016000610b719190611c5d565b600482016000610b819190611c5d565b600582016000905550506005600460003373ffffffffffffffffffffffffffffffffffffffff1673ffffffffffffffffffffffffffffffffffffffff16815260200190815260200160002060008373ffffffffffffffffffffffffffffffffffffffff1673ffffffffffffffffffffffffffffffffffffffff168152602001908152602001600020600201604051610c199190612a6f565b9081526020016040518091039020600080820160006101000a81549073ffffffffffffffffffffffffffffffffffffffff02191690556001820160009055600282016000610c679190611c5d565b600382016000610c779190611c5d565b600482016000610c879190611c5d565b6005820160009055505050565b600073ffffffffffffffffffffffffffffffffffffffff163373ffffffffffffffffffffffffffffffffffffffff1603610d03576040517f08c379a0000000000000000000000000000000000000000000000000000000008152600401610cfa90612ad2565b60405180910390fd5b600360003373ffffffffffffffffffffffffffffffffffffffff1673ffffffffffffffffffffffffffffffffffffffff16815260200190815260200160002060050160009054906101000a900460ff1615610d93576040517f08c379a0000000000000000000000000000000000000000000000000000000008152600401610d8a90612b64565b60405180910390fd5b6000845111610dd7576040517f08c379a0000000000000000000000000000000000000000000000000000000008152600401610dce90612bf6565b60405180910390fd5b3373ffffffffffffffffffffffffffffffffffffffff167f561138658ca49a8540dc70dcfe64c9026c1c5b9344642242dd6562970f9c127860405160405180910390a26040518060c001604052803373ffffffffffffffffffffffffffffffffffffffff16815260200185815260200184815260200183815260200182815260200160011515815250600360003373ffffffffffffffffffffffffffffffffffffffff1673ffffffffffffffffffffffffffffffffffffffff16815260200190815260200160002060008201518160000160006101000a81548173ffffffffffffffffffffffffffffffffffffffff021916908373ffffffffffffffffffffffffffffffffffffffff1602179055506020820151816001019081610efb91906128ae565b506040820151816002019081610f1191906128ae565b506060820151816003019081610f2791906128ae565b506080820151816004015560a08201518160050160006101000a81548160ff02191690831515021790555090505050505050565b60008054906101000a900473ffffffffffffffffffffffffffffffffffffffff1681565b6005818051602081018201805184825260208301602085012081835280955050505050506000915090508060000160009054906101000a900473ffffffffffffffffffffffffffffffffffffffff1690806001015490806002018054610fe490612575565b80601f016020809104026020016040519081016040528092919081815260200182805461101090612575565b801561105d5780601f106110325761010080835404028352916020019161105d565b820191906000526020600020905b81548152906001019060200180831161104057829003601f168201915b50505050509080600301805461107290612575565b80601f016020809104026020016040519081016040528092919081815260200182805461109e90612575565b80156110eb5780601f106110c0576101008083540402835291602001916110eb565b820191906000526020600020905b8154815290600101906020018083116110ce57829003601f168201915b50505050509080600401805461110090612575565b80601f016020809104026020016040519081016040528092919081815260200182805461112c90612575565b80156111795780601f1061114e57610100808354040283529160200191611179565b820191906000526020600020905b81548152906001019060200180831161115c57829003601f168201915b5050505050908060050154905086565b600660205281600052604060002081805160208101820180518482526020830160208501208183528095505050505050600091509150505481565b600360003373ffffffffffffffffffffffffffffffffffffffff1673ffffffffffffffffffffffffffffffffffffffff16815260200190815260200160002060050160009054906101000a900460ff16611253576040517f08c379a000000000000000000000000000000000000000000000000000000000815260040161124a9061266b565b60405180910390fd5b600073ffffffffffffffffffffffffffffffffffffffff168573ffffffffffffffffffffffffffffffffffffffff16036112c2576040517f08c379a00000000000000000000000000000000000000000000000000000000081526004016112b990612c62565b60405180910390fd5b8473ffffffffffffffffffffffffffffffffffffffff167f71ae26cad02663e3d92efd6ec56031a80d74a20c0ab4183faa8bf262261c9baa60405160405180910390a260016000815480929190611318906126ba565b91905055506040518060c001604052808673ffffffffffffffffffffffffffffffffffffffff168152602001600154815260200185815260200184815260200183815260200182815250600460003373ffffffffffffffffffffffffffffffffffffffff1673ffffffffffffffffffffffffffffffffffffffff16815260200190815260200160002060008773ffffffffffffffffffffffffffffffffffffffff1673ffffffffffffffffffffffffffffffffffffffff16815260200190815260200160002060008201518160000160006101000a81548173ffffffffffffffffffffffffffffffffffffffff021916908373ffffffffffffffffffffffffffffffffffffffff16021790555060208201518160010155604082015181600201908161144491906128ae565b50606082015181600301908161145a91906128ae565b50608082015181600401908161147091906128ae565b5060a08201518160050155905050600460003373ffffffffffffffffffffffffffffffffffffffff1673ffffffffffffffffffffffffffffffffffffffff16815260200190815260200160002060008673ffffffffffffffffffffffffffffffffffffffff1673ffffffffffffffffffffffffffffffffffffffff16815260200190815260200160002060058560405161150a91906125e2565b90815260200160405180910390206000820160009054906101000a900473ffffffffffffffffffffffffffffffffffffffff168160000160006101000a81548173ffffffffffffffffffffffffffffffffffffffff021916908373ffffffffffffffffffffffffffffffffffffffff160217905550600182015481600101556002820181600201908161159d9190612c98565b50600382018160030190816115b29190612c98565b50600482018160040190816115c79190612c98565b50600582015481600501559050505050505050565b6004602052816000526040600020602052806000526040600020600091509150508060000160009054906101000a900473ffffffffffffffffffffffffffffffffffffffff169080600101549080600201805461163890612575565b80601f016020809104026020016040519081016040528092919081815260200182805461166490612575565b80156116b15780601f10611686576101008083540402835291602001916116b1565b820191906000526020600020905b81548152906001019060200180831161169457829003601f168201915b5050505050908060030180546116c690612575565b80601f01602080910402602001604051908101604052809291908181526020018280546116f290612575565b801561173f5780601f106117145761010080835404028352916020019161173f565b820191906000526020600020905b81548152906001019060200180831161172257829003601f168201915b50505050509080600401805461175490612575565b80601f016020809104026020016040519081016040528092919081815260200182805461178090612575565b80156117cd5780601f106117a2576101008083540402835291602001916117cd565b820191906000526020600020905b8154815290600101906020018083116117b057829003601f168201915b5050505050908060050154905086565b6060600a600083815260200190815260200160002080546117fd90612575565b80601f016020809104026020016040519081016040528092919081815260200182805461182990612575565b80156118765780601f1061184b57610100808354040283529160200191611876565b820191906000526020600020905b81548152906001019060200180831161185957829003601f168201915b50505050509050919050565b600360003373ffffffffffffffffffffffffffffffffffffffff1673ffffffffffffffffffffffffffffffffffffffff16815260200190815260200160002060050160009054906101000a900460ff16611911576040517f08c379a00000000000000000000000000000000000000000000000000000000081526004016119089061266b565b60405180910390fd5b600042905081600a6000838152602001908152602001600020908161193691906128ae565b50600c8190806001815401808255809150506001900390600052602060002001600090919091909150555050565b600b602052806000526040600020600091509050805461198390612575565b80601f01602080910402602001604051908101604052809291908181526020018280546119af90612575565b80156119fc5780601f106119d1576101008083540402835291602001916119fc565b820191906000526020600020905b8154815290600101906020018083116119df57829003601f168201915b505050505081565b6060600c805480602002602001604051908101604052809291908181526020018280548015611a5257602002820191906000526020600020905b815481526020019060010190808311611a3e575b5050505050905090565b60036020528060005260406000206000915090508060000160009054906101000a900473ffffffffffffffffffffffffffffffffffffffff1690806001018054611aa590612575565b80601f0160208091040260200160405190810160405280929190818152602001828054611ad190612575565b8015611b1e5780601f10611af357610100808354040283529160200191611b1e565b820191906000526020600020905b815481529060010190602001808311611b0157829003601f168201915b505050505090806002018054611b3390612575565b80601f0160208091040260200160405190810160405280929190818152602001828054611b5f90612575565b8015611bac5780601f10611b8157610100808354040283529160200191611bac565b820191906000526020600020905b815481529060010190602001808311611b8f57829003601f168201915b505050505090806003018054611bc190612575565b80601f0160208091040260200160405190810160405280929190818152602001828054611bed90612575565b8015611c3a5780601f10611c0f57610100808354040283529160200191611c3a565b820191906000526020600020905b815481529060010190602001808311611c1d57829003601f168201915b5050505050908060040154908060050160009054906101000a900460ff16905086565b508054611c6990612575565b6000825580601f10611c7b5750611c9a565b601f016020900490600052602060002090810190611c999190611c9d565b5b50565b5b80821115611cb6576000816000905550600101611c9e565b5090565b6000604051905090565b600080fd5b600080fd5b600080fd5b600080fd5b6000601f19601f8301169050919050565b7f4e487b7100000000000000000000000000000000000000000000000000000000600052604160045260246000fd5b611d2182611cd8565b810181811067ffffffffffffffff82111715611d4057611d3f611ce9565b5b80604052505050565b6000611d53611cba565b9050611d5f8282611d18565b919050565b600067ffffffffffffffff821115611d7f57611d7e611ce9565b5b611d8882611cd8565b9050602081019050919050565b82818337600083830152505050565b6000611db7611db284611d64565b611d49565b905082815260208101848484011115611dd357611dd2611cd3565b5b611dde848285611d95565b509392505050565b600082601f830112611dfb57611dfa611cce565b5b8135611e0b848260208601611da4565b91505092915050565b600060208284031215611e2a57611e29611cc4565b5b600082013567ffffffffffffffff811115611e4857611e47611cc9565b5b611e5484828501611de6565b91505092915050565b6000819050919050565b611e7081611e5d565b82525050565b6000602082019050611e8b6000830184611e67565b92915050565b611e9a81611e5d565b8114611ea557600080fd5b50565b600081359050611eb781611e91565b92915050565b600060208284031215611ed357611ed2611cc4565b5b6000611ee184828501611ea8565b91505092915050565b600081519050919050565b600082825260208201905092915050565b60005b83811015611f24578082015181840152602081019050611f09565b60008484015250505050565b6000611f3b82611eea565b611f458185611ef5565b9350611f55818560208601611f06565b611f5e81611cd8565b840191505092915050565b60006040820190508181036000830152611f838185611f30565b90508181036020830152611f978184611f30565b90509392505050565b60008115159050919050565b611fb581611fa0565b82525050565b6000602082019050611fd06000830184611fac565b92915050565b600080600060608486031215611fef57611fee611cc4565b5b600084013567ffffffffffffffff81111561200d5761200c611cc9565b5b61201986828701611de6565b935050602084013567ffffffffffffffff81111561203a57612039611cc9565b5b61204686828701611de6565b925050604084013567ffffffffffffffff81111561206757612066611cc9565b5b61207386828701611de6565b9150509250925092565b600073ffffffffffffffffffffffffffffffffffffffff82169050919050565b60006120a88261207d565b9050919050565b6120b88161209d565b81146120c357600080fd5b50565b6000813590506120d5816120af565b92915050565b6000602082840312156120f1576120f0611cc4565b5b60006120ff848285016120c6565b91505092915050565b6000806000806080858703121561212257612121611cc4565b5b600085013567ffffffffffffffff8111156121405761213f611cc9565b5b61214c87828801611de6565b945050602085013567ffffffffffffffff81111561216d5761216c611cc9565b5b61217987828801611de6565b935050604085013567ffffffffffffffff81111561219a57612199611cc9565b5b6121a687828801611de6565b92505060606121b787828801611ea8565b91505092959194509250565b6121cc8161209d565b82525050565b60006020820190506121e760008301846121c3565b92915050565b600060c08201905061220260008301896121c3565b61220f6020830188611e67565b81810360408301526122218187611f30565b905081810360608301526122358186611f30565b905081810360808301526122498185611f30565b905061225860a0830184611e67565b979650505050505050565b6000806040838503121561227a57612279611cc4565b5b6000612288858286016120c6565b925050602083013567ffffffffffffffff8111156122a9576122a8611cc9565b5b6122b585828601611de6565b9150509250929050565b600080600080600060a086880312156122db576122da611cc4565b5b60006122e9888289016120c6565b955050602086013567ffffffffffffffff81111561230a57612309611cc9565b5b61231688828901611de6565b945050604086013567ffffffffffffffff81111561233757612336611cc9565b5b61234388828901611de6565b935050606086013567ffffffffffffffff81111561236457612363611cc9565b5b61237088828901611de6565b925050608061238188828901611ea8565b9150509295509295909350565b600080604083850312156123a5576123a4611cc4565b5b60006123b3858286016120c6565b92505060206123c4858286016120c6565b9150509250929050565b600060208201905081810360008301526123e88184611f30565b905092915050565b600081519050919050565b600082825260208201905092915050565b6000819050602082019050919050565b61242581611e5d565b82525050565b6000612437838361241c565b60208301905092915050565b6000602082019050919050565b600061245b826123f0565b61246581856123fb565b93506124708361240c565b8060005b838110156124a1578151612488888261242b565b975061249383612443565b925050600181019050612474565b5085935050505092915050565b600060208201905081810360008301526124c88184612450565b905092915050565b600060c0820190506124e560008301896121c3565b81810360208301526124f78188611f30565b9050818103604083015261250b8187611f30565b9050818103606083015261251f8186611f30565b905061252e6080830185611e67565b61253b60a0830184611fac565b979650505050505050565b7f4e487b7100000000000000000000000000000000000000000000000000000000600052602260045260246000fd5b6000600282049050600182168061258d57607f821691505b6020821081036125a05761259f612546565b5b50919050565b600081905092915050565b60006125bc82611eea565b6125c681856125a6565b93506125d6818560208601611f06565b80840191505092915050565b60006125ee82846125b1565b915081905092915050565b7f4f6e6c79206d616e7566616374757265722063616e206164642072657461696c60008201527f65722064657461696c7300000000000000000000000000000000000000000000602082015250565b6000612655602a83611ef5565b9150612660826125f9565b604082019050919050565b6000602082019050818103600083015261268481612648565b9050919050565b7f4e487b7100000000000000000000000000000000000000000000000000000000600052601160045260246000fd5b60006126c582611e5d565b91507fffffffffffffffffffffffffffffffffffffffffffffffffffffffffffffffff82036126f7576126f661268b565b5b600182019050919050565b60008190508160005260206000209050919050565b60006020601f8301049050919050565b600082821b905092915050565b6000600883026127647fffffffffffffffffffffffffffffffffffffffffffffffffffffffffffffffff82612727565b61276e8683612727565b95508019841693508086168417925050509392505050565b6000819050919050565b60006127ab6127a66127a184611e5d565b612786565b611e5d565b9050919050565b6000819050919050565b6127c583612790565b6127d96127d1826127b2565b848454612734565b825550505050565b600090565b6127ee6127e1565b6127f98184846127bc565b505050565b5b8181101561281d576128126000826127e6565b6001810190506127ff565b5050565b601f8211156128625761283381612702565b61283c84612717565b8101602085101561284b578190505b61285f61285785612717565b8301826127fe565b50505b505050565b600082821c905092915050565b600061288560001984600802612867565b1980831691505092915050565b600061289e8383612874565b9150826002028217905092915050565b6128b782611eea565b67ffffffffffffffff8111156128d0576128cf611ce9565b5b6128da8254612575565b6128e5828285612821565b600060209050601f8311600181146129185760008415612906578287015190505b6129108582612892565b865550612978565b601f19841661292686612702565b60005b8281101561294e57848901518255600182019150602085019450602081019050612929565b8683101561296b5784890151612967601f891682612874565b8355505b6001600288020188555050505b505050505050565b7f52657461696c6572206e6f7420666f756e640000000000000000000000000000600082015250565b60006129b6601283611ef5565b91506129c182612980565b602082019050919050565b600060208201905081810360008301526129e5816129a9565b9050919050565b600081546129f981612575565b612a0381866125a6565b94506001821660008114612a1e5760018114612a3357612a66565b60ff1983168652811515820286019350612a66565b612a3c85612702565b60005b83811015612a5e57815481890152600182019150602081019050612a3f565b838801955050505b50505092915050565b6000612a7b82846129ec565b915081905092915050565b7f41646472657373206e6f742076616c6964000000000000000000000000000000600082015250565b6000612abc601183611ef5565b9150612ac782612a86565b602082019050919050565b60006020820190508181036000830152612aeb81612aaf565b9050919050565b7f4d616e75666163747572657220697320616c726561647920726567697374657260008201527f6564000000000000000000000000000000000000000000000000000000000000602082015250565b6000612b4e602283611ef5565b9150612b5982612af2565b604082019050919050565b60006020820190508181036000830152612b7d81612b41565b9050919050565b7f4d616e756661637475726572206e616d652063616e6e6f7420626520656d707460008201527f7900000000000000000000000000000000000000000000000000000000000000602082015250565b6000612be0602183611ef5565b9150612beb82612b84565b604082019050919050565b60006020820190508181036000830152612c0f81612bd3565b9050919050565b7f52657461696c657220616464726573732063616e6e6f74206265207a65726f00600082015250565b6000612c4c601f83611ef5565b9150612c5782612c16565b602082019050919050565b60006020820190508181036000830152612c7b81612c3f565b9050919050565b600081549050612c9181612575565b9050919050565b818103612ca6575050612d7e565b612caf82612c82565b67ffffffffffffffff811115612cc857612cc7611ce9565b5b612cd28254612575565b612cdd828285612821565b6000601f831160018114612d0c5760008415612cfa578287015490505b612d048582612892565b865550612d77565b601f198416612d1a87612702565b9650612d2586612702565b60005b82811015612d4d57848901548255600182019150600185019450602081019050612d28565b86831015612d6a5784890154612d66601f891682612874565b8355505b6001600288020188555050505b5050505050505b56fea2646970667358221220475bfaf5bc878e0142a7fb7e7bb5eefffaa2ba6f585b5feebcab2e3c47b2cb8464736f6c63430008130033",
  "immutableReferences": {},
  "source": "// SPDX-License-Identifier: MIT\npragma solidity ^0.8.19;\n\ncontract QrCode {\n    event ManufacturerAdded(address indexed manufacturer);\n    event RetailerAdded(address indexed retailer);\n    event RetailerRemoved(address indexed retailer);\n    event ItemAdded(uint256 indexed id);\n    event ItemDetailsUpdated(uint256 indexed id, string itemName, string description);\n    event ItemRecorded(uint256 indexed id);\n    // event ItemNotFound(string qrHash);\n\n    struct Manufacturer {\n        address manufacturer;\n        string name;\n        string location;\n        string email;\n        uint256 phoneNumber;\n        bool isSignedUp;\n    }\n\n    struct Retailer {\n        address retailer;\n        uint256 retailerID;\n        string name;\n        string location;\n        string email;\n        uint256 phoneNumber;\n    }\n\n    struct ItemDetails {\n        string itemName;\n        string description;\n    }\n\n    //@dev Josephat create system account structure\n    struct SystemOwner {\n        address sysOwner;\n        string password;\n    }\n\n    address public owner;\n    uint256 private s_retailerID;\n    uint256 private item_ID;\n\n    mapping(address => Manufacturer) public manufacturerDetails;\n    mapping(address => mapping(address => Retailer)) public manufacturerToRetailerDetails;\n    mapping(string => Retailer) public retailerDetails;\n\n    mapping(address => mapping(string => uint256)) public identifiers;\n    mapping(string => uint256) public hashToId;\n    mapping(uint256 => ItemDetails) public itemDetails;\n    mapping(string => bool) public recordedItems;\n\n    //@dev Josephat mapping\n    mapping(uint256 => string) private qrHashMap;\n    mapping(address => string) public sysOwnerMap;\n\n    //@dev Josephat array\n    uint256[] public qrHashArr;\n\n    constructor() {\n        owner = msg.sender;\n    }\n\n    modifier onlyManufacturer() {\n        require(\n            manufacturerDetails[msg.sender].isSignedUp,\n            \"Only manufacturer can add retailer details\"\n        );\n        _;\n    }\n\n    function signUp(\n        string memory _manfName,\n        string memory _location,\n        string memory _email,\n        uint256 _phoneNumber\n    ) external {\n        require(msg.sender != address(0), \"Address not valid\");\n        require(!manufacturerDetails[msg.sender].isSignedUp, \"Manufacturer is already registered\");\n        require(bytes(_manfName).length > 0, \"Manufacturer name cannot be empty\");\n\n        emit ManufacturerAdded(msg.sender);\n        manufacturerDetails[msg.sender] = Manufacturer(\n            msg.sender,\n            _manfName,\n            _location,\n            _email,\n            _phoneNumber,\n            true\n        );\n    }\n\n    //@dev Josephat function to store data to the array storeQrHash executed by only manufacturer\n    function storeQrHash(string memory _qrHash) external onlyManufacturer {\n        uint timestamp = block.timestamp;\n        qrHashMap[timestamp] = _qrHash;\n        qrHashArr.push(timestamp);\n    }\n\n    //@dev Josephat function to return qrcodeHash array to the manufacturer frontend\n    function getQrHashList() external view returns (uint256[] memory) {\n        return qrHashArr;\n    }\n\n    //@dev Josephat function to view qrcodeHash one by one\n    function getQrHash(uint256 _indeId) external view returns (string memory _qrHash) {\n        _qrHash = qrHashMap[_indeId];\n    }\n\n    function addRetailerInfo(\n        address _retailer,\n        string memory _name,\n        string memory _location,\n        string memory _email,\n        uint256 _phoneNumber\n    ) external onlyManufacturer {\n        require(_retailer != address(0), \"Retailer address cannot be zero\");\n        emit RetailerAdded(_retailer);\n        s_retailerID++;\n        manufacturerToRetailerDetails[msg.sender][_retailer] = Retailer(\n            _retailer,\n            s_retailerID,\n            _name,\n            _location,\n            _email,\n            _phoneNumber\n        );\n        retailerDetails[_name] = manufacturerToRetailerDetails[msg.sender][_retailer];\n    }\n\n    function removeRetailer(address _retailer) external onlyManufacturer {\n        require(\n            manufacturerToRetailerDetails[msg.sender][_retailer].retailer != address(0),\n            \"Retailer not found\"\n        );\n        emit RetailerRemoved(_retailer);\n        delete manufacturerToRetailerDetails[msg.sender][_retailer];\n        delete retailerDetails[manufacturerToRetailerDetails[msg.sender][_retailer].name];\n    }\n\n    function addItemDetails(\n        string memory _qrHash,\n        string memory _itemName,\n        string memory _description\n    ) external onlyManufacturer {\n        // require(identifiers[msg.sender][_qrHash] == 0, \"Identifier already exists\");\n        // require(hashToId[_qrHash] == 0, \"Identifier already exists\");\n        // require(!recordedItems[_qrHash], \"Item already recorded\");\n        // require(bytes(_itemName).length > 0, \"Item name cannot be empty\");\n        // require(bytes(_description).length > 0, \"Description cannot be empty\");\n\n        emit ItemAdded(item_ID);\n        emit ItemDetailsUpdated(item_ID, _itemName, _description);\n        emit ItemRecorded(item_ID);\n\n        item_ID++;\n        identifiers[msg.sender][_qrHash] = item_ID;\n        hashToId[_qrHash] = item_ID;\n        itemDetails[item_ID] = ItemDetails(_itemName, _description);\n        recordedItems[_qrHash] = true;\n    }\n\n    function getItemIdentifier(string memory _qrHash) public view returns (uint256) {\n        return hashToId[_qrHash];\n    }\n\n    function scanItem(string memory _qrHash) external view returns (bool) {\n        if (recordedItems[_qrHash]) {\n            // return itemDetails[getItemIdentifier(_qrHash)];\n            return true;\n        } else {\n            // emit ItemNotFound(_qrHash);\n            // return ItemDetails(\"\", \"\");\n            return false;\n        }\n    }\n}\n",
  "sourcePath": "/home/temba/alcoshield/contracts/QrCode.sol",
  "compiler": {
    "name": "solc",
    "version": "0.8.19+commit.7dd6d404.Emscripten.clang"
  },
  "schemaVersion": "3.4.16",
  "updatedAt": "2024-02-16T00:06:47.879Z",
  "networkType": "ethereum",
  "devdoc": {
    "kind": "dev",
    "methods": {},
    "version": 1
  },
  "userdoc": {
    "kind": "user",
    "methods": {},
    "version": 1
  }
}