{
  "contractName": "QrCode",
  "abi": [
    {
      "inputs": [],
      "stateMutability": "nonpayable",
      "type": "constructor"
    },
    {
      "anonymous": false,
      "inputs": [
        {
          "indexed": true,
          "internalType": "uint256",
          "name": "id",
          "type": "uint256"
        }
      ],
      "name": "ItemAdded_M",
      "type": "event"
    },
    {
      "anonymous": false,
      "inputs": [
        {
          "indexed": true,
          "internalType": "uint256",
          "name": "id",
          "type": "uint256"
        },
        {
          "indexed": false,
          "internalType": "string",
          "name": "itemName",
          "type": "string"
        },
        {
          "indexed": false,
          "internalType": "string",
          "name": "description",
          "type": "string"
        }
      ],
      "name": "ItemDetailsUpdated_M",
      "type": "event"
    },
    {
      "anonymous": false,
      "inputs": [
        {
          "indexed": true,
          "internalType": "uint256",
          "name": "id",
          "type": "uint256"
        }
      ],
      "name": "ItemRecorded_M",
      "type": "event"
    },
    {
      "anonymous": false,
      "inputs": [
        {
          "indexed": true,
          "internalType": "address",
          "name": "manufacturer",
          "type": "address"
        }
      ],
      "name": "ManufacturerAdded",
      "type": "event"
    },
    {
      "anonymous": false,
      "inputs": [
        {
          "indexed": true,
          "internalType": "address",
          "name": "admin",
          "type": "address"
        }
      ],
      "name": "PasswordChanged",
      "type": "event"
    },
    {
      "anonymous": false,
      "inputs": [
        {
          "indexed": false,
          "internalType": "string",
          "name": "retailer",
          "type": "string"
        }
      ],
      "name": "RetailerAdded",
      "type": "event"
    },
    {
      "anonymous": false,
      "inputs": [
        {
          "indexed": true,
          "internalType": "address",
          "name": "retailerAddress",
          "type": "address"
        }
      ],
      "name": "RetailerRemoved",
      "type": "event"
    },
    {
      "anonymous": false,
      "inputs": [
        {
          "indexed": true,
          "internalType": "address",
          "name": "newAdmin",
          "type": "address"
        }
      ],
      "name": "ownershipTransferred",
      "type": "event"
    },
    {
      "anonymous": false,
      "inputs": [
        {
          "indexed": false,
          "internalType": "uint256",
          "name": "_blockId",
          "type": "uint256"
        }
      ],
      "name": "qrHashDeleted",
      "type": "event"
    },
    {
      "anonymous": false,
      "inputs": [
        {
          "indexed": true,
          "internalType": "uint256",
          "name": "timestamp",
          "type": "uint256"
        }
      ],
      "name": "qrHashStored",
      "type": "event"
    },
    {
      "inputs": [
        {
          "internalType": "uint256",
          "name": "",
          "type": "uint256"
        }
      ],
      "name": "itemDetails",
      "outputs": [
        {
          "internalType": "string",
          "name": "itemName",
          "type": "string"
        },
        {
          "internalType": "string",
          "name": "description",
          "type": "string"
        }
      ],
      "stateMutability": "view",
      "type": "function",
      "constant": true
    },
    {
      "inputs": [
        {
          "internalType": "address",
          "name": "",
          "type": "address"
        }
      ],
      "name": "manufacturerDetails",
      "outputs": [
        {
          "internalType": "address",
          "name": "manPublicAddress",
          "type": "address"
        },
        {
          "internalType": "string",
          "name": "fullName",
          "type": "string"
        },
        {
          "internalType": "string",
          "name": "email",
          "type": "string"
        },
        {
          "internalType": "string",
          "name": "brand",
          "type": "string"
        },
        {
          "internalType": "string",
          "name": "licenseUri",
          "type": "string"
        },
        {
          "internalType": "string",
          "name": "country",
          "type": "string"
        },
        {
          "internalType": "string",
          "name": "region",
          "type": "string"
        },
        {
          "internalType": "string",
          "name": "state",
          "type": "string"
        },
        {
          "internalType": "bool",
          "name": "agreement",
          "type": "bool"
        },
        {
          "internalType": "string",
          "name": "password",
          "type": "string"
        },
        {
          "internalType": "bool",
          "name": "isVerified",
          "type": "bool"
        },
        {
          "internalType": "bool",
          "name": "isRegistered",
          "type": "bool"
        },
        {
          "internalType": "bool",
          "name": "isLogin",
          "type": "bool"
        }
      ],
      "stateMutability": "view",
      "type": "function",
      "constant": true
    },
    {
      "inputs": [
        {
          "internalType": "address",
          "name": "",
          "type": "address"
        },
        {
          "internalType": "address",
          "name": "",
          "type": "address"
        }
      ],
      "name": "manufacturerToRetailerDetails",
      "outputs": [
        {
          "internalType": "address",
          "name": "publicAddress",
          "type": "address"
        },
        {
          "internalType": "string",
          "name": "name",
          "type": "string"
        },
        {
          "internalType": "string",
          "name": "location",
          "type": "string"
        },
        {
          "internalType": "string",
          "name": "email",
          "type": "string"
        },
        {
          "internalType": "string",
          "name": "password",
          "type": "string"
        }
      ],
      "stateMutability": "view",
      "type": "function",
      "constant": true
    },
    {
      "inputs": [
        {
          "internalType": "string",
          "name": "",
          "type": "string"
        }
      ],
      "name": "matchHashToId",
      "outputs": [
        {
          "internalType": "uint256",
          "name": "",
          "type": "uint256"
        }
      ],
      "stateMutability": "view",
      "type": "function",
      "constant": true
    },
    {
      "inputs": [
        {
          "internalType": "string",
          "name": "",
          "type": "string"
        }
      ],
      "name": "matchedItems",
      "outputs": [
        {
          "internalType": "bool",
          "name": "",
          "type": "bool"
        }
      ],
      "stateMutability": "view",
      "type": "function",
      "constant": true
    },
    {
      "inputs": [
        {
          "internalType": "address",
          "name": "",
          "type": "address"
        }
      ],
      "name": "retailerDetails",
      "outputs": [
        {
          "internalType": "address",
          "name": "publicAddress",
          "type": "address"
        },
        {
          "internalType": "string",
          "name": "name",
          "type": "string"
        },
        {
          "internalType": "string",
          "name": "location",
          "type": "string"
        },
        {
          "internalType": "string",
          "name": "email",
          "type": "string"
        },
        {
          "internalType": "string",
          "name": "password",
          "type": "string"
        }
      ],
      "stateMutability": "view",
      "type": "function",
      "constant": true
    },
    {
      "inputs": [],
      "name": "s_retailerID",
      "outputs": [
        {
          "internalType": "uint256",
          "name": "",
          "type": "uint256"
        }
      ],
      "stateMutability": "view",
      "type": "function",
      "constant": true
    },
    {
      "inputs": [
        {
          "internalType": "bytes32",
          "name": "_password",
          "type": "bytes32"
        }
      ],
      "name": "loginSysOwner",
      "outputs": [],
      "stateMutability": "nonpayable",
      "type": "function"
    },
    {
      "inputs": [
        {
          "internalType": "bytes32",
          "name": "oldPassword",
          "type": "bytes32"
        },
        {
          "internalType": "bytes32",
          "name": "_newPassword",
          "type": "bytes32"
        }
      ],
      "name": "changePassword",
      "outputs": [],
      "stateMutability": "nonpayable",
      "type": "function"
    },
    {
      "inputs": [
        {
          "internalType": "address",
          "name": "_address",
          "type": "address"
        }
      ],
      "name": "transferOwnership",
      "outputs": [],
      "stateMutability": "nonpayable",
      "type": "function"
    },
    {
      "inputs": [
        {
          "internalType": "address",
          "name": "_manPublicAddress",
          "type": "address"
        },
        {
          "internalType": "string",
          "name": "_fullName",
          "type": "string"
        },
        {
          "internalType": "string",
          "name": "_email",
          "type": "string"
        },
        {
          "internalType": "string",
          "name": "_brand",
          "type": "string"
        },
        {
          "internalType": "string",
          "name": "_licenseUri",
          "type": "string"
        },
        {
          "internalType": "string",
          "name": "_country",
          "type": "string"
        },
        {
          "internalType": "string",
          "name": "_region",
          "type": "string"
        },
        {
          "internalType": "string",
          "name": "_state",
          "type": "string"
        },
        {
          "internalType": "bool",
          "name": "_agreement",
          "type": "bool"
        },
        {
          "internalType": "string",
          "name": "_password",
          "type": "string"
        }
      ],
      "name": "signUpManufacturer",
      "outputs": [],
      "stateMutability": "nonpayable",
      "type": "function"
    },
    {
      "inputs": [
        {
          "internalType": "address",
          "name": "_MNPublicAddress",
          "type": "address"
        },
        {
          "internalType": "string",
          "name": "_password",
          "type": "string"
        }
      ],
      "name": "manufacturerLogin",
      "outputs": [],
      "stateMutability": "nonpayable",
      "type": "function"
    },
    {
      "inputs": [
        {
          "internalType": "address",
          "name": "_publicAddress",
          "type": "address"
        },
        {
          "internalType": "string",
          "name": "_name",
          "type": "string"
        },
        {
          "internalType": "string",
          "name": "_location",
          "type": "string"
        },
        {
          "internalType": "string",
          "name": "_email",
          "type": "string"
        },
        {
          "internalType": "string",
          "name": "_password",
          "type": "string"
        }
      ],
      "name": "addRetailer",
      "outputs": [],
      "stateMutability": "nonpayable",
      "type": "function"
    },
    {
      "inputs": [
        {
          "internalType": "address",
          "name": "_retailerAddress",
          "type": "address"
        }
      ],
      "name": "removeRetailer",
      "outputs": [],
      "stateMutability": "nonpayable",
      "type": "function"
    },
    {
      "inputs": [
        {
          "internalType": "string",
          "name": "_qrHash",
          "type": "string"
        }
      ],
      "name": "storeQrHash",
      "outputs": [],
      "stateMutability": "nonpayable",
      "type": "function"
    },
    {
      "inputs": [
        {
          "internalType": "uint256",
          "name": "_blockId",
          "type": "uint256"
        }
      ],
      "name": "deleteQrHash",
      "outputs": [],
      "stateMutability": "nonpayable",
      "type": "function"
    },
    {
      "inputs": [],
      "name": "getManufacturerArray",
      "outputs": [
        {
          "internalType": "address[]",
          "name": "",
          "type": "address[]"
        }
      ],
      "stateMutability": "view",
      "type": "function",
      "constant": true
    },
    {
      "inputs": [
        {
          "internalType": "address",
          "name": "_manPublicAddress",
          "type": "address"
        }
      ],
      "name": "getManufacturer",
      "outputs": [
        {
          "internalType": "address",
          "name": "manPublicAddress",
          "type": "address"
        },
        {
          "internalType": "string",
          "name": "email",
          "type": "string"
        },
        {
          "internalType": "string",
          "name": "fullName",
          "type": "string"
        },
        {
          "internalType": "string",
          "name": "brand",
          "type": "string"
        },
        {
          "internalType": "string",
          "name": "licenseUri",
          "type": "string"
        },
        {
          "internalType": "string",
          "name": "country",
          "type": "string"
        },
        {
          "internalType": "string",
          "name": "region",
          "type": "string"
        },
        {
          "internalType": "string",
          "name": "state",
          "type": "string"
        },
        {
          "internalType": "bool",
          "name": "agreement",
          "type": "bool"
        },
        {
          "internalType": "bool",
          "name": "isVerified",
          "type": "bool"
        }
      ],
      "stateMutability": "view",
      "type": "function",
      "constant": true
    },
    {
      "inputs": [],
      "name": "getManfItemIDList",
      "outputs": [
        {
          "internalType": "uint256[]",
          "name": "",
          "type": "uint256[]"
        }
      ],
      "stateMutability": "view",
      "type": "function",
      "constant": true
    },
    {
      "inputs": [
        {
          "internalType": "address",
          "name": "_manPublicAddress",
          "type": "address"
        },
        {
          "internalType": "uint256",
          "name": "_blockId",
          "type": "uint256"
        }
      ],
      "name": "getQrHashAndID",
      "outputs": [
        {
          "internalType": "string",
          "name": "qrHash",
          "type": "string"
        },
        {
          "internalType": "uint256",
          "name": "blockId",
          "type": "uint256"
        }
      ],
      "stateMutability": "view",
      "type": "function",
      "constant": true
    },
    {
      "inputs": [
        {
          "internalType": "string",
          "name": "_qrHash",
          "type": "string"
        },
        {
          "internalType": "uint256",
          "name": "_blockId",
          "type": "uint256"
        },
        {
          "internalType": "string",
          "name": "_itemName",
          "type": "string"
        },
        {
          "internalType": "string",
          "name": "_description",
          "type": "string"
        }
      ],
      "name": "addItemDetails",
      "outputs": [],
      "stateMutability": "nonpayable",
      "type": "function"
    },
    {
      "inputs": [
        {
          "internalType": "string",
          "name": "_qrHash",
          "type": "string"
        }
      ],
      "name": "scanItem",
      "outputs": [
        {
          "internalType": "bool",
          "name": "",
          "type": "bool"
        }
      ],
      "stateMutability": "view",
      "type": "function",
      "constant": true
    },
    {
      "inputs": [
        {
          "internalType": "string",
          "name": "_qrHash",
          "type": "string"
        }
      ],
      "name": "moreDetailsForScannedItem",
      "outputs": [
        {
          "components": [
            {
              "internalType": "string",
              "name": "itemName",
              "type": "string"
            },
            {
              "internalType": "string",
              "name": "description",
              "type": "string"
            }
          ],
          "internalType": "struct QrCode.ItemDetails",
          "name": "",
          "type": "tuple"
        }
      ],
      "stateMutability": "view",
      "type": "function",
      "constant": true
    }
  ],
  "bytecode": "0x6080346200013757600160a060020a03196000913382845416178355602081019060208252600560408201527f61646d696e0000000000000000000000000000000000000000000000000000006060820152606081526080810167ffffffffffffffff92828210848311176200010a5781604052825190209260e0830190828210908211176200010a579160c09186936040523390528360a0820152015233826001541617600155600255604060ff1992836003541660035533815260056020522060018103620000db575b60405161371590816200013d8239f35b600291339082541617815581546001820155019060ff80600354161515918354169116179055388080620000cb565b6024867f4e487b710000000000000000000000000000000000000000000000000000000081526041600452fd5b600080fdfe608080604052600436101561001357600080fd5b7c010000000000000000000000000000000000000000000000000000000060003504908163191bcef614612fd9575080631bef85c014612f0b5780631fb4e3f014612ecc578063292785fc14612d075780632bb9cd921461282c5780635c9e052a146126655780636030775e14612620578063656807951461252f5780636c3a98ae146125115780636f3911bc1461244957806370099ec814612318578063719f29721461145b57806377f40e331461140c5780637a788e0a146113565780638d11d5ff146112c357806396df344614611280578063bb56926714611217578063daa7f64b14610616578063de5df39814610582578063e38483a3146103a5578063f2fde38b14610310578063fb262c30146102b35763fe244c371461013857600080fd5b346102ae5760203660031901126102ae57600160a060020a038061015a6131a0565b16600052600660205260406000209081541660018201610179906132ee565b91610186600282016132ee565b610192600383016132ee565b9161019f600482016132ee565b6101ab600583016132ee565b6101b7600684016132ee565b906101c4600785016132ee565b92600885015460ff1696600986016101db906132ee565b95600a0154966040519a8b9a8b526101a08060208d01528b016101fd916131d9565b8a810360408c015261020e916131d9565b89810360608b015261021f916131d9565b88810360808a0152610230916131d9565b87810360a0890152610241916131d9565b86810360c0880152610252916131d9565b85810360e0870152610263916131d9565b6101009315158486015284810361012086015261027f916131d9565b9160ff82161515610140850152810460ff16151561016084015262010000900460ff1615156101808301520390f35b600080fd5b346102ae5760203660031901126102ae5760043567ffffffffffffffff81116102ae576102fd60206102ea81933690600401613259565b81604051938285809451938492016131b6565b8101600d81520301902054604051908152f35b346102ae5760203660031901126102ae576103296131a0565b600160a060020a03908160005416610342813314613413565b61034d331515613413565b60005260056020526000600260408220828155826001820155015516807fac9a252a3ed2d3fcc198677953ffe98ac492e191a4605978c655f8ce4ae80676600080a2600160a060020a03196000541617600055600080f35b346102ae576020806003193601126102ae5767ffffffffffffffff6004358181116102ae576103d8903690600401613259565b90427f9376d1f5ae2781161467d7ecca7bb235a2f861272b40eca70ea487d3005004d0600080a233600052600a8352604060002042600052835260406000209180519182116104bd57819061042d84546132b0565b601f8111610549575b508490601f83116001146104e1576000926104d6575b5050816002029160080260020a6000190419161790555b600b5490680100000000000000008210156104bd5761048a826001600c9401600b55613602565b60088254910260020a9081600003809242021691191617905542600052526040600020600160ff19825416179055600080f35b60e060020a634e487b7102600052604160045260246000fd5b01519050848061044c565b60008581528681209350601f198516905b878282106105335750509160029391856001969410610518575b50505002019055610463565b01516008601f841602840a600019041916905585808061050c565b60018596829396860151815501950193016104f2565b6105729085600052866000208780601f870104820192818710610578575b601f01040190613487565b85610436565b9192508291610567565b346102ae5760403660031901126102ae5761059b6131a0565b602435600160a060020a03918282168092036102ae57821660005260086020526040600020906000526020526040600020908154166106126105df600184016132ee565b926105ec600282016132ee565b9061060560046105fe600384016132ee565b92016132ee565b91604051958695866133bb565b0390f35b346102ae5760a03660031901126102ae5761062f6131a0565b60243567ffffffffffffffff81116102ae5761064f903690600401613259565b6044803567ffffffffffffffff81116102ae57610670903690600401613259565b606490813567ffffffffffffffff81116102ae57610692903690600401613259565b9160843567ffffffffffffffff81116102ae576106b3903690600401613259565b933360005260066020526106d560ff610100600a60406000200154041661349e565b6106e0331515613512565b600160a060020a038716156111ac5785511561116857825115611124578351156110e05784511561109c5750507f73d87f380e0a7b768520275cc06c6143276be057013aa419a14c7f88e47f915f604051602081528061074360208201886131d9565b0390a16040519360a0850185811067ffffffffffffffff8211176104bd57604052600160a060020a038616855260208501526040840152606083015260808201523360005260086020526040600020600160a060020a038316600052602052604060002091600160a060020a03825116600160a060020a0319845416178355602082015180519067ffffffffffffffff82116104bd5781906107e860018701546132b0565b601f8111611066575b50602090601f8311600114610ff257600092610fe7575b5050816002029160080260020a6000190419161760018401555b604082015180519067ffffffffffffffff82116104bd57819061084860028701546132b0565b601f8111610fb1575b50602090601f8311600114610f3d57600092610f32575b5050816002029160080260020a6000190419161760028401555b606082015180519067ffffffffffffffff82116104bd5781906108a860038701546132b0565b601f8111610efc575b50602090601f8311600114610e8857600092610e7d575b5050816002029160080260020a6000190419161760038401555b608082015192835167ffffffffffffffff81116104bd5761090660048301546132b0565b601f8111610e47575b506020601f8211600114610dcc579080600492600160a060020a039697600092610dc1575b5050816002029160080260020a600019041916179101555b166000526009602052604060002090600160a060020a03815116600160a060020a0319835416178255602081015180519067ffffffffffffffff82116104bd57819061099b60018601546132b0565b601f8111610d8b575b50602090601f8311600114610d1757600092610d0c575b5050816002029160080260020a6000190419161760018301555b604081015180519067ffffffffffffffff82116104bd5781906109fb60028601546132b0565b601f8111610cd6575b50602090601f8311600114610c6257600092610c57575b5050816002029160080260020a6000190419161760028301555b6003820191606082015192835167ffffffffffffffff81116104bd57610a5b82546132b0565b601f8111610c24575b506020601f8211600114610bb3579080600494939260809697600092610ba8575b5050816002029160080260020a6000190419161790555b0191015180519067ffffffffffffffff82116104bd578190610abe84546132b0565b601f8111610b6a575b50602090601f8311600114610b0457600092610af9575b5050816002029160080260020a600019041916179055600080f35b015190508380610ade565b6000858152602081209350601f198516905b818110610b5257509160029391856001969410610b37575b50505002019055005b01516008601f841602840a6000190419169055848080610b2e565b92936020600181928786015181550195019301610b16565b610b98908560005260206000206020601f86010481019160208610610b9e575b601f60209101040190613487565b84610ac7565b9091508190610b8a565b015190508780610a85565b601f198216958360005260206000209660005b818110610c0c5750926080969760019360029383600499989710610bf1575b50505002019055610a9c565b01516008601f841602840a6000190419169055888080610be5565b83830151895560019098019760209384019301610bc6565b610c51908360005260206000206020601f85010481019160208510610b9e57601f60209101040190613487565b85610a64565b015190508480610a1b565b91506002850160005260206000209160005b601f1985168110610cbe5750918391600293600195601f19811610610ca3575b50505002016002830155610a35565b01516008601f841602840a6000190419169055858080610c94565b91926020600181928685015181550194019201610c74565b610d06906002870160005260206000206020601f86010481019160208610610b9e57601f60209101040190613487565b85610a04565b0151905084806109bb565b91506001850160005260206000209160005b601f1985168110610d735750918391600293600195601f19811610610d58575b505050020160018301556109d5565b01516008601f841602840a6000190419169055858080610d49565b91926020600181928685015181550194019201610d29565b610dbb906001870160005260206000206020601f86010481019160208610610b9e57601f60209101040190613487565b856109a4565b015190508780610934565b6004830160005260206000209560005b601f1984168110610e2f575082600160a060020a039697600193600293600496601f19811610610e14575b505050020191015561094c565b01516008601f841602840a6000190419169055888080610e07565b82820151885560019097019660209283019201610ddc565b610e77906004840160005260206000206020601f85010481019160208510610b9e57601f60209101040190613487565b8561090f565b0151905085806108c8565b91506003860160005260206000209160005b601f1985168110610ee45750918391600293600195601f19811610610ec9575b505050020160038401556108e2565b01516008601f841602840a6000190419169055868080610eba565b91926020600181928685015181550194019201610e9a565b610f2c906003880160005260206000206020601f86010481019160208610610b9e57601f60209101040190613487565b866108b1565b015190508580610868565b91506002860160005260206000209160005b601f1985168110610f995750918391600293600195601f19811610610f7e575b50505002016002840155610882565b01516008601f841602840a6000190419169055868080610f6f565b91926020600181928685015181550194019201610f4f565b610fe1906002880160005260206000206020601f86010481019160208610610b9e57601f60209101040190613487565b86610851565b015190508580610808565b91506001860160005260206000209160005b601f198516811061104e5750918391600293600195601f19811610611033575b50505002016001840155610822565b01516008601f841602840a6000190419169055868080611024565b91926020600181928685015181550194019201611004565b611096906001880160005260206000206020601f86010481019160208610610b9e57601f60209101040190613487565b866107f1565b7f50686f6e65206e756d6265722063616e6e6f7420626520656d707479000000006040519160e560020a62461bcd02835260206004840152601c6024840152820152fd5b7f456d61696c20616464726573732063616e6e6f7420626520656d7074790000006040519160e560020a62461bcd02835260206004840152601d6024840152820152fd5b7f4c6f636174696f6e206e616d652063616e6e6f7420626520656d7074790000006040519160e560020a62461bcd02835260206004840152601d6024840152820152fd5b7f52657461696c6572206e616d652063616e6e6f7420626520656d7074790000006040519160e560020a62461bcd02835260206004840152601d6024840152820152fd5b7f64000000000000000000000000000000000000000000000000000000000000006084927f52657461696c6572207075626c69632061646472657373206e6f742076616c696040519360e560020a62461bcd0285526020600486015260216024860152840152820152fd5b346102ae5760403660031901126102ae576112766112336131a0565b600160a060020a036024359116600052600a60205260406000208160005260205261126160406000206132ee565b906040519283926040845260408401906131d9565b9060208301520390f35b346102ae5760203660031901126102ae57600160a060020a03806112a26131a0565b1660005260096020526040600020908154166106126105df600184016132ee565b346102ae5760203660031901126102ae576004357f4140c73226c8ea512653d2920a7fbe10a0c0fe3c5f07aee8be2cad8b2b9a772f6020604051838152a133600052600a6020526040600020816000526020526113236040600020613586565b61132c81613602565b60088254910260020a60000319169055600052600c602052604060002060ff198154169055600080f35b346102ae5760003660031901126102ae5760405180600b5480835260208093018091600b6000527f0175b7a638427703f0dbe7bb9bbf987a2551717b34e79f33b5b1008d1fa01db99060005b868282106113f85786866113b882880383613237565b604051928392818401908285525180915260408401929160005b8281106113e157505050500390f35b8351855286955093810193928101926001016113d2565b8354855290930192600192830192016113a2565b346102ae5760203660031901126102ae5760043567ffffffffffffffff81116102ae5760ff61144560206102ea81943690600401613259565b8101600e81520301902054166040519015158152f35b346102ae576101403660031901126102ae576114756131a0565b60243567ffffffffffffffff81116102ae57611495903690600401613259565b60443567ffffffffffffffff81116102ae576114b5903690600401613259565b60643567ffffffffffffffff81116102ae576114d5903690600401613259565b60843567ffffffffffffffff81116102ae576114f5903690600401613259565b60a43567ffffffffffffffff81116102ae57611515903690600401613259565b60c43567ffffffffffffffff81116102ae57611535903690600401613259565b9160e43567ffffffffffffffff81116102ae57611556903690600401613259565b93610104359586151587036102ae576101243567ffffffffffffffff81116102ae57611586903690600401613259565b97600160a060020a036000541633146122ab57600160a060020a038a161561226457600160a060020a038a16600052600660205260ff610100600a604060002001540416156121f75780511561218b57815115612144578251156120fd578351156120b65784511561206f5785511561202857865115611fe157885115611f9a57600160a060020a036040519a337f561138658ca49a8540dc70dcfe64c9026c1c5b9344642242dd6562970f9c1278600080a26116428c6131fe565b168a5260208a015260408901526060880152608087015260a086015260c085015260e08401521515610100830152610120820152600061014082015260016101608201526000610180820152336000526006602052604060002090600160a060020a03815116600160a060020a0319835416178255602081015180519067ffffffffffffffff82116104bd5781906116dd60018601546132b0565b601f8111611f64575b50602090601f8311600114611ef057600092611ee5575b5050816002029160080260020a6000190419161760018301555b604081015180519067ffffffffffffffff82116104bd57819061173d60028601546132b0565b601f8111611eaf575b50602090601f8311600114611e3b57600092611e30575b5050816002029160080260020a6000190419161760028301555b606081015180519067ffffffffffffffff82116104bd57819061179d60038601546132b0565b601f8111611dfa575b50602090601f8311600114611d8657600092611d7b575b5050816002029160080260020a6000190419161760038301555b608081015180519067ffffffffffffffff82116104bd5781906117fd60048601546132b0565b601f8111611d45575b50602090601f8311600114611cd157600092611cc6575b5050816002029160080260020a6000190419161760048301555b60a0810151805167ffffffffffffffff81116104bd5780600585019261185d84546132b0565b601f8111611c93575b50602090601f8311600114611c2a57600092611c1f575b5050816002029160080260020a6000190419161790555b60c0810151805167ffffffffffffffff81116104bd578060068501926118ba84546132b0565b601f8111611bec575b50602090601f8311600114611b8357600092611b78575b5050816002029160080260020a6000190419161790555b60e0810151805167ffffffffffffffff81116104bd5780600785019261191784546132b0565b601f8111611b45575b50602090601f8311600114611adc57600092611ad1575b5050816002029160080260020a6000190419161790555b61196e6101008201511515600884019060ff801983541691151516179055565b600982019161012082015192835167ffffffffffffffff81116104bd5761199582546132b0565b601f8111611a9e575b506020601f8211600114611a31578190600a9596600092611a26575b5050816002029160080260020a6000190419161790555b01906119f06101408201511515839060ff801983541691151516179055565b61016081015115159061ff0061010062ff0000620100006101808754950151151502169302169062ffff00191617179055600080f35b0151905086806119ba565b601f198216958360005260206000209660005b818110611a865750966002928492600195600a999a10611a6b575b505050020190556119d1565b01516008601f841602840a6000190419169055878080611a5f565b83830151895560019098019760209384019301611a44565b611acb908360005260206000206020601f85010481019160208510610b9e57601f60209101040190613487565b8561199e565b015190508580611937565b6000858152602081209350601f198516905b818110611b2d57509160029391856001969410611b12575b5050500201905561194e565b01516008601f841602840a6000190419169055868080611b06565b92936020600181928786015181550195019301611aee565b611b72908560005260206000206020601f86010481019160208610610b9e57601f60209101040190613487565b86611920565b0151905085806118da565b6000858152602081209350601f198516905b818110611bd457509160029391856001969410611bb9575b505050020190556118f1565b01516008601f841602840a6000190419169055868080611bad565b92936020600181928786015181550195019301611b95565b611c19908560005260206000206020601f86010481019160208610610b9e57601f60209101040190613487565b866118c3565b01519050858061187d565b6000858152602081209350601f198516905b818110611c7b57509160029391856001969410611c60575b50505002019055611894565b01516008601f841602840a6000190419169055868080611c54565b92936020600181928786015181550195019301611c3c565b611cc0908560005260206000206020601f86010481019160208610610b9e57601f60209101040190613487565b86611866565b01519050848061181d565b91506004850160005260206000209160005b601f1985168110611d2d5750918391600293600195601f19811610611d12575b50505002016004830155611837565b01516008601f841602840a6000190419169055858080611d03565b91926020600181928685015181550194019201611ce3565b611d75906004870160005260206000206020601f86010481019160208610610b9e57601f60209101040190613487565b85611806565b0151905084806117bd565b91506003850160005260206000209160005b601f1985168110611de25750918391600293600195601f19811610611dc7575b505050020160038301556117d7565b01516008601f841602840a6000190419169055858080611db8565b91926020600181928685015181550194019201611d98565b611e2a906003870160005260206000206020601f86010481019160208610610b9e57601f60209101040190613487565b856117a6565b01519050848061175d565b91506002850160005260206000209160005b601f1985168110611e975750918391600293600195601f19811610611e7c575b50505002016002830155611777565b01516008601f841602840a6000190419169055858080611e6d565b91926020600181928685015181550194019201611e4d565b611edf906002870160005260206000206020601f86010481019160208610610b9e57601f60209101040190613487565b85611746565b0151905084806116fd565b91506001850160005260206000209160005b601f1985168110611f4c5750918391600293600195601f19811610611f31575b50505002016001830155611717565b01516008601f841602840a6000190419169055858080611f22565b91926020600181928685015181550194019201611f02565b611f94906001870160005260206000206020601f86010481019160208610610b9e57601f60209101040190613487565b856116e6565b606460405160e560020a62461bcd02815260206004820152601b60248201527f50617373776f72642073686f756c646e277420626520656d70747900000000006044820152fd5b606460405160e560020a62461bcd02815260206004820152601860248201527f53746174652073686f756c646e277420626520656d70747900000000000000006044820152fd5b606460405160e560020a62461bcd02815260206004820152601960248201527f526567696f6e2073686f756c646e277420626520656d707479000000000000006044820152fd5b606460405160e560020a62461bcd02815260206004820152601a60248201527f436f756e7472792073686f756c646e277420626520656d7074790000000000006044820152fd5b606460405160e560020a62461bcd02815260206004820152601e60248201527f4c6963656e7365205572692073686f756c646e277420626520656d70747900006044820152fd5b606460405160e560020a62461bcd02815260206004820152601860248201527f4272616e642073686f756c646e277420626520656d70747900000000000000006044820152fd5b606460405160e560020a62461bcd02815260206004820152602060248201527f456d61696c20616464726573732073686f756c646e277420626520656d7074796044820152fd5b608460405160e560020a62461bcd028152602060048201526024808201527f4d616e756661637475726572206e616d652073686f756c646e2774206265206560448201527f6d707479000000000000000000000000000000000000000000000000000000006064820152fd5b608460405160e560020a62461bcd02815260206004820152602260248201527f4d616e75666163747572657220697320616c726561647920726567697374657260448201527f65640000000000000000000000000000000000000000000000000000000000006064820152fd5b606460405160e560020a62461bcd02815260206004820152601160248201527f41646472657373206e6f742076616c69640000000000000000000000000000006044820152fd5b608460405160e560020a62461bcd02815260206004820152602160248201527f416464726573732073686f756c646e27742062652073797374656d206f776e6560448201527f72000000000000000000000000000000000000000000000000000000000000006064820152fd5b346102ae576020806003193601126102ae576123326131a0565b90336000526006815261235360ff610100600a60406000200154041661349e565b61235e331515613512565b3360005260088152604060002091600160a060020a03809116928360005282528281604060002054160361240257826009937fdb7176e79cffef81cb01767dd0447a0b24bb72ca9778d4b245581086b2a7e6db600080a2336000526008835260406000208160005283526123d560406000206135ce565b33600052600883526040600020906000528252604060002054166000525261240060406000206135ce565b005b6064826040519060e560020a62461bcd0282526004820152601260248201527f52657461696c6572206e6f7420666f756e6400000000000000000000000000006044820152fd5b346102ae5760003660031901126102ae57604051806007548083526020809301809160076000527fa66cc928b5edb82af9bd49922954155ab7b0942694bea4ce44661d9a8736c6889060005b868282106124f45786866124ab82880383613237565b604051928392818401908285525180915260408401929160005b8281106124d457505050500390f35b8351600160a060020a0316855286955093810193928101926001016124c5565b8354600160a060020a031685529093019260019283019201612495565b346102ae5760003660031901126102ae576020600454604051908152f35b346102ae576020806003193601126102ae57612557600160a060020a03600054163314613413565b612562331515613413565b336000526005815260016040600020015460405182810190600435825283815261258b8161321b565b519020036125b35760059033600052526002604060002001600160ff19825416179055600080f35b6084906040519060e560020a62461bcd0282526004820152602360248201527f496e76616c69642070617373776f7264206f66206163636f756e74206164647260448201527f65737300000000000000000000000000000000000000000000000000000000006064820152fd5b346102ae5760203660031901126102ae5760043567ffffffffffffffff81116102ae5761265b6126566020923690600401613259565b613652565b6040519015158152f35b346102ae5760403660031901126102ae5761267e6131a0565b60243567ffffffffffffffff81116102ae576126a6600160a060020a03913690600401613259565b9116908160005260209060068252600160ff610100600a6040600020015404161515036127e5578260005260068252600160ff600a60406000200154161515036127785761270b90836000526006835261270660096040600020016132ee565b61368a565b156127315760009182526006905260409020600a01805462ff0000191662010000179055005b6064906040519060e560020a62461bcd0282526004820152601b60248201527f496e76616c69642061646472657373206f722070617373776f726400000000006044820152fd5b6084826040519060e560020a62461bcd0282526004820152602660248201527f596f7572206e6f74207665726966696564206173206d616e756661637475726560448201527f72207965742100000000000000000000000000000000000000000000000000006064820152fd5b6064826040519060e560020a62461bcd0282526004820152601860248201527f596f7572206e6f742072656769737465726564207965742100000000000000006044820152fd5b346102ae5760803660031901126102ae5767ffffffffffffffff6004358181116102ae5761285e903690600401613259565b6024918235916044358281116102ae5761287c903690600401613259565b906064358381116102ae57612895903690600401613259565b9333600052602090600a825260406000208160005282526128bd8361270660406000206132ee565b15612cc15780600052600c82526001928360ff60406000205416151503612c7b57845115612c3557865115612bef57826129a691837f63bcdba1660b19ba3aaaf6afe05409cc2811b84ad557ca33f7eda874ac3a89b0604051827f611520fe479942fc842c72a2974cc0bf4746653a8b34285ba197c7192fd4721d600080a2806129488d8c83613393565b0390a260405190847f2c43e921afd657149a59b6382398172493954880204131eb2a51b28468908389600080a28481519284818185019561298a8183896131b6565b8101600d815203019020556040519384928392519283916131b6565b8101600e8152030190208360ff19825416179055604051936129c78561321b565b8452818401958652600052600f81526040600020925192835190858211612bd75783916129f482546132b0565b95601f96878111612bab575b508490878311600114612b43576000919083612b38575b5050816002029160080260020a6000190419161781555b019451958651948511612b215750612a4685546132b0565b838111612aeb575b508092808511600114612a8357505050819293600092610af9575050816002029160080260020a600019041916179055600080f35b90919392601f198416968660005283600020936000905b898210612ad457505084600296979810612ab9575b5050505002019055005b0151908316600802840a600019041916905584808080612aaf565b808885978294968601518155019601930190612a9a565b612b12908660005282600020838681818a0104830193828a10612b18575b01040190613487565b86612a4e565b93508293612b09565b60e060020a634e487b710260005260416004526000fd5b015190508a80612a17565b90601f1983169184600052866000209260005b88828210612b9557505091600293918588969410612b7b575b50505002018155612a2e565b01516008838b1602840a60001904191690558b8080612b6f565b8385015186558a98909501949384019301612b56565b612bd1908460005286600020878a8181880104830193828810612b185701040190613487565b8a612a00565b8760e060020a634e487b710260005260416004526000fd5b606483601b8a6040519260e560020a62461bcd02845260048401528201527f4465736372697074696f6e2063616e6e6f7420626520656d70747900000000006044820152fd5b60648360198a6040519260e560020a62461bcd02845260048401528201527f4974656d206e616d652063616e6e6f7420626520656d707479000000000000006044820152fd5b606483600f8a6040519260e560020a62461bcd02845260048401528201527f49442069736e27742073746f72656400000000000000000000000000000000006044820152fd5b6064826011896040519260e560020a62461bcd02845260048401528201527f486173682069736e27742073746f7265640000000000000000000000000000006044820152fd5b346102ae5760403660031901126102ae57602435612d31600160a060020a03600054163314613413565b612d3c331515613413565b33600052602060058152600160406000200154604051828101906004358252838152612d678161321b565b51902003612e8557336000526005815260016040600020015460405182810190848252838152612d968161321b565b51902014612e3e573360005260058152600160ff60026040600020015416151503612df757600590337f85a52c4d6d605a61db8affa2383ae4d5aeefe6f4363c35174504042b4a0ee9b6600080a23360005252600160406000200155600080f35b6064906040519060e560020a62461bcd0282526004820152600d60248201527f4e6f74206c6f6767656420696e000000000000000000000000000000000000006044820152fd5b6064906040519060e560020a62461bcd0282526004820152601460248201527f496e76616c6964206e65772070617373776f72640000000000000000000000006044820152fd5b6064906040519060e560020a62461bcd0282526004820152601460248201527f496e76616c6964206f6c642070617373776f72640000000000000000000000006044820152fd5b346102ae5760203660031901126102ae57600435600052600f6020526040600020612efb60016105fe836132ee565b9061061260405192839283613393565b346102ae576020806003193601126102ae576004359067ffffffffffffffff82116102ae57612f6981612f446040943690600401613259565b6060828651612f528161321b565b8281520152818551938285809451938492016131b6565b8101600d81520301902054600052600f81526106128260002091612fc6612fa86001865195612f978761321b565b612fa0816132ee565b8752016132ee565b918085019283528551958695828752519186015260608501906131d9565b9051838203601f190160408501526131d9565b346102ae5760203660031901126102ae57600160a060020a0380612ffb6131a0565b1660005260066020526040600020613012836131fe565b805482168352613024600182016132ee565b6020840190815291613038600283016132ee565b604085019081529261304c600384016132ee565b6060860190815261305f600485016132ee565b60808701908152613072600586016132ee565b60a08801908152613085600687016132ee565b60c0890190815290613099600788016132ee565b9260e08a01938452600888015460ff169461010098898c019615158752600981016130c3906132ee565b6101208d0152600a01549760ff891615159b8c996101409d8e8301528b810460ff16151561016083015262010000900460ff1615156101808201525116995196519051915192519351945195511515966040519b8c9b8c528060208d01528b0161312c916131d9565b8a810360408c015261313d916131d9565b89810360608b015261314e916131d9565b88810360808a015261315f916131d9565b87810360a0890152613170916131d9565b86810360c0880152613181916131d9565b85810360e0870152613192916131d9565b928401526101208301520390f35b60043590600160a060020a03821682036102ae57565b60005b8381106131c95750506000910152565b81810151838201526020016131b9565b906020916131f2815180928185528580860191016131b6565b601f01601f1916010190565b6101a0810190811067ffffffffffffffff8211176104bd57604052565b6040810190811067ffffffffffffffff8211176104bd57604052565b90601f8019910116810190811067ffffffffffffffff8211176104bd57604052565b81601f820112156102ae5780359067ffffffffffffffff82116104bd576040519261328e601f8401601f191660200185613237565b828452602083830101116102ae57816000926020809301838601378301015290565b90600160028304921680156132e4575b60208310146132cb57565b60e060020a634e487b7102600052602260045260246000fd5b91607f16916132c0565b9060405191826000825492613302846132b0565b908184526001948581169081600014613371575060011461332e575b505061332c92500383613237565b565b9093915060005260209081600020936000915b81831061335957505061332c9350820101388061331e565b85548884018501529485019487945091830191613341565b91505061332c94506020925060ff19168284015215158102820101388061331e565b90916133aa6133b8936040845260408401906131d9565b9160208184039101526131d9565b90565b93906133b895936133e961340594600160a060020a036133f79416885260a0602089015260a08801906131d9565b9086820360408801526131d9565b9084820360608601526131d9565b9160808184039101526131d9565b1561341a57565b608460405160e560020a62461bcd02815260206004820152602960248201527f4f6e6c792073797374656d206f776e65722063616e20706572666f726d20746860448201527f697320616374696f6e00000000000000000000000000000000000000000000006064820152fd5b818110613492575050565b60008155600101613487565b156134a557565b608460405160e560020a62461bcd02815260206004820152602a60248201527f4f6e6c79206d616e7566616374757265722063616e206164642072657461696c60448201527f65722064657461696c73000000000000000000000000000000000000000000006064820152fd5b1561351957565b608460405160e560020a62461bcd02815260206004820152602960248201527f4f6e6c79206d616e7566616374757265722063616e20706572666f726d20746860448201527f697320616374696f6e00000000000000000000000000000000000000000000006064820152fd5b61359081546132b0565b908161359a575050565b81601f600093116001146135ac575055565b9080839182526135ca6020601f818520950104840160018501613487565b5555565b600461332c91600081556135e460018201613586565b6135f060028201613586565b6135fc60038201613586565b01613586565b600b5481101561363957600b6000527f0175b7a638427703f0dbe7bb9bbf987a2551717b34e79f33b5b1008d1fa01db90190600090565b60e060020a634e487b7102600052603260045260246000fd5b61366d602060ff9281604051938285809451938492016131b6565b8101600e815203019020541660001461368557600190565b600090565b90604051916020926136b88482816136ab81830196878151938492016131b6565b8101038084520182613237565b519020916136d86040519182816136ab81830196878151938492016131b6565b519020149056fea2646970667358221220e828b29e8f74ed0542693429e2085f02b998d8ae9ee477bc625f5b072b7425e964736f6c63430008130033",
  "immutableReferences": {},
  "source": "// SPDX-License-Identifier: MIT\npragma solidity ^0.8.19;\n\ncontract QrCode {\n    event ManufacturerAdded(address indexed manufacturer);\n    event RetailerAdded(string retailer);\n    event RetailerRemoved(address indexed retailerAddress);\n\n    event PasswordChanged(address indexed admin);\n    event ownershipTransferred(address indexed newAdmin);\n\n    event ItemAdded_M(uint256 indexed id);\n    event ItemDetailsUpdated_M(\n        uint256 indexed id,\n        string itemName,\n        string description\n    );\n    event ItemRecorded_M(uint256 indexed id);\n\n    event qrHashStored(uint indexed timestamp);\n    event qrHashDeleted(uint256 _blockId);\n\n    struct Manufacturer {\n        address manPublicAddress;\n        string fullName;\n        string email;\n        string brand;\n        string licenseUri;\n        string country;\n        string region;\n        string state;\n        bool agreement;\n        string password;\n        bool isVerified;\n        bool isRegistered;\n        bool isLogin;\n    }\n\n    struct Retailer {\n        address publicAddress;\n        string name;\n        string location;\n        string email;\n        string password;\n    }\n\n    struct ItemDetails {\n        string itemName;\n        string description;\n    }\n\n    //@dev create system account structure\n    struct SystemOwner {\n        address sysOwner;\n        bytes32 password; /*audit*/\n        bool isLogin;\n    }\n\n    address private owner;\n    SystemOwner private sysowner;\n\n    uint256 public s_retailerID;\n\n    mapping(address => SystemOwner) private sysOwnerMap;\n\n    mapping(address => Manufacturer) public manufacturerDetails;\n    address[] private manufactureAddressArray; // manufacturer address array\n\n    mapping(address => mapping(address => Retailer)) public manufacturerToRetailerDetails;\n    mapping(address => Retailer) public retailerDetails;\n\n    //STORING\n    mapping(address => mapping(uint256 => string)) private qrHashMapByManufacturer; // stored by manufacturer when generating hash + id\n\n    uint256[] private manufacturerIDHashArr; //scanned by only manufacturer\n    mapping(uint => bool) private storedIDs; //just stored\n\n    //MATCHING\n    mapping(string => uint256) public matchHashToId; //used by users when scanning\n\n    mapping(string => bool) public matchedItems; //matched hash to items\n\n    mapping(uint256 => ItemDetails) public itemDetails;\n\n    constructor() {\n        owner = msg.sender;\n        sysowner = SystemOwner(owner, keccak256(abi.encode((\"admin\"))), false);\n        sysOwnerMap[owner] = sysowner;\n    }\n\n    modifier onlySysOwner() {\n        require(\n            msg.sender == owner,\n            \"Only system owner can perform this action\"\n        );\n        require(\n            msg.sender != address(0),\n            \"Only system owner can perform this action\"\n        );\n        _;\n    }\n\n    modifier onlyManufacturer() {\n        require(\n            manufacturerDetails[msg.sender].isRegistered,\n            \"Only manufacturer can add retailer details\"\n        );\n        require(\n            msg.sender != address(0),\n            \"Only manufacturer can perform this action\"\n        );\n        _;\n    }\n\n    /*@dev System Owner functions*/\n    function loginSysOwner(\n        bytes32 _password\n    ) external onlySysOwner {\n        require(\n            sysOwnerMap[msg.sender].password ==\n                keccak256(abi.encode(_password)),\n            \"Invalid password of account address\"\n        );\n        sysOwnerMap[msg.sender].isLogin = true;\n    }\n\n    function changePassword(\n        bytes32 oldPassword,\n        bytes32 _newPassword\n    ) external onlySysOwner {\n        require(\n            sysOwnerMap[msg.sender].password ==\n                keccak256(abi.encode(oldPassword)),\n            \"Invalid old password\"\n        );\n        require(_newPassword.length > 0, \"Password should not be empty\");\n        require(\n            sysOwnerMap[msg.sender].password !=\n                keccak256(abi.encode(_newPassword)),\n            \"Invalid new password\"\n        );\n        require(sysOwnerMap[msg.sender].isLogin == true, \"Not logged in\");\n\n        emit PasswordChanged(msg.sender);\n        sysOwnerMap[msg.sender].password = _newPassword;\n    }\n\n    function transferOwnership(address _address) external onlySysOwner {\n        delete sysOwnerMap[owner];\n        emit ownershipTransferred(_address);\n        owner = _address;\n        sysOwnerMap[owner];\n    }\n\n    /**@dev Manufacturer functions*/\n    function signUpManufacturer(\n        address _manPublicAddress,\n        string memory _fullName,\n        string memory _email,\n        string memory _brand,\n        string memory _licenseUri,\n        string memory _country,\n        string memory _region,\n        string memory _state,\n        bool _agreement,\n        string memory _password\n    ) external {\n        require(msg.sender != owner, \"Address shouldn't be system owner\");\n        require(_manPublicAddress != address(0), \"Address not valid\");\n        require(\n            manufacturerDetails[_manPublicAddress].isRegistered,\n            \"Manufacturer is already registered\"\n        );\n        require(bytes(_fullName).length > 0,\"Manufacturer name shouldn't be empty\");\n        require(bytes(_email).length > 0, \"Email address shouldn't be empty\");\n        require(bytes(_brand).length > 0, \"Brand shouldn't be empty\");\n        require(bytes(_licenseUri).length > 0, \"License Uri shouldn't be empty\");\n        require(bytes(_country).length > 0, \"Country shouldn't be empty\");\n        require(bytes(_region).length > 0, \"Region shouldn't be empty\");\n        require(bytes(_state).length > 0, \"State shouldn't be empty\");\n        require(bytes(_password).length > 0, \"Password shouldn't be empty\");\n\n        emit ManufacturerAdded(msg.sender);\n        manufacturerDetails[msg.sender] = Manufacturer(\n            _manPublicAddress,\n            _fullName,\n            _email,\n            _brand,\n            _licenseUri,\n            _country,\n            _region,\n            _state,\n            _agreement,\n            _password,\n            false,\n            true,\n            false\n        );\n    }\n\n    function  manufacturerLogin(address _MNPublicAddress, string memory _password) public {\n        require(manufacturerDetails[_MNPublicAddress].isRegistered == true, \"Your not registered yet!\");\n        require(manufacturerDetails[_MNPublicAddress].isVerified == true, \"Your not verified as manufacturer yet!\");\n        // require(manufacturerDetails[_MNPublicAddress].isLogin == false, \"Your Already login\");\n        require(compareStrings(manufacturerDetails[_MNPublicAddress].password, _password), \"Invalid address or password\");\n\n        manufacturerDetails[_MNPublicAddress].isLogin = true;\n    }\n\n    function addRetailer(\n        address _publicAddress,\n        string memory _name,\n        string memory _location,\n        string memory _email,\n        string memory _password\n    ) external onlyManufacturer {\n        require(_publicAddress != address(0), \"Retailer public address not valid\");\n        require(bytes(_name).length > 0, \"Retailer name cannot be empty\");\n        require(bytes(_location).length > 0, \"Location name cannot be empty\");\n        require(bytes(_email).length > 0, \"Email address cannot be empty\");\n        require(bytes(_password).length > 0, \"Phone number cannot be empty\");\n\n        emit RetailerAdded(_name);\n        Retailer memory retailer = Retailer(\n            _publicAddress,\n            _name,\n            _location,\n            _email,\n            _password\n        );\n        manufacturerToRetailerDetails[msg.sender][_publicAddress] = retailer;\n        retailerDetails[_publicAddress] = retailer;\n    }\n\n    function removeRetailer(address _retailerAddress) external onlyManufacturer {\n        require(\n            manufacturerToRetailerDetails[msg.sender][_retailerAddress].publicAddress ==\n                _retailerAddress,\n            \"Retailer not found\"\n        );\n        emit RetailerRemoved(_retailerAddress);\n        delete manufacturerToRetailerDetails[msg.sender][_retailerAddress];\n        delete retailerDetails[manufacturerToRetailerDetails[msg.sender][_retailerAddress].publicAddress];\n    }\n\n    function storeQrHash(string memory _qrHash) external {\n        // onlyManufacturer\n        uint256 timestamp = block.timestamp;\n        emit qrHashStored(timestamp);\n\n        qrHashMapByManufacturer[msg.sender][timestamp] = _qrHash;\n        manufacturerIDHashArr.push(timestamp);\n        storedIDs[timestamp] = true;\n    }\n\n    function deleteQrHash(uint _blockId) external {\n        // onlyManufacturer\n        emit qrHashDeleted(_blockId);\n        delete qrHashMapByManufacturer[msg.sender][_blockId];\n        delete manufacturerIDHashArr[_blockId];\n        delete storedIDs[_blockId];\n    }\n\n    /// @dev returns manufacturer address array to the frontend\n    function getManufacturerArray()\n        external\n        view\n        returns (address[] memory)\n    {\n        //onlyManufacturer\n        \n        return manufactureAddressArray;\n    }\n\n    function getManufacturer(address _manPublicAddress)\n        public\n        view\n        returns (\n            address manPublicAddress,\n            string memory email,\n            string memory fullName,\n            string memory brand,\n            string memory licenseUri,\n            string memory country,\n            string memory region,\n            string memory state,\n            bool agreement,\n            bool isVerified \n        )       \n    {\n        //onlyManufacturer\n        \n        Manufacturer memory manufacturer = manufacturerDetails[_manPublicAddress];\n        manPublicAddress = manufacturer.manPublicAddress;\n        email = manufacturer.email;\n        fullName = manufacturer.fullName;\n        brand = manufacturer.brand;\n        licenseUri = manufacturer.licenseUri;\n        country = manufacturer.country;\n        region = manufacturer.region;\n        state = manufacturer.state;\n        agreement = manufacturer.agreement;\n        isVerified = manufacturer.isVerified;\n\n    }\n\n    /// @dev returns qrcodeHash array to the manufacturer frontend\n    function getManfItemIDList()\n        external\n        view\n        returns (uint256[] memory)\n    {\n        //onlyManufacturer\n        \n        return manufacturerIDHashArr;\n    }\n\n    /// @dev !! views qrcodeHash and ID one by one. Used when manf wants to match stored ids & hashes to every item\n    function getQrHashAndID(address _manPublicAddress, uint256 _blockId)\n        public\n        view\n        returns (string memory qrHash, uint256 blockId)\n    {\n        //onlyManufacturer\n        \n        qrHash = qrHashMapByManufacturer[_manPublicAddress][_blockId];\n        blockId = _blockId;\n\n    }\n\n    /*@dev matches the stored hashes to each item & returns a bool for evidence */\n    function addItemDetails(\n        string memory _qrHash,\n        uint256 _blockId,\n        string memory _itemName,\n        string memory _description\n    ) external {\n        //onlyManufacturer\n        require(compareStrings(qrHashMapByManufacturer[msg.sender][_blockId],_qrHash),\"Hash isn't stored\");\n        require(storedIDs[_blockId] == true, \"ID isn't stored\");\n        require(bytes(_itemName).length > 0, \"Item name cannot be empty\");\n        require(bytes(_description).length > 0, \"Description cannot be empty\");\n\n        emit ItemAdded_M(_blockId);\n        emit ItemDetailsUpdated_M(_blockId, _itemName, _description);\n        emit ItemRecorded_M(_blockId);\n\n        matchHashToId[_qrHash] = _blockId; //update by matching\n        matchedItems[_qrHash] = true;\n\n        itemDetails[_blockId] = ItemDetails(_itemName, _description);\n    }\n\n    function scanItem(string memory _qrHash) external view returns (bool) {\n        if (matchedItems[_qrHash]) {\n            return true;\n        } else {\n            return false;\n        }\n    }\n\n    function moreDetailsForScannedItem(\n        string memory _qrHash\n    ) external view returns (ItemDetails memory) {\n        uint id = matchHashToId[_qrHash];\n        return itemDetails[id];\n    }\n\n    // Cannot directly compare strings in Solidity\n    // This function hashes the 2 strings and then compares the 2 hashes\n    function compareStrings(\n        string memory a,\n        string memory b\n    ) internal pure returns (bool) {\n        return keccak256(abi.encodePacked(a)) == keccak256(abi.encodePacked(b));\n    }\n}",
  "sourcePath": "/home/temba/fake product identification blockchain-based System/contracts/QrCode.sol",
  "compiler": {
    "name": "solc",
    "version": "0.8.19+commit.7dd6d404.Emscripten.clang"
  },
  "schemaVersion": "3.4.16",
  "updatedAt": "2024-03-24T01:36:42.164Z",
  "networkType": "ethereum",
  "devdoc": {
    "kind": "dev",
    "methods": {
      "getManfItemIDList()": {
        "details": "returns qrcodeHash array to the manufacturer frontend"
      },
      "getManufacturerArray()": {
        "details": "returns manufacturer address array to the frontend"
      },
      "getQrHashAndID(address,uint256)": {
        "details": "!! views qrcodeHash and ID one by one. Used when manf wants to match stored ids & hashes to every item"
      },
      "signUpManufacturer(address,string,string,string,string,string,string,string,bool,string)": {
        "details": "Manufacturer functions"
      }
    },
    "version": 1
  },
  "userdoc": {
    "kind": "user",
    "methods": {},
    "version": 1
  }
}