{
  "contractName": "QrCode",
  "abi": [
    {
      "inputs": [],
      "stateMutability": "nonpayable",
      "type": "constructor"
    },
    {
      "anonymous": false,
      "inputs": [
        {
          "indexed": true,
          "internalType": "uint256",
          "name": "id",
          "type": "uint256"
        }
      ],
      "name": "ItemAdded_M",
      "type": "event"
    },
    {
      "anonymous": false,
      "inputs": [
        {
          "indexed": true,
          "internalType": "uint256",
          "name": "id",
          "type": "uint256"
        },
        {
          "indexed": false,
          "internalType": "string",
          "name": "itemName",
          "type": "string"
        },
        {
          "indexed": false,
          "internalType": "string",
          "name": "description",
          "type": "string"
        }
      ],
      "name": "ItemDetailsUpdated_M",
      "type": "event"
    },
    {
      "anonymous": false,
      "inputs": [
        {
          "indexed": true,
          "internalType": "uint256",
          "name": "id",
          "type": "uint256"
        }
      ],
      "name": "ItemRecorded_M",
      "type": "event"
    },
    {
      "anonymous": false,
      "inputs": [
        {
          "indexed": true,
          "internalType": "address",
          "name": "manufacturer",
          "type": "address"
        }
      ],
      "name": "ManufacturerAdded",
      "type": "event"
    },
    {
      "anonymous": false,
      "inputs": [
        {
          "indexed": true,
          "internalType": "address",
          "name": "admin",
          "type": "address"
        }
      ],
      "name": "PasswordChanged",
      "type": "event"
    },
    {
      "anonymous": false,
      "inputs": [
        {
          "indexed": false,
          "internalType": "string",
          "name": "retailer",
          "type": "string"
        }
      ],
      "name": "RetailerAdded",
      "type": "event"
    },
    {
      "anonymous": false,
      "inputs": [
        {
          "indexed": true,
          "internalType": "address",
          "name": "retailerAddress",
          "type": "address"
        }
      ],
      "name": "RetailerRemoved",
      "type": "event"
    },
    {
      "anonymous": false,
      "inputs": [
        {
          "indexed": true,
          "internalType": "address",
          "name": "newAdmin",
          "type": "address"
        }
      ],
      "name": "ownershipTransferred",
      "type": "event"
    },
    {
      "anonymous": false,
      "inputs": [
        {
          "indexed": false,
          "internalType": "uint256",
          "name": "_blockId",
          "type": "uint256"
        }
      ],
      "name": "qrHashDeleted",
      "type": "event"
    },
    {
      "anonymous": false,
      "inputs": [
        {
          "indexed": true,
          "internalType": "uint256",
          "name": "timestamp",
          "type": "uint256"
        }
      ],
      "name": "qrHashStored",
      "type": "event"
    },
    {
      "inputs": [
        {
          "internalType": "uint256",
          "name": "",
          "type": "uint256"
        }
      ],
      "name": "itemDetails",
      "outputs": [
        {
          "internalType": "string",
          "name": "itemName",
          "type": "string"
        },
        {
          "internalType": "string",
          "name": "description",
          "type": "string"
        }
      ],
      "stateMutability": "view",
      "type": "function",
      "constant": true
    },
    {
      "inputs": [
        {
          "internalType": "address",
          "name": "",
          "type": "address"
        }
      ],
      "name": "manufacturerDetails",
      "outputs": [
        {
          "internalType": "address",
          "name": "manPublicAddress",
          "type": "address"
        },
        {
          "internalType": "string",
          "name": "fullName",
          "type": "string"
        },
        {
          "internalType": "string",
          "name": "email",
          "type": "string"
        },
        {
          "internalType": "string",
          "name": "brand",
          "type": "string"
        },
        {
          "internalType": "string",
          "name": "licenseUri",
          "type": "string"
        },
        {
          "internalType": "string",
          "name": "country",
          "type": "string"
        },
        {
          "internalType": "string",
          "name": "region",
          "type": "string"
        },
        {
          "internalType": "string",
          "name": "state",
          "type": "string"
        },
        {
          "internalType": "bool",
          "name": "agreement",
          "type": "bool"
        },
        {
          "internalType": "string",
          "name": "password",
          "type": "string"
        },
        {
          "internalType": "bool",
          "name": "isVerified",
          "type": "bool"
        },
        {
          "internalType": "bool",
          "name": "isRegistered",
          "type": "bool"
        },
        {
          "internalType": "bool",
          "name": "isLogin",
          "type": "bool"
        }
      ],
      "stateMutability": "view",
      "type": "function",
      "constant": true
    },
    {
      "inputs": [
        {
          "internalType": "address",
          "name": "",
          "type": "address"
        },
        {
          "internalType": "address",
          "name": "",
          "type": "address"
        }
      ],
      "name": "manufacturerToRetailerDetails",
      "outputs": [
        {
          "internalType": "address",
          "name": "publicAddress",
          "type": "address"
        },
        {
          "internalType": "string",
          "name": "name",
          "type": "string"
        },
        {
          "internalType": "string",
          "name": "location",
          "type": "string"
        },
        {
          "internalType": "string",
          "name": "email",
          "type": "string"
        },
        {
          "internalType": "string",
          "name": "password",
          "type": "string"
        }
      ],
      "stateMutability": "view",
      "type": "function",
      "constant": true
    },
    {
      "inputs": [
        {
          "internalType": "string",
          "name": "",
          "type": "string"
        }
      ],
      "name": "matchHashToId",
      "outputs": [
        {
          "internalType": "uint256",
          "name": "",
          "type": "uint256"
        }
      ],
      "stateMutability": "view",
      "type": "function",
      "constant": true
    },
    {
      "inputs": [
        {
          "internalType": "string",
          "name": "",
          "type": "string"
        }
      ],
      "name": "matchedItems",
      "outputs": [
        {
          "internalType": "bool",
          "name": "",
          "type": "bool"
        }
      ],
      "stateMutability": "view",
      "type": "function",
      "constant": true
    },
    {
      "inputs": [
        {
          "internalType": "address",
          "name": "",
          "type": "address"
        }
      ],
      "name": "retailerDetails",
      "outputs": [
        {
          "internalType": "address",
          "name": "publicAddress",
          "type": "address"
        },
        {
          "internalType": "string",
          "name": "name",
          "type": "string"
        },
        {
          "internalType": "string",
          "name": "location",
          "type": "string"
        },
        {
          "internalType": "string",
          "name": "email",
          "type": "string"
        },
        {
          "internalType": "string",
          "name": "password",
          "type": "string"
        }
      ],
      "stateMutability": "view",
      "type": "function",
      "constant": true
    },
    {
      "inputs": [],
      "name": "s_retailerID",
      "outputs": [
        {
          "internalType": "uint256",
          "name": "",
          "type": "uint256"
        }
      ],
      "stateMutability": "view",
      "type": "function",
      "constant": true
    },
    {
      "inputs": [
        {
          "internalType": "bytes32",
          "name": "_password",
          "type": "bytes32"
        }
      ],
      "name": "loginSysOwner",
      "outputs": [],
      "stateMutability": "nonpayable",
      "type": "function"
    },
    {
      "inputs": [
        {
          "internalType": "bytes32",
          "name": "oldPassword",
          "type": "bytes32"
        },
        {
          "internalType": "bytes32",
          "name": "_newPassword",
          "type": "bytes32"
        }
      ],
      "name": "changePassword",
      "outputs": [],
      "stateMutability": "nonpayable",
      "type": "function"
    },
    {
      "inputs": [
        {
          "internalType": "address",
          "name": "_address",
          "type": "address"
        }
      ],
      "name": "transferOwnership",
      "outputs": [],
      "stateMutability": "nonpayable",
      "type": "function"
    },
    {
      "inputs": [
        {
          "internalType": "address",
          "name": "_manPublicAddress",
          "type": "address"
        },
        {
          "internalType": "string",
          "name": "_fullName",
          "type": "string"
        },
        {
          "internalType": "string",
          "name": "_email",
          "type": "string"
        },
        {
          "internalType": "string",
          "name": "_brand",
          "type": "string"
        },
        {
          "internalType": "string",
          "name": "_licenseUri",
          "type": "string"
        },
        {
          "internalType": "string",
          "name": "_country",
          "type": "string"
        },
        {
          "internalType": "string",
          "name": "_region",
          "type": "string"
        },
        {
          "internalType": "string",
          "name": "_state",
          "type": "string"
        },
        {
          "internalType": "bool",
          "name": "_agreement",
          "type": "bool"
        },
        {
          "internalType": "string",
          "name": "_password",
          "type": "string"
        }
      ],
      "name": "signUpManufacturer",
      "outputs": [],
      "stateMutability": "nonpayable",
      "type": "function"
    },
    {
      "inputs": [
        {
          "internalType": "address",
          "name": "_manufacturerAddress",
          "type": "address"
        }
      ],
      "name": "verifyManufacturer",
      "outputs": [],
      "stateMutability": "nonpayable",
      "type": "function"
    },
    {
      "inputs": [
        {
          "internalType": "address",
          "name": "_MNPublicAddress",
          "type": "address"
        },
        {
          "internalType": "string",
          "name": "_password",
          "type": "string"
        }
      ],
      "name": "manufacturerLogin",
      "outputs": [],
      "stateMutability": "nonpayable",
      "type": "function"
    },
    {
      "inputs": [
        {
          "internalType": "address",
          "name": "_publicAddress",
          "type": "address"
        },
        {
          "internalType": "string",
          "name": "_name",
          "type": "string"
        },
        {
          "internalType": "string",
          "name": "_location",
          "type": "string"
        },
        {
          "internalType": "string",
          "name": "_email",
          "type": "string"
        },
        {
          "internalType": "string",
          "name": "_password",
          "type": "string"
        }
      ],
      "name": "addRetailer",
      "outputs": [],
      "stateMutability": "nonpayable",
      "type": "function"
    },
    {
      "inputs": [
        {
          "internalType": "address",
          "name": "_retailerAddress",
          "type": "address"
        }
      ],
      "name": "removeRetailer",
      "outputs": [],
      "stateMutability": "nonpayable",
      "type": "function"
    },
    {
      "inputs": [
        {
          "internalType": "string",
          "name": "_qrHash",
          "type": "string"
        }
      ],
      "name": "storeQrHash",
      "outputs": [],
      "stateMutability": "nonpayable",
      "type": "function"
    },
    {
      "inputs": [
        {
          "internalType": "uint256",
          "name": "_blockId",
          "type": "uint256"
        }
      ],
      "name": "deleteQrHash",
      "outputs": [],
      "stateMutability": "nonpayable",
      "type": "function"
    },
    {
      "inputs": [],
      "name": "getManufacturerArray",
      "outputs": [
        {
          "internalType": "address[]",
          "name": "",
          "type": "address[]"
        }
      ],
      "stateMutability": "view",
      "type": "function",
      "constant": true
    },
    {
      "inputs": [
        {
          "internalType": "address",
          "name": "_manPublicAddress",
          "type": "address"
        }
      ],
      "name": "getManufacturer",
      "outputs": [
        {
          "internalType": "address",
          "name": "manPublicAddress",
          "type": "address"
        },
        {
          "internalType": "string",
          "name": "email",
          "type": "string"
        },
        {
          "internalType": "string",
          "name": "fullName",
          "type": "string"
        },
        {
          "internalType": "string",
          "name": "brand",
          "type": "string"
        },
        {
          "internalType": "string",
          "name": "licenseUri",
          "type": "string"
        },
        {
          "internalType": "string",
          "name": "country",
          "type": "string"
        },
        {
          "internalType": "string",
          "name": "region",
          "type": "string"
        },
        {
          "internalType": "string",
          "name": "state",
          "type": "string"
        },
        {
          "internalType": "bool",
          "name": "agreement",
          "type": "bool"
        },
        {
          "internalType": "bool",
          "name": "isVerified",
          "type": "bool"
        }
      ],
      "stateMutability": "view",
      "type": "function",
      "constant": true
    },
    {
      "inputs": [],
      "name": "getManfItemIDList",
      "outputs": [
        {
          "internalType": "uint256[]",
          "name": "",
          "type": "uint256[]"
        }
      ],
      "stateMutability": "view",
      "type": "function",
      "constant": true
    },
    {
      "inputs": [
        {
          "internalType": "address",
          "name": "_manPublicAddress",
          "type": "address"
        },
        {
          "internalType": "uint256",
          "name": "_blockId",
          "type": "uint256"
        }
      ],
      "name": "getQrHashAndID",
      "outputs": [
        {
          "internalType": "string",
          "name": "qrHash",
          "type": "string"
        },
        {
          "internalType": "uint256",
          "name": "blockId",
          "type": "uint256"
        }
      ],
      "stateMutability": "view",
      "type": "function",
      "constant": true
    },
    {
      "inputs": [
        {
          "internalType": "string",
          "name": "_qrHash",
          "type": "string"
        },
        {
          "internalType": "uint256",
          "name": "_blockId",
          "type": "uint256"
        },
        {
          "internalType": "string",
          "name": "_itemName",
          "type": "string"
        },
        {
          "internalType": "string",
          "name": "_description",
          "type": "string"
        }
      ],
      "name": "addItemDetails",
      "outputs": [],
      "stateMutability": "nonpayable",
      "type": "function"
    },
    {
      "inputs": [
        {
          "internalType": "string",
          "name": "_qrHash",
          "type": "string"
        }
      ],
      "name": "scanItem",
      "outputs": [
        {
          "internalType": "bool",
          "name": "",
          "type": "bool"
        }
      ],
      "stateMutability": "view",
      "type": "function",
      "constant": true
    },
    {
      "inputs": [
        {
          "internalType": "string",
          "name": "_qrHash",
          "type": "string"
        }
      ],
      "name": "moreDetailsForScannedItem",
      "outputs": [
        {
          "components": [
            {
              "internalType": "string",
              "name": "itemName",
              "type": "string"
            },
            {
              "internalType": "string",
              "name": "description",
              "type": "string"
            }
          ],
          "internalType": "struct QrCode.ItemDetails",
          "name": "",
          "type": "tuple"
        }
      ],
      "stateMutability": "view",
      "type": "function",
      "constant": true
    }
  ],
  "bytecode": "0x6080346200013757600160a060020a03196000913382845416178355602081019060208252600560408201527f61646d696e0000000000000000000000000000000000000000000000000000006060820152606081526080810167ffffffffffffffff92828210848311176200010a5781604052825190209260e0830190828210908211176200010a579160c09186936040523390528360a0820152015233826001541617600155600255604060ff1992836003541660035533815260056020522060018103620000db575b60405161362890816200013d8239f35b600291339082541617815581546001820155019060ff80600354161515918354169116179055388080620000cb565b6024867f4e487b710000000000000000000000000000000000000000000000000000000081526041600452fd5b600080fdfe608080604052600436101561001357600080fd5b7c010000000000000000000000000000000000000000000000000000000060003504908163191bcef614612f05575080631bef85c014612e375780631fb4e3f014612df8578063292785fc14612c335780632bb9cd92146126f85780635c9e052a146125395780636030775e146124f457806365680795146124035780636c3a98ae146123e55780636f3911bc1461231d57806370099ec8146121ec578063719f29721461168b57806377f40e331461163c5780637a788e0a146115865780638d11d5ff146114f357806396df3446146114b0578063bb56926714611447578063d64a3d8b14611329578063daa7f64b146106ac578063de5df39814610618578063e38483a3146103b0578063f2fde38b1461031b578063fb262c30146102be5763fe244c371461014357600080fd5b346102b95760203660031901126102b957600160a060020a03806101656130cc565b166000526006602052604060002090815416600182016101849061321a565b916101916002820161321a565b61019d6003830161321a565b916101aa6004820161321a565b6101b66005830161321a565b6101c26006840161321a565b906101cf6007850161321a565b92600885015460ff1696600986016101e69061321a565b95600a0154966040519a8b9a8b526101a08060208d01528b0161020891613105565b8a810360408c015261021991613105565b89810360608b015261022a91613105565b88810360808a015261023b91613105565b87810360a089015261024c91613105565b86810360c088015261025d91613105565b85810360e087015261026e91613105565b6101009315158486015284810361012086015261028a91613105565b9160ff82161515610140850152810460ff16151561016084015262010000900460ff1615156101808301520390f35b600080fd5b346102b95760203660031901126102b95760043567ffffffffffffffff81116102b95761030860206102f581933690600401613185565b81604051938285809451938492016130e2565b8101600e81520301902054604051908152f35b346102b95760203660031901126102b9576103346130cc565b600160a060020a0390816000541661034d81331461333f565b61035833151561333f565b60005260056020526000600260408220828155826001820155015516807fac9a252a3ed2d3fcc198677953ffe98ac492e191a4605978c655f8ce4ae80676600080a2600160a060020a03196000541617600055600080f35b346102b9576020806003193601126102b95767ffffffffffffffff6004358181116102b9576103e3903690600401613185565b90336000526006835261040460ff610100600a604060002001540416613401565b61040f331515613475565b336000526006835260ff600a6040600020015416156105d157427f9376d1f5ae2781161467d7ecca7bb235a2f861272b40eca70ea487d3005004d0600080a233600052600b83526040600020426000528352604060002091805191821161050c57819061047c84546131dc565b601f8111610598575b508490601f831160011461053057600092610525575b5050816002029160080260020a6000190419161790555b600c54906801000000000000000082101561050c576104d9826001600d9401600c556133ca565b60088254910260020a9081600003809242021691191617905542600052526040600020600160ff19825416179055600080f35b60e060020a634e487b7102600052604160045260246000fd5b01519050848061049b565b60008581528681209350601f198516905b878282106105825750509160029391856001969410610567575b505050020190556104b2565b01516008601f841602840a600019041916905585808061055b565b6001859682939686015181550195019301610541565b6105c19085600052866000208780601f8701048201928187106105c7575b601f010401906133b3565b85610485565b91925082916105b6565b6064836040519060e560020a62461bcd0282526004820152601c60248201527f6d616e756661637475726572206973206e6f74207665726966696564000000006044820152fd5b346102b95760403660031901126102b9576106316130cc565b602435600160a060020a03918282168092036102b957821660005260086020526040600020906000526020526040600020908154166106a86106756001840161321a565b926106826002820161321a565b9061069b60046106946003840161321a565b920161321a565b91604051958695866132e7565b0390f35b346102b95760a03660031901126102b9576106c56130cc565b60243567ffffffffffffffff81116102b9576106e5903690600401613185565b6044803567ffffffffffffffff81116102b957610706903690600401613185565b606490813567ffffffffffffffff81116102b957610728903690600401613185565b9160843567ffffffffffffffff81116102b957610749903690600401613185565b9333600052600660205261076b60ff610100600a604060002001540416613401565b610776331515613475565b600160a060020a038716156112be5785511561127a57825115611236578351156111f2578451156111ae5750507f73d87f380e0a7b768520275cc06c6143276be057013aa419a14c7f88e47f915f60405160208152806107d96020820188613105565b0390a16040519360a0850185811067ffffffffffffffff82111761050c57604052600160a060020a038616855260208501526040840152606083015260808201523360005260086020526040600020600160a060020a0383166000526020526040600020600160a060020a03825116600160a060020a0319825416178155602082015180519067ffffffffffffffff821161050c57819061087d60018501546131dc565b601f8111611178575b50602090601f8311600114611104576000926110f9575b5050816002029160080260020a6000190419161760018201555b604082015180519067ffffffffffffffff821161050c5781906108dd60028501546131dc565b601f81116110c3575b50602090601f831160011461104f57600092611044575b5050816002029160080260020a6000190419161760028201555b606082015180519067ffffffffffffffff821161050c57819061093d60038501546131dc565b601f811161100e575b50602090601f8311600114610f9a57600092610f8f575b5050816002029160080260020a6000190419161760038201555b608082015180519067ffffffffffffffff821161050c5761099b60048401546131dc565b601f8111610f59575b50602090601f8311600114610ee6576004929160009183610edb575b5050816002029160080260020a600019041916179101555b600160a060020a03821660005260096020526040600020600160a060020a03825116600160a060020a0319825416178155602082015180519067ffffffffffffffff821161050c578190610a2f60018501546131dc565b601f8111610ea5575b50602090601f8311600114610e3157600092610e26575b5050816002029160080260020a6000190419161760018201555b604082015180519067ffffffffffffffff821161050c578190610a8f60028501546131dc565b601f8111610df0575b50602090601f8311600114610d7c57600092610d71575b5050816002029160080260020a6000190419161760028201555b606082015180519067ffffffffffffffff821161050c57610aed60038401546131dc565b601f8111610d3b575b50602090601f8311600114610cc357918060809492600494600092610cb8575b5050816002029160080260020a6000190419161760038201555b0191015180519067ffffffffffffffff821161050c578190610b5284546131dc565b601f8111610c7a575b50602090601f8311600114610c1157600092610c06575b5050816002029160080260020a6000190419161790555b600a546801000000000000000081101561050c576001810180600a55811015610bed57600160a060020a03907fc65a7bb8d6351c1cf70c95a316cc6a92839c986682d98bc35f958f4883f9d2a8019116600160a060020a0319825416179055600080f35b60e060020a634e487b7102600052603260045260246000fd5b015190508480610b72565b6000858152602081209350601f198516905b818110610c6257509160029391856001969410610c47575b50505002019055610b89565b01516008601f841602840a6000190419169055858080610c3b565b92936020600181928786015181550195019301610c23565b610ca8908560005260206000206020601f86010481019160208610610cae575b601f602091010401906133b3565b85610b5b565b9091508190610c9a565b015190508780610b16565b906003840160005260206000209160005b601f1985168110610d2357508360809593600193600293600497601f19811610610d08575b50505002016003820155610b30565b01516008601f841602840a6000190419169055888080610cf9565b91926020600181928685015181550194019201610cd4565b610d6b906003850160005260206000206020601f86010481019160208610610cae57601f602091010401906133b3565b85610af6565b015190508580610aaf565b91506002840160005260206000209160005b601f1985168110610dd85750918391600293600195601f19811610610dbd575b50505002016002820155610ac9565b01516008601f841602840a6000190419169055868080610dae565b91926020600181928685015181550194019201610d8e565b610e20906002860160005260206000206020601f86010481019160208610610cae57601f602091010401906133b3565b86610a98565b015190508580610a4f565b91506001840160005260206000209160005b601f1985168110610e8d5750918391600293600195601f19811610610e72575b50505002016001820155610a69565b01516008601f841602840a6000190419169055868080610e63565b91926020600181928685015181550194019201610e43565b610ed5906001860160005260206000206020601f86010481019160208610610cae57601f602091010401906133b3565b86610a38565b0151905086806109c0565b906004840160005260206000209160005b601f1985168110610f4157509260019260029260049583601f19811610610f26575b50505002019101556109d8565b01516008601f841602840a6000190419169055878080610f19565b91926020600181928685015181550194019201610ef7565b610f89906004850160005260206000206020601f86010481019160208610610cae57601f602091010401906133b3565b856109a4565b01519050858061095d565b91506003840160005260206000209160005b601f1985168110610ff65750918391600293600195601f19811610610fdb575b50505002016003820155610977565b01516008601f841602840a6000190419169055868080610fcc565b91926020600181928685015181550194019201610fac565b61103e906003860160005260206000206020601f86010481019160208610610cae57601f602091010401906133b3565b86610946565b0151905085806108fd565b91506002840160005260206000209160005b601f19851681106110ab5750918391600293600195601f19811610611090575b50505002016002820155610917565b01516008601f841602840a6000190419169055868080611081565b91926020600181928685015181550194019201611061565b6110f3906002860160005260206000206020601f86010481019160208610610cae57601f602091010401906133b3565b866108e6565b01519050858061089d565b91506001840160005260206000209160005b601f19851681106111605750918391600293600195601f19811610611145575b505050020160018201556108b7565b01516008601f841602840a6000190419169055868080611136565b91926020600181928685015181550194019201611116565b6111a8906001860160005260206000206020601f86010481019160208610610cae57601f602091010401906133b3565b86610886565b7f50686f6e65206e756d6265722063616e6e6f7420626520656d707479000000006040519160e560020a62461bcd02835260206004840152601c6024840152820152fd5b7f456d61696c20616464726573732063616e6e6f7420626520656d7074790000006040519160e560020a62461bcd02835260206004840152601d6024840152820152fd5b7f4c6f636174696f6e206e616d652063616e6e6f7420626520656d7074790000006040519160e560020a62461bcd02835260206004840152601d6024840152820152fd5b7f52657461696c6572206e616d652063616e6e6f7420626520656d7074790000006040519160e560020a62461bcd02835260206004840152601d6024840152820152fd5b7f64000000000000000000000000000000000000000000000000000000000000006084927f52657461696c6572207075626c69632061646472657373206e6f742076616c696040519360e560020a62461bcd0285526020600486015260216024860152840152820152fd5b346102b9576020806003193601126102b9576113436130cc565b600160a060020a039061135b8260005416331461333f565b61136633151561333f565b1690816000526006815260ff610100600a6040600020015404161561140057816000526006815260ff600a60406000200154166113ba5760009182526006905260409020600a01805460ff19166001179055005b6064906040519060e560020a62461bcd02825280600483015260248201527f6d616e75666163747572657220697320616c72656164792076657269666965646044820152fd5b6064906040519060e560020a62461bcd0282526004820152601e60248201527f6d616e756661637475726572206973206e6f74207265676973746572656400006044820152fd5b346102b95760403660031901126102b9576114a66114636130cc565b600160a060020a036024359116600052600b602052604060002081600052602052611491604060002061321a565b90604051928392604084526040840190613105565b9060208301520390f35b346102b95760203660031901126102b957600160a060020a03806114d26130cc565b1660005260096020526040600020908154166106a86106756001840161321a565b346102b95760203660031901126102b9576004357f4140c73226c8ea512653d2920a7fbe10a0c0fe3c5f07aee8be2cad8b2b9a772f6020604051838152a133600052600b60205260406000208160005260205261155360406000206134e9565b61155c816133ca565b60088254910260020a60000319169055600052600d602052604060002060ff198154169055600080f35b346102b95760003660031901126102b95760405180600c5480835260208093018091600c6000527fdf6966c971051c3d54ec59162606531493a51404a002842f56009d7e5cf4a8c79060005b868282106116285786866115e882880383613163565b604051928392818401908285525180915260408401929160005b82811061161157505050500390f35b835185528695509381019392810192600101611602565b8354855290930192600192830192016115d2565b346102b95760203660031901126102b95760043567ffffffffffffffff81116102b95760ff61167560206102f581943690600401613185565b8101600f81520301902054166040519015158152f35b346102b9576101403660031901126102b9576116a56130cc565b60243567ffffffffffffffff81116102b9576116c5903690600401613185565b9060443567ffffffffffffffff81116102b9576116e6903690600401613185565b60643567ffffffffffffffff81116102b957611706903690600401613185565b60843567ffffffffffffffff81116102b957611726903690600401613185565b60a43567ffffffffffffffff81116102b957611746903690600401613185565b60c43567ffffffffffffffff81116102b957611766903690600401613185565b9060e43567ffffffffffffffff81116102b957611787903690600401613185565b92610104359485151586036102b9576101243567ffffffffffffffff81116102b9576117b7903690600401613185565b9660405199337f561138658ca49a8540dc70dcfe64c9026c1c5b9344642242dd6562970f9c1278600080a26117eb8b61312a565b600160a060020a038a168b5260208b015260408a01526060890152608088015260a087015260c086015260e08501521515610100840152610120830152600061014083015260016101608301526000610180830152336000526006602052604060002091600160a060020a03815116600160a060020a0319845416178355602081015180519067ffffffffffffffff821161050c57819061188f60018701546131dc565b601f81116121b6575b50602090601f831160011461214257600092612137575b5050816002029160080260020a6000190419161760018401555b604081015180519067ffffffffffffffff821161050c5781906118ef60028701546131dc565b601f8111612101575b50602090601f831160011461208d57600092612082575b5050816002029160080260020a6000190419161760028401555b606081015180519067ffffffffffffffff821161050c57819061194f60038701546131dc565b601f811161204c575b50602090601f8311600114611fd857600092611fcd575b5050816002029160080260020a6000190419161760038401555b608081015180519067ffffffffffffffff821161050c5781906119af60048701546131dc565b601f8111611f97575b50602090601f8311600114611f2357600092611f18575b5050816002029160080260020a6000190419161760048401555b60a081015180519067ffffffffffffffff821161050c578190611a0f60058701546131dc565b601f8111611ee2575b50602090601f8311600114611e6e57600092611e63575b5050816002029160080260020a6000190419161760058401555b60c081015180519067ffffffffffffffff821161050c578190611a6f60068701546131dc565b601f8111611e2d575b50602090601f8311600114611db957600092611dae575b5050816002029160080260020a6000190419161760068401555b60e081015180519067ffffffffffffffff821161050c578190611acf60078701546131dc565b601f8111611d78575b50602090601f8311600114611d0457600092611cf9575b5050816002029160080260020a6000190419161760078401555b611b296101008201511515600885019060ff801983541691151516179055565b61012081015192835167ffffffffffffffff811161050c57611b4e60098301546131dc565b601f8111611cc3575b506020601f8211600114611c4d578190600a949596600092611c42575b5050816002029160080260020a6000190419161760098201555b0190611bad6101408201511515839060ff801983541691151516179055565b61016081015115159061ff0061010062ff0000620100006101808754950151151502169302169062ffff001916171790556007546801000000000000000081101561050c576001810180600755811015610bed57600160a060020a03907fa66cc928b5edb82af9bd49922954155ab7b0942694bea4ce44661d9a8736c688019116600160a060020a0319825416179055600080f35b015190508680611b74565b6009830160005260206000209560005b601f1984168110611cab575091600a94959660029260019483601f19811610611c90575b50505002016009820155611b8e565b01516008601f841602840a6000190419169055878080611c81565b82820151885560019097019660209283019201611c5d565b611cf3906009840160005260206000206020601f85010481019160208510610cae57601f602091010401906133b3565b85611b57565b015190508580611aef565b91506007860160005260206000209160005b601f1985168110611d605750918391600293600195601f19811610611d45575b50505002016007840155611b09565b01516008601f841602840a6000190419169055868080611d36565b91926020600181928685015181550194019201611d16565b611da8906007880160005260206000206020601f86010481019160208610610cae57601f602091010401906133b3565b86611ad8565b015190508580611a8f565b91506006860160005260206000209160005b601f1985168110611e155750918391600293600195601f19811610611dfa575b50505002016006840155611aa9565b01516008601f841602840a6000190419169055868080611deb565b91926020600181928685015181550194019201611dcb565b611e5d906006880160005260206000206020601f86010481019160208610610cae57601f602091010401906133b3565b86611a78565b015190508580611a2f565b91506005860160005260206000209160005b601f1985168110611eca5750918391600293600195601f19811610611eaf575b50505002016005840155611a49565b01516008601f841602840a6000190419169055868080611ea0565b91926020600181928685015181550194019201611e80565b611f12906005880160005260206000206020601f86010481019160208610610cae57601f602091010401906133b3565b86611a18565b0151905085806119cf565b91506004860160005260206000209160005b601f1985168110611f7f5750918391600293600195601f19811610611f64575b505050020160048401556119e9565b01516008601f841602840a6000190419169055868080611f55565b91926020600181928685015181550194019201611f35565b611fc7906004880160005260206000206020601f86010481019160208610610cae57601f602091010401906133b3565b866119b8565b01519050858061196f565b91506003860160005260206000209160005b601f19851681106120345750918391600293600195601f19811610612019575b50505002016003840155611989565b01516008601f841602840a600019041916905586808061200a565b91926020600181928685015181550194019201611fea565b61207c906003880160005260206000206020601f86010481019160208610610cae57601f602091010401906133b3565b86611958565b01519050858061190f565b91506002860160005260206000209160005b601f19851681106120e95750918391600293600195601f198116106120ce575b50505002016002840155611929565b01516008601f841602840a60001904191690558680806120bf565b9192602060018192868501518155019401920161209f565b612131906002880160005260206000206020601f86010481019160208610610cae57601f602091010401906133b3565b866118f8565b0151905085806118af565b91506001860160005260206000209160005b601f198516811061219e5750918391600293600195601f19811610612183575b505050020160018401556118c9565b01516008601f841602840a6000190419169055868080612174565b91926020600181928685015181550194019201612154565b6121e6906001880160005260206000206020601f86010481019160208610610cae57601f602091010401906133b3565b86611898565b346102b9576020806003193601126102b9576122066130cc565b90336000526006815261222760ff610100600a604060002001540416613401565b612232331515613475565b3360005260088152604060002091600160a060020a0380911692836000528252828160406000205416036122d657826009937fdb7176e79cffef81cb01767dd0447a0b24bb72ca9778d4b245581086b2a7e6db600080a2336000526008835260406000208160005283526122a96040600020613531565b3360005260088352604060002090600052825260406000205416600052526122d46040600020613531565b005b6064826040519060e560020a62461bcd0282526004820152601260248201527f52657461696c6572206e6f7420666f756e6400000000000000000000000000006044820152fd5b346102b95760003660031901126102b957604051806007548083526020809301809160076000527fa66cc928b5edb82af9bd49922954155ab7b0942694bea4ce44661d9a8736c6889060005b868282106123c857868661237f82880383613163565b604051928392818401908285525180915260408401929160005b8281106123a857505050500390f35b8351600160a060020a031685528695509381019392810192600101612399565b8354600160a060020a031685529093019260019283019201612369565b346102b95760003660031901126102b9576020600454604051908152f35b346102b9576020806003193601126102b95761242b600160a060020a0360005416331461333f565b61243633151561333f565b336000526005815260016040600020015460405182810190600435825283815261245f81613147565b519020036124875760059033600052526002604060002001600160ff19825416179055600080f35b6084906040519060e560020a62461bcd0282526004820152602360248201527f496e76616c69642070617373776f7264206f66206163636f756e74206164647260448201527f65737300000000000000000000000000000000000000000000000000000000006064820152fd5b346102b95760203660031901126102b95760043567ffffffffffffffff81116102b95761252f61252a6020923690600401613185565b613565565b6040519015158152f35b346102b95760403660031901126102b9576125526130cc565b60243567ffffffffffffffff81116102b957612572903690600401613185565b336000526020906006825260ff610100600a604060002001540416156126b157336000526006825260ff600a604060002001541615612644576125cc9033600052600683526125c7600960406000200161321a565b61359d565b156125fd57600160a060020a036006921660005252600a6040600020016201000062ff000019825416179055600080f35b6064906040519060e560020a62461bcd0282526004820152601b60248201527f496e76616c69642061646472657373206f722070617373776f726400000000006044820152fd5b6084826040519060e560020a62461bcd0282526004820152602660248201527f596f7572206e6f74207665726966696564206173206d616e756661637475726560448201527f72207965742100000000000000000000000000000000000000000000000000006064820152fd5b6064826040519060e560020a62461bcd0282526004820152601860248201527f596f7572206e6f742072656769737465726564207965742100000000000000006044820152fd5b346102b95760803660031901126102b95767ffffffffffffffff6004358181116102b95761272a903690600401613185565b6024918235916044358281116102b957612748903690600401613185565b906064358381116102b957612761903690600401613185565b93336000526020906006825261278560ff610100600a604060002001540416613401565b612790331515613475565b33600052600b825260406000208160005282526127b4836125c7604060002061321a565b15612bed576040518351908381818701936127d08183876130e2565b8101600f8152030190209060019460ff1992868482541617905583600052600d85528560ff60406000205416151503612ba757865115612b6157885115612b1b578486926128c992867f63bcdba1660b19ba3aaaf6afe05409cc2811b84ad557ca33f7eda874ac3a89b08d8c612871604051928392867f611520fe479942fc842c72a2974cc0bf4746653a8b34285ba197c7192fd4721d600080a2836132bf565b0390a286604051817f2c43e921afd657149a59b6382398172493954880204131eb2a51b28468908389600080a2848184516128ad8183896130e2565b8101600e815203019020556040519384928392519283916130e2565b8101600f81520301902091825416179055604051936128e785613147565b8452818401958652600052601081526040600020925192835190858211612b0357839161291482546131dc565b95601f96878111612ad7575b508490878311600114612a6f576000919083612a64575b5050816002029160080260020a6000190419161781555b019451958651948511612a4d575061296685546131dc565b838111612a17575b5080928085116001146129af575050508192936000926129a4575b5050816002029160080260020a600019041916179055600080f35b015190508380612989565b90919392601f198416968660005283600020936000905b898210612a00575050846002969798106129e5575b5050505002019055005b0151908316600802840a6000190419169055848080806129db565b8088859782949686015181550196019301906129c6565b612a3e908660005282600020838681818a0104830193828a10612a44575b010401906133b3565b8661296e565b93508293612a35565b60e060020a634e487b710260005260416004526000fd5b015190508a80612937565b90601f1983169184600052866000209260005b88828210612ac157505091600293918588969410612aa7575b5050500201815561294e565b01516008838b1602840a60001904191690558b8080612a9b565b8385015186558a98909501949384019301612a82565b612afd908460005286600020878a8181880104830193828810612a4457010401906133b3565b8a612920565b8760e060020a634e487b710260005260416004526000fd5b606485601b8c6040519260e560020a62461bcd02845260048401528201527f4465736372697074696f6e2063616e6e6f7420626520656d70747900000000006044820152fd5b60648560198c6040519260e560020a62461bcd02845260048401528201527f4974656d206e616d652063616e6e6f7420626520656d707479000000000000006044820152fd5b606485600f8c6040519260e560020a62461bcd02845260048401528201527f49442069736e27742073746f72656400000000000000000000000000000000006044820152fd5b6064826011896040519260e560020a62461bcd02845260048401528201527f486173682069736e27742073746f7265640000000000000000000000000000006044820152fd5b346102b95760403660031901126102b957602435612c5d600160a060020a0360005416331461333f565b612c6833151561333f565b33600052602060058152600160406000200154604051828101906004358252838152612c9381613147565b51902003612db157336000526005815260016040600020015460405182810190848252838152612cc281613147565b51902014612d6a573360005260058152600160ff60026040600020015416151503612d2357600590337f85a52c4d6d605a61db8affa2383ae4d5aeefe6f4363c35174504042b4a0ee9b6600080a23360005252600160406000200155600080f35b6064906040519060e560020a62461bcd0282526004820152600d60248201527f4e6f74206c6f6767656420696e000000000000000000000000000000000000006044820152fd5b6064906040519060e560020a62461bcd0282526004820152601460248201527f496e76616c6964206e65772070617373776f72640000000000000000000000006044820152fd5b6064906040519060e560020a62461bcd0282526004820152601460248201527f496e76616c6964206f6c642070617373776f72640000000000000000000000006044820152fd5b346102b95760203660031901126102b95760043560005260106020526040600020612e2760016106948361321a565b906106a8604051928392836132bf565b346102b9576020806003193601126102b9576004359067ffffffffffffffff82116102b957612e9581612e706040943690600401613185565b6060828651612e7e81613147565b8281520152818551938285809451938492016130e2565b8101600e81520301902054600052601081526106a88260002091612ef2612ed46001865195612ec387613147565b612ecc8161321a565b87520161321a565b91808501928352855195869582875251918601526060850190613105565b9051838203601f19016040850152613105565b346102b95760203660031901126102b957600160a060020a0380612f276130cc565b1660005260066020526040600020612f3e8361312a565b805482168352612f506001820161321a565b6020840190815291612f646002830161321a565b6040850190815292612f786003840161321a565b60608601908152612f8b6004850161321a565b60808701908152612f9e6005860161321a565b60a08801908152612fb16006870161321a565b60c0890190815290612fc56007880161321a565b9260e08a01938452600888015460ff169461010098898c01961515875260098101612fef9061321a565b6101208d0152600a01549760ff891615159b8c996101409d8e8301528b810460ff16151561016083015262010000900460ff1615156101808201525116995196519051915192519351945195511515966040519b8c9b8c528060208d01528b0161305891613105565b8a810360408c015261306991613105565b89810360608b015261307a91613105565b88810360808a015261308b91613105565b87810360a089015261309c91613105565b86810360c08801526130ad91613105565b85810360e08701526130be91613105565b928401526101208301520390f35b60043590600160a060020a03821682036102b957565b60005b8381106130f55750506000910152565b81810151838201526020016130e5565b9060209161311e815180928185528580860191016130e2565b601f01601f1916010190565b6101a0810190811067ffffffffffffffff82111761050c57604052565b6040810190811067ffffffffffffffff82111761050c57604052565b90601f8019910116810190811067ffffffffffffffff82111761050c57604052565b81601f820112156102b95780359067ffffffffffffffff821161050c57604051926131ba601f8401601f191660200185613163565b828452602083830101116102b957816000926020809301838601378301015290565b9060016002830492168015613210575b60208310146131f757565b60e060020a634e487b7102600052602260045260246000fd5b91607f16916131ec565b906040519182600082549261322e846131dc565b90818452600194858116908160001461329d575060011461325a575b505061325892500383613163565b565b9093915060005260209081600020936000915b8183106132855750506132589350820101388061324a565b8554888401850152948501948794509183019161326d565b91505061325894506020925060ff19168284015215158102820101388061324a565b90916132d66132e493604084526040840190613105565b916020818403910152613105565b90565b93906132e4959361331561333194600160a060020a036133239416885260a0602089015260a0880190613105565b908682036040880152613105565b908482036060860152613105565b916080818403910152613105565b1561334657565b608460405160e560020a62461bcd02815260206004820152602960248201527f4f6e6c792073797374656d206f776e65722063616e20706572666f726d20746860448201527f697320616374696f6e00000000000000000000000000000000000000000000006064820152fd5b8181106133be575050565b600081556001016133b3565b600c54811015610bed57600c6000527fdf6966c971051c3d54ec59162606531493a51404a002842f56009d7e5cf4a8c70190600090565b1561340857565b608460405160e560020a62461bcd02815260206004820152602a60248201527f4f6e6c79206d616e7566616374757265722063616e206164642072657461696c60448201527f65722064657461696c73000000000000000000000000000000000000000000006064820152fd5b1561347c57565b608460405160e560020a62461bcd02815260206004820152602960248201527f4f6e6c79206d616e7566616374757265722063616e20706572666f726d20746860448201527f697320616374696f6e00000000000000000000000000000000000000000000006064820152fd5b6134f381546131dc565b90816134fd575050565b81601f6000931160011461350f575055565b90808391825261352d6020601f8185209501048401600185016133b3565b5555565b60046132589160008155613547600182016134e9565b613553600282016134e9565b61355f600382016134e9565b016134e9565b613580602060ff9281604051938285809451938492016130e2565b8101600f815203019020541660001461359857600190565b600090565b90604051916020926135cb8482816135be81830196878151938492016130e2565b8101038084520182613163565b519020916135eb6040519182816135be81830196878151938492016130e2565b519020149056fea26469706673582212206fd117ea7ca49ba7cc0aa4f877ed76c4cc264e5a39e8cde7c945f24246cc14d864736f6c63430008130033",
  "immutableReferences": {},
  "source": "// SPDX-License-Identifier: MIT\npragma solidity ^0.8.19;\n\ncontract QrCode {\n    event ManufacturerAdded(address indexed manufacturer);\n    event RetailerAdded(string retailer);\n    event RetailerRemoved(address indexed retailerAddress);\n\n    event PasswordChanged(address indexed admin);\n    event ownershipTransferred(address indexed newAdmin);\n\n    event ItemAdded_M(uint256 indexed id);\n    event ItemDetailsUpdated_M(\n        uint256 indexed id,\n        string itemName,\n        string description\n    );\n    event ItemRecorded_M(uint256 indexed id);\n\n    event qrHashStored(uint indexed timestamp);\n    event qrHashDeleted(uint256 _blockId);\n\n    struct Manufacturer {\n        address manPublicAddress;\n        string fullName;\n        string email;\n        string brand;\n        string licenseUri;\n        string country;\n        string region;\n        string state;\n        bool agreement;\n        string password;\n        bool isVerified;\n        bool isRegistered;\n        bool isLogin;\n    }\n\n    struct Retailer {\n        address publicAddress;\n        string name;\n        string location;\n        string email;\n        string password;\n    }\n\n    struct ItemDetails {\n        string itemName;\n        string description;\n    }\n\n    //@dev create system account structure\n    struct SystemOwner {\n        address sysOwner;\n        bytes32 password; /*audit*/\n        bool isLogin;\n    }\n\n    address private owner;\n    SystemOwner private sysowner;\n\n    uint256 public s_retailerID;\n\n    mapping(address => SystemOwner) private sysOwnerMap;\n\n    mapping(address => Manufacturer) public manufacturerDetails;\n    address[] private manufactureAddressArray; // manufacturer address array\n\n    mapping(address => mapping(address => Retailer)) public manufacturerToRetailerDetails;\n    mapping(address => Retailer) public retailerDetails;\n    address[] private retailerDetailsArray;\n\n    //STORING\n    mapping(address => mapping(uint256 => string)) private qrHashMapByManufacturer; // stored by manufacturer when generating hash + id\n\n    uint256[] private manufacturerIDHashArr; //scanned by only manufacturer\n    mapping(uint => bool) private storedIDs; //just stored\n\n    //MATCHING\n    mapping(string => uint256) public matchHashToId; //used by users when scanning\n\n    mapping(string => bool) public matchedItems; //matched hash to items\n\n    mapping(uint256 => ItemDetails) public itemDetails;\n\n    constructor() {\n        owner = msg.sender;\n        sysowner = SystemOwner(owner, keccak256(abi.encode((\"admin\"))), false);\n        sysOwnerMap[owner] = sysowner;\n    }\n\n    modifier onlySysOwner() {\n        require(\n            msg.sender == owner,\n            \"Only system owner can perform this action\"\n        );\n        require(\n            msg.sender != address(0),\n            \"Only system owner can perform this action\"\n        );\n        _;\n    }\n\n    modifier onlyManufacturer() {\n        require(\n            manufacturerDetails[msg.sender].isRegistered,\n            \"Only manufacturer can add retailer details\"\n        );\n        require(\n            msg.sender != address(0),\n            \"Only manufacturer can perform this action\"\n        );\n        _;\n    }\n\n    /*@dev System Owner functions*/\n    function loginSysOwner(\n        bytes32 _password\n    ) external onlySysOwner {\n        require(\n            sysOwnerMap[msg.sender].password ==\n                keccak256(abi.encode(_password)),\n            \"Invalid password of account address\"\n        );\n        sysOwnerMap[msg.sender].isLogin = true;\n    }\n\n    function changePassword(\n        bytes32 oldPassword,\n        bytes32 _newPassword\n    ) external onlySysOwner {\n        require(\n            sysOwnerMap[msg.sender].password ==\n                keccak256(abi.encode(oldPassword)),\n            \"Invalid old password\"\n        );\n        require(_newPassword.length > 0, \"Password should not be empty\");\n        require(\n            sysOwnerMap[msg.sender].password !=\n                keccak256(abi.encode(_newPassword)),\n            \"Invalid new password\"\n        );\n        require(sysOwnerMap[msg.sender].isLogin == true, \"Not logged in\");\n\n        emit PasswordChanged(msg.sender);\n        sysOwnerMap[msg.sender].password = _newPassword;\n    }\n\n    function transferOwnership(address _address) external onlySysOwner {\n        delete sysOwnerMap[owner];\n        emit ownershipTransferred(_address);\n        owner = _address;\n        sysOwnerMap[owner];\n    }\n\n    /**@dev Manufacturer functions*/\n    function signUpManufacturer(\n        address _manPublicAddress,\n        string memory _fullName,\n        string memory _email,\n        string memory _brand,\n        string memory _licenseUri,\n        string memory _country,\n        string memory _region,\n        string memory _state,\n        bool _agreement,\n        string memory _password\n    ) external {\n       /* require(msg.sender != owner, \"Address shouldn't be system owner\");\n        require(_manPublicAddress != address(0), \"Address not valid\");\n        require(\n            manufacturerDetails[_manPublicAddress].isRegistered,\n            \"Manufacturer is already registered\"\n        );\n        require(bytes(_fullName).length > 0,\"Manufacturer name shouldn't be empty\");\n        require(bytes(_email).length > 0, \"Email address shouldn't be empty\");\n        require(bytes(_brand).length > 0, \"Brand shouldn't be empty\");\n        require(bytes(_licenseUri).length > 0, \"License Uri shouldn't be empty\");\n        require(bytes(_country).length > 0, \"Country shouldn't be empty\");\n        require(bytes(_region).length > 0, \"Region shouldn't be empty\");\n        require(bytes(_state).length > 0, \"State shouldn't be empty\");\n        require(bytes(_password).length > 0, \"Password shouldn't be empty\");*/\n\n        emit ManufacturerAdded(msg.sender);\n        manufacturerDetails[msg.sender] = Manufacturer(\n            _manPublicAddress,\n            _fullName,\n            _email,\n            _brand,\n            _licenseUri,\n            _country,\n            _region,\n            _state,\n            _agreement,\n            _password,\n            false,\n            true,\n            false\n        );\n        manufactureAddressArray.push(_manPublicAddress);\n    }\n\n    function verifyManufacturer(address _manufacturerAddress) public onlySysOwner{\n        require(manufacturerDetails[_manufacturerAddress].isRegistered, \"manufacturer is not registered\");\n        require(!manufacturerDetails[_manufacturerAddress].isVerified, \"manufacturer is already verified\");\n        manufacturerDetails[_manufacturerAddress].isVerified = true;\n    }\n\n    function manufacturerLogin(address _MNPublicAddress, string memory _password) public {\n        require(manufacturerDetails[msg.sender].isRegistered, \"Your not registered yet!\");\n        require(manufacturerDetails[msg.sender].isVerified, \"Your not verified as manufacturer yet!\");\n        // require(!manufacturerDetails[msg.sender].isLogin, \"Your Already login\");\n        require(compareStrings(manufacturerDetails[msg.sender].password, _password), \"Invalid address or password\");\n\n        manufacturerDetails[_MNPublicAddress].isLogin = true;\n    }\n\n    function addRetailer(\n        address _publicAddress,\n        string memory _name,\n        string memory _location,\n        string memory _email,\n        string memory _password\n    ) external onlyManufacturer {\n        require(_publicAddress != address(0), \"Retailer public address not valid\");\n        require(bytes(_name).length > 0, \"Retailer name cannot be empty\");\n        require(bytes(_location).length > 0, \"Location name cannot be empty\");\n        require(bytes(_email).length > 0, \"Email address cannot be empty\");\n        require(bytes(_password).length > 0, \"Phone number cannot be empty\");\n\n        emit RetailerAdded(_name);\n        Retailer memory retailer = Retailer(\n            _publicAddress,\n            _name,\n            _location,\n            _email,\n            _password\n        );\n        manufacturerToRetailerDetails[msg.sender][_publicAddress] = retailer;\n        retailerDetails[_publicAddress] = retailer;\n        retailerDetailsArray.push(_publicAddress);\n    }\n\n    function removeRetailer(address _retailerAddress) external onlyManufacturer {\n        require(\n            manufacturerToRetailerDetails[msg.sender][_retailerAddress].publicAddress ==\n                _retailerAddress,\n            \"Retailer not found\"\n        );\n        emit RetailerRemoved(_retailerAddress);\n        delete manufacturerToRetailerDetails[msg.sender][_retailerAddress];\n        delete retailerDetails[manufacturerToRetailerDetails[msg.sender][_retailerAddress].publicAddress];\n    }\n\n    function storeQrHash(string memory _qrHash) external onlyManufacturer{\n        require(manufacturerDetails[msg.sender].isVerified, \"manufacturer is not verified\");\n        uint256 timestamp = block.timestamp;\n        emit qrHashStored(timestamp);\n\n        qrHashMapByManufacturer[msg.sender][timestamp] = _qrHash;\n        manufacturerIDHashArr.push(timestamp);\n        storedIDs[timestamp] = true;\n    }\n\n    function deleteQrHash(uint _blockId) external {\n        // onlyManufacturer\n        emit qrHashDeleted(_blockId);\n        delete qrHashMapByManufacturer[msg.sender][_blockId];\n        delete manufacturerIDHashArr[_blockId];\n        delete storedIDs[_blockId];\n    }\n\n    /// @dev returns manufacturer address array to the frontend\n    function getManufacturerArray()\n        external\n        view\n        returns (address[] memory)\n    {\n        //onlyManufacturer\n        \n        return manufactureAddressArray;\n    }\n\n    function getManufacturer(address _manPublicAddress)\n        public\n        view\n        returns (\n            address manPublicAddress,\n            string memory email,\n            string memory fullName,\n            string memory brand,\n            string memory licenseUri,\n            string memory country,\n            string memory region,\n            string memory state,\n            bool agreement,\n            bool isVerified \n        )       \n    {\n        //onlyManufacturer\n        \n        Manufacturer memory manufacturer = manufacturerDetails[_manPublicAddress];\n        manPublicAddress = manufacturer.manPublicAddress;\n        email = manufacturer.email;\n        fullName = manufacturer.fullName;\n        brand = manufacturer.brand;\n        licenseUri = manufacturer.licenseUri;\n        country = manufacturer.country;\n        region = manufacturer.region;\n        state = manufacturer.state;\n        agreement = manufacturer.agreement;\n        isVerified = manufacturer.isVerified;\n\n    }\n\n    /// @dev returns qrcodeHash array to the manufacturer frontend\n    function getManfItemIDList()\n        external\n        view\n        returns (uint256[] memory)\n    {\n        //onlyManufacturer\n        \n        return manufacturerIDHashArr;\n    }\n\n    /// @dev !! views qrcodeHash and ID one by one. Used when manf wants to match stored ids & hashes to every item\n    function getQrHashAndID(address _manPublicAddress, uint256 _blockId)\n        public\n        view\n        returns (string memory qrHash, uint256 blockId)\n    {\n        //onlyManufacturer\n        \n        qrHash = qrHashMapByManufacturer[_manPublicAddress][_blockId];\n        blockId = _blockId;\n\n    }\n\n    /*@dev matches the stored hashes to each item & returns a bool for evidence */\n    function addItemDetails(\n        string memory _qrHash,\n        uint256 _blockId,\n        string memory _itemName,\n        string memory _description\n    ) external onlyManufacturer{\n        require(compareStrings(qrHashMapByManufacturer[msg.sender][_blockId],_qrHash),\"Hash isn't stored\");\n        require(matchedItems[_qrHash] = true, \"ID is already matched\");\n        require(storedIDs[_blockId] == true, \"ID isn't stored\");\n        require(bytes(_itemName).length > 0, \"Item name cannot be empty\");\n        require(bytes(_description).length > 0, \"Description cannot be empty\");\n\n        emit ItemAdded_M(_blockId);\n        emit ItemDetailsUpdated_M(_blockId, _itemName, _description);\n        emit ItemRecorded_M(_blockId);\n\n        matchHashToId[_qrHash] = _blockId; //update by matching\n        matchedItems[_qrHash] = true;\n\n        itemDetails[_blockId] = ItemDetails(_itemName, _description);\n    }\n\n    function scanItem(string memory _qrHash) external view returns (bool) {\n        if (matchedItems[_qrHash]) {\n            return true;\n        } else {\n            return false;\n        }\n    }\n\n    function moreDetailsForScannedItem(\n        string memory _qrHash\n    ) external view returns (ItemDetails memory) {\n        uint id = matchHashToId[_qrHash];\n        return itemDetails[id];\n    }\n\n    // Cannot directly compare strings in Solidity\n    // This function hashes the 2 strings and then compares the 2 hashes\n    function compareStrings(\n        string memory a,\n        string memory b\n    ) internal pure returns (bool) {\n        return keccak256(abi.encodePacked(a)) == keccak256(abi.encodePacked(b));\n    }\n}",
  "sourcePath": "/home/temba/fake product identification blockchain-based System/contracts/QrCode.sol",
  "compiler": {
    "name": "solc",
    "version": "0.8.19+commit.7dd6d404.Emscripten.clang"
  },
  "schemaVersion": "3.4.16",
  "updatedAt": "2024-03-26T14:17:53.218Z",
  "networkType": "ethereum",
  "devdoc": {
    "kind": "dev",
    "methods": {
      "getManfItemIDList()": {
        "details": "returns qrcodeHash array to the manufacturer frontend"
      },
      "getManufacturerArray()": {
        "details": "returns manufacturer address array to the frontend"
      },
      "getQrHashAndID(address,uint256)": {
        "details": "!! views qrcodeHash and ID one by one. Used when manf wants to match stored ids & hashes to every item"
      },
      "signUpManufacturer(address,string,string,string,string,string,string,string,bool,string)": {
        "details": "Manufacturer functions"
      }
    },
    "version": 1
  },
  "userdoc": {
    "kind": "user",
    "methods": {},
    "version": 1
  }
}