{
  "contractName": "QrCodeCompare",
  "abi": [
    {
      "inputs": [],
      "stateMutability": "nonpayable",
      "type": "constructor"
    },
    {
      "anonymous": false,
      "inputs": [
        {
          "indexed": true,
          "internalType": "uint256",
          "name": "id",
          "type": "uint256"
        }
      ],
      "name": "ItemAdded",
      "type": "event"
    },
    {
      "anonymous": false,
      "inputs": [
        {
          "indexed": true,
          "internalType": "uint256",
          "name": "id",
          "type": "uint256"
        },
        {
          "indexed": false,
          "internalType": "string",
          "name": "itemName",
          "type": "string"
        },
        {
          "indexed": false,
          "internalType": "string",
          "name": "description",
          "type": "string"
        }
      ],
      "name": "ItemDetailsUpdated",
      "type": "event"
    },
    {
      "anonymous": false,
      "inputs": [
        {
          "indexed": true,
          "internalType": "uint256",
          "name": "id",
          "type": "uint256"
        }
      ],
      "name": "ItemRecorded",
      "type": "event"
    },
    {
      "anonymous": false,
      "inputs": [
        {
          "indexed": true,
          "internalType": "address",
          "name": "manufacturer",
          "type": "address"
        }
      ],
      "name": "ManufacturerAdded",
      "type": "event"
    },
    {
      "anonymous": false,
      "inputs": [
        {
          "indexed": true,
          "internalType": "address",
          "name": "retailer",
          "type": "address"
        }
      ],
      "name": "RetailerAdded",
      "type": "event"
    },
    {
      "anonymous": false,
      "inputs": [
        {
          "indexed": true,
          "internalType": "address",
          "name": "retailer",
          "type": "address"
        }
      ],
      "name": "RetailerRemoved",
      "type": "event"
    },
    {
      "inputs": [
        {
          "internalType": "uint256",
          "name": "",
          "type": "uint256"
        }
      ],
      "name": "itemDetails",
      "outputs": [
        {
          "internalType": "string",
          "name": "itemName",
          "type": "string"
        },
        {
          "internalType": "string",
          "name": "description",
          "type": "string"
        }
      ],
      "stateMutability": "view",
      "type": "function"
    },
    {
      "inputs": [
        {
          "internalType": "address",
          "name": "",
          "type": "address"
        }
      ],
      "name": "manufacturerDetails",
      "outputs": [
        {
          "internalType": "address",
          "name": "manufacturer",
          "type": "address"
        },
        {
          "internalType": "string",
          "name": "name",
          "type": "string"
        },
        {
          "internalType": "string",
          "name": "location",
          "type": "string"
        },
        {
          "internalType": "string",
          "name": "email",
          "type": "string"
        },
        {
          "internalType": "uint256",
          "name": "phoneNumber",
          "type": "uint256"
        },
        {
          "internalType": "bool",
          "name": "isSignedUp",
          "type": "bool"
        }
      ],
      "stateMutability": "view",
      "type": "function"
    },
    {
      "inputs": [
        {
          "internalType": "address",
          "name": "",
          "type": "address"
        },
        {
          "internalType": "address",
          "name": "",
          "type": "address"
        }
      ],
      "name": "manufacturerToRetailerDetails",
      "outputs": [
        {
          "internalType": "address",
          "name": "retailer",
          "type": "address"
        },
        {
          "internalType": "uint256",
          "name": "retailerID",
          "type": "uint256"
        },
        {
          "internalType": "string",
          "name": "name",
          "type": "string"
        },
        {
          "internalType": "string",
          "name": "location",
          "type": "string"
        },
        {
          "internalType": "string",
          "name": "email",
          "type": "string"
        },
        {
          "internalType": "uint256",
          "name": "phoneNumber",
          "type": "uint256"
        }
      ],
      "stateMutability": "view",
      "type": "function"
    },
    {
      "inputs": [],
      "name": "owner",
      "outputs": [
        {
          "internalType": "address",
          "name": "",
          "type": "address"
        }
      ],
      "stateMutability": "view",
      "type": "function"
    },
    {
      "inputs": [
        {
          "internalType": "uint256",
          "name": "",
          "type": "uint256"
        }
      ],
      "name": "qrHashArr",
      "outputs": [
        {
          "internalType": "uint256",
          "name": "",
          "type": "uint256"
        }
      ],
      "stateMutability": "view",
      "type": "function"
    },
    {
      "inputs": [
        {
          "internalType": "string",
          "name": "",
          "type": "string"
        }
      ],
      "name": "recordedItems",
      "outputs": [
        {
          "internalType": "bool",
          "name": "",
          "type": "bool"
        }
      ],
      "stateMutability": "view",
      "type": "function"
    },
    {
      "inputs": [
        {
          "internalType": "string",
          "name": "",
          "type": "string"
        }
      ],
      "name": "retailerDetails",
      "outputs": [
        {
          "internalType": "address",
          "name": "retailer",
          "type": "address"
        },
        {
          "internalType": "uint256",
          "name": "retailerID",
          "type": "uint256"
        },
        {
          "internalType": "string",
          "name": "name",
          "type": "string"
        },
        {
          "internalType": "string",
          "name": "location",
          "type": "string"
        },
        {
          "internalType": "string",
          "name": "email",
          "type": "string"
        },
        {
          "internalType": "uint256",
          "name": "phoneNumber",
          "type": "uint256"
        }
      ],
      "stateMutability": "view",
      "type": "function"
    },
    {
      "inputs": [
        {
          "internalType": "address",
          "name": "",
          "type": "address"
        }
      ],
      "name": "sysOwnerMap",
      "outputs": [
        {
          "internalType": "address",
          "name": "sysOwner",
          "type": "address"
        },
        {
          "internalType": "string",
          "name": "password",
          "type": "string"
        },
        {
          "internalType": "bool",
          "name": "isLogin",
          "type": "bool"
        }
      ],
      "stateMutability": "view",
      "type": "function"
    },
    {
      "inputs": [],
      "name": "sysowner",
      "outputs": [
        {
          "internalType": "address",
          "name": "sysOwner",
          "type": "address"
        },
        {
          "internalType": "string",
          "name": "password",
          "type": "string"
        },
        {
          "internalType": "bool",
          "name": "isLogin",
          "type": "bool"
        }
      ],
      "stateMutability": "view",
      "type": "function"
    },
    {
      "inputs": [
        {
          "internalType": "address",
          "name": "_address",
          "type": "address"
        }
      ],
      "name": "transerOwership",
      "outputs": [],
      "stateMutability": "nonpayable",
      "type": "function"
    },
    {
      "inputs": [
        {
          "internalType": "string",
          "name": "_manfName",
          "type": "string"
        },
        {
          "internalType": "string",
          "name": "_location",
          "type": "string"
        },
        {
          "internalType": "string",
          "name": "_email",
          "type": "string"
        },
        {
          "internalType": "uint256",
          "name": "_phoneNumber",
          "type": "uint256"
        }
      ],
      "name": "signUp",
      "outputs": [],
      "stateMutability": "nonpayable",
      "type": "function"
    },
    {
      "inputs": [
        {
          "internalType": "string",
          "name": "_password",
          "type": "string"
        }
      ],
      "name": "loginSysOwner",
      "outputs": [],
      "stateMutability": "nonpayable",
      "type": "function"
    },
    {
      "inputs": [
        {
          "internalType": "string",
          "name": "_qrHash",
          "type": "string"
        }
      ],
      "name": "storeQrHash",
      "outputs": [],
      "stateMutability": "nonpayable",
      "type": "function"
    },
    {
      "inputs": [],
      "name": "getQrHashList",
      "outputs": [
        {
          "internalType": "uint256[]",
          "name": "",
          "type": "uint256[]"
        }
      ],
      "stateMutability": "view",
      "type": "function"
    },
    {
      "inputs": [
        {
          "internalType": "uint256",
          "name": "_indeId",
          "type": "uint256"
        }
      ],
      "name": "getQrHash",
      "outputs": [
        {
          "internalType": "string",
          "name": "_qrHash",
          "type": "string"
        }
      ],
      "stateMutability": "view",
      "type": "function"
    },
    {
      "inputs": [
        {
          "internalType": "address",
          "name": "_retailer",
          "type": "address"
        },
        {
          "internalType": "string",
          "name": "_name",
          "type": "string"
        },
        {
          "internalType": "string",
          "name": "_location",
          "type": "string"
        },
        {
          "internalType": "string",
          "name": "_email",
          "type": "string"
        },
        {
          "internalType": "uint256",
          "name": "_phoneNumber",
          "type": "uint256"
        }
      ],
      "name": "addRetailerInfo",
      "outputs": [],
      "stateMutability": "nonpayable",
      "type": "function"
    },
    {
      "inputs": [
        {
          "internalType": "address",
          "name": "_retailer",
          "type": "address"
        }
      ],
      "name": "removeRetailer",
      "outputs": [],
      "stateMutability": "nonpayable",
      "type": "function"
    },
    {
      "inputs": [
        {
          "internalType": "string",
          "name": "_qrHash",
          "type": "string"
        },
        {
          "internalType": "string",
          "name": "_itemName",
          "type": "string"
        },
        {
          "internalType": "string",
          "name": "_description",
          "type": "string"
        }
      ],
      "name": "addItemDetails",
      "outputs": [],
      "stateMutability": "nonpayable",
      "type": "function"
    },
    {
      "inputs": [
        {
          "internalType": "string",
          "name": "_qrHash",
          "type": "string"
        }
      ],
      "name": "scanItem",
      "outputs": [
        {
          "internalType": "bool",
          "name": "",
          "type": "bool"
        }
      ],
      "stateMutability": "view",
      "type": "function"
    }
  ],
  "bytecode": "0x60806040523480156200001157600080fd5b50336000806101000a81548173ffffffffffffffffffffffffffffffffffffffff021916908373ffffffffffffffffffffffffffffffffffffffff160217905550604051806060016040528060008054906101000a900473ffffffffffffffffffffffffffffffffffffffff1673ffffffffffffffffffffffffffffffffffffffff1681526020016040518060400160405280600581526020017f61646d696e000000000000000000000000000000000000000000000000000000815250815260200160001515815250600b60008201518160000160006101000a81548173ffffffffffffffffffffffffffffffffffffffff021916908373ffffffffffffffffffffffffffffffffffffffff16021790555060208201518160010190816200013b9190620004ef565b5060408201518160020160006101000a81548160ff021916908315150217905550905050600b600960008060009054906101000a900473ffffffffffffffffffffffffffffffffffffffff1673ffffffffffffffffffffffffffffffffffffffff1673ffffffffffffffffffffffffffffffffffffffff1681526020019081526020016000206000820160009054906101000a900473ffffffffffffffffffffffffffffffffffffffff168160000160006101000a81548173ffffffffffffffffffffffffffffffffffffffff021916908373ffffffffffffffffffffffffffffffffffffffff160217905550600182018160010190816200023e9190620005ee565b506002820160009054906101000a900460ff168160020160006101000a81548160ff021916908315150217905550905050620006ef565b600081519050919050565b7f4e487b7100000000000000000000000000000000000000000000000000000000600052604160045260246000fd5b7f4e487b7100000000000000000000000000000000000000000000000000000000600052602260045260246000fd5b60006002820490506001821680620002f757607f821691505b6020821081036200030d576200030c620002af565b5b50919050565b60008190508160005260206000209050919050565b60006020601f8301049050919050565b600082821b905092915050565b600060088302620003777fffffffffffffffffffffffffffffffffffffffffffffffffffffffffffffffff8262000338565b62000383868362000338565b95508019841693508086168417925050509392505050565b6000819050919050565b6000819050919050565b6000620003d0620003ca620003c4846200039b565b620003a5565b6200039b565b9050919050565b6000819050919050565b620003ec83620003af565b62000404620003fb82620003d7565b84845462000345565b825550505050565b600090565b6200041b6200040c565b62000428818484620003e1565b505050565b5b8181101562000450576200044460008262000411565b6001810190506200042e565b5050565b601f8211156200049f57620004698162000313565b620004748462000328565b8101602085101562000484578190505b6200049c620004938562000328565b8301826200042d565b50505b505050565b600082821c905092915050565b6000620004c460001984600802620004a4565b1980831691505092915050565b6000620004df8383620004b1565b9150826002028217905092915050565b620004fa8262000275565b67ffffffffffffffff81111562000516576200051562000280565b5b620005228254620002de565b6200052f82828562000454565b600060209050601f83116001811462000567576000841562000552578287015190505b6200055e8582620004d1565b865550620005ce565b601f198416620005778662000313565b60005b82811015620005a1578489015182556001820191506020850194506020810190506200057a565b86831015620005c15784890151620005bd601f891682620004b1565b8355505b6001600288020188555050505b505050505050565b600081549050620005e781620002de565b9050919050565b818103620005fe575050620006ed565b6200060982620005d6565b67ffffffffffffffff81111562000625576200062462000280565b5b620006318254620002de565b6200063e82828562000454565b6000601f8311600181146200067257600084156200065d578287015490505b620006698582620004d1565b865550620006e6565b601f198416620006828762000313565b96506200068f8662000313565b60005b82811015620006b95784890154825560018201915060018501945060208101905062000692565b86831015620006d95784890154620006d5601f891682620004b1565b8355505b6001600288020188555050505b5050505050505b565b6131a380620006ff6000396000f3fe608060405234801561001057600080fd5b50600436106101215760003560e01c80638fd6a8cf116100ad578063e382bf7011610071578063e382bf7014610337578063e38483a314610367578063ef4834f814610383578063f3b21854146103b5578063fe244c37146103d357610121565b80638fd6a8cf146102755780639793dbf3146102aa578063bd5128cc146102c6578063de5df398146102e2578063e32a4e461461031757610121565b8063477c74c1116100f4578063477c74c1146101d35780636030775e146101ef57806370099ec81461021f57806385ff2fd21461023b5780638da5cb5b1461025757610121565b80631fb4e3f01461012657806324f2fc0c146101575780633dd1023d146101875780634329550c146101a3575b600080fd5b610140600480360381019061013b9190611feb565b610408565b60405161014e9291906120a8565b60405180910390f35b610171600480360381019061016c9190611feb565b61053c565b60405161017e91906120ee565b60405180910390f35b6101a1600480360381019061019c919061223e565b610560565b005b6101bd60048036038101906101b8919061223e565b61075f565b6040516101ca91906122a2565b60405180910390f35b6101ed60048036038101906101e891906122bd565b610795565b005b6102096004803603810190610204919061223e565b61096b565b60405161021691906122a2565b60405180910390f35b610239600480360381019061023491906123c2565b6109b1565b005b610255600480360381019061025091906123ef565b610d80565b005b61025f611047565b60405161026c91906124b9565b60405180910390f35b61028f600480360381019061028a919061223e565b61106b565b6040516102a1969594939291906124d4565b60405180910390f35b6102c460048036038101906102bf91906123c2565b611275565b005b6102e060048036038101906102db919061254a565b611346565b005b6102fc60048036038101906102f79190612619565b61175e565b60405161030e969594939291906124d4565b60405180910390f35b61031f61195f565b60405161032e93929190612659565b60405180910390f35b610351600480360381019061034c9190611feb565b611a2c565b60405161035e9190612697565b60405180910390f35b610381600480360381019061037c919061223e565b611ad1565b005b61039d600480360381019061039891906123c2565b611bb3565b6040516103ac93929190612659565b60405180910390f35b6103bd611c92565b6040516103ca9190612777565b60405180910390f35b6103ed60048036038101906103e891906123c2565b611cea565b6040516103ff96959493929190612799565b60405180910390f35b600660205280600052604060002060009150905080600001805461042b9061283e565b80601f01602080910402602001604051908101604052809291908181526020018280546104579061283e565b80156104a45780601f10610479576101008083540402835291602001916104a4565b820191906000526020600020905b81548152906001019060200180831161048757829003601f168201915b5050505050908060010180546104b99061283e565b80601f01602080910402602001604051908101604052809291908181526020018280546104e59061283e565b80156105325780601f1061050757610100808354040283529160200191610532565b820191906000526020600020905b81548152906001019060200180831161051557829003601f168201915b5050505050905082565b600a818154811061054c57600080fd5b906000526020600020016000915090505481565b60008054906101000a900473ffffffffffffffffffffffffffffffffffffffff1673ffffffffffffffffffffffffffffffffffffffff163373ffffffffffffffffffffffffffffffffffffffff16146105ee576040517f08c379a00000000000000000000000000000000000000000000000000000000081526004016105e5906128e1565b60405180910390fd5b6106c2600960003373ffffffffffffffffffffffffffffffffffffffff1673ffffffffffffffffffffffffffffffffffffffff168152602001908152602001600020600101805461063e9061283e565b80601f016020809104026020016040519081016040528092919081815260200182805461066a9061283e565b80156106b75780601f1061068c576101008083540402835291602001916106b7565b820191906000526020600020905b81548152906001019060200180831161069a57829003601f168201915b505050505082611eeb565b610701576040517f08c379a00000000000000000000000000000000000000000000000000000000081526004016106f890612973565b60405180910390fd5b6001600960003373ffffffffffffffffffffffffffffffffffffffff1673ffffffffffffffffffffffffffffffffffffffff16815260200190815260200160002060020160006101000a81548160ff02191690831515021790555050565b6007818051602081018201805184825260208301602085012081835280955050505050506000915054906101000a900460ff1681565b600360003373ffffffffffffffffffffffffffffffffffffffff1673ffffffffffffffffffffffffffffffffffffffff16815260200190815260200160002060050160009054906101000a900460ff16610824576040517f08c379a000000000000000000000000000000000000000000000000000000000815260040161081b90612a05565b60405180910390fd5b6002547f186760a37e06b130959978c68b5c592841caf4f64de1dc960b2c54cf454ca9dd60405160405180910390a26002547fc40b4fd4fc7e11f0a3b712073e4ccb984f6ba0dc1a6b95bf2e84d3dcd301115e83836040516108879291906120a8565b60405180910390a26002547ff0a826a8cafb62b616a6fcc2766fcfb5293f3fd1b47f06610616b9a948ba08d760405160405180910390a2600260008154809291906108d190612a54565b919050555060405180604001604052808381526020018281525060066000600254815260200190815260200160002060008201518160000190816109159190612c48565b50602082015181600101908161092b9190612c48565b5090505060016007846040516109419190612d56565b908152602001604051809103902060006101000a81548160ff021916908315150217905550505050565b600060078260405161097d9190612d56565b908152602001604051809103902060009054906101000a900460ff16156109a757600190506109ac565b600090505b919050565b600360003373ffffffffffffffffffffffffffffffffffffffff1673ffffffffffffffffffffffffffffffffffffffff16815260200190815260200160002060050160009054906101000a900460ff16610a40576040517f08c379a0000000000000000000000000000000000000000000000000000000008152600401610a3790612a05565b60405180910390fd5b600073ffffffffffffffffffffffffffffffffffffffff16600460003373ffffffffffffffffffffffffffffffffffffffff1673ffffffffffffffffffffffffffffffffffffffff16815260200190815260200160002060008373ffffffffffffffffffffffffffffffffffffffff1673ffffffffffffffffffffffffffffffffffffffff16815260200190815260200160002060000160009054906101000a900473ffffffffffffffffffffffffffffffffffffffff1673ffffffffffffffffffffffffffffffffffffffff1603610b4e576040517f08c379a0000000000000000000000000000000000000000000000000000000008152600401610b4590612db9565b60405180910390fd5b8073ffffffffffffffffffffffffffffffffffffffff167fdb7176e79cffef81cb01767dd0447a0b24bb72ca9778d4b245581086b2a7e6db60405160405180910390a2600460003373ffffffffffffffffffffffffffffffffffffffff1673ffffffffffffffffffffffffffffffffffffffff16815260200190815260200160002060008273ffffffffffffffffffffffffffffffffffffffff1673ffffffffffffffffffffffffffffffffffffffff168152602001908152602001600020600080820160006101000a81549073ffffffffffffffffffffffffffffffffffffffff02191690556001820160009055600282016000610c4d9190611f44565b600382016000610c5d9190611f44565b600482016000610c6d9190611f44565b600582016000905550506005600460003373ffffffffffffffffffffffffffffffffffffffff1673ffffffffffffffffffffffffffffffffffffffff16815260200190815260200160002060008373ffffffffffffffffffffffffffffffffffffffff1673ffffffffffffffffffffffffffffffffffffffff168152602001908152602001600020600201604051610d059190612e5c565b9081526020016040518091039020600080820160006101000a81549073ffffffffffffffffffffffffffffffffffffffff02191690556001820160009055600282016000610d539190611f44565b600382016000610d639190611f44565b600482016000610d739190611f44565b6005820160009055505050565b600073ffffffffffffffffffffffffffffffffffffffff163373ffffffffffffffffffffffffffffffffffffffff1603610def576040517f08c379a0000000000000000000000000000000000000000000000000000000008152600401610de690612ebf565b60405180910390fd5b600360003373ffffffffffffffffffffffffffffffffffffffff1673ffffffffffffffffffffffffffffffffffffffff16815260200190815260200160002060050160009054906101000a900460ff1615610e7f576040517f08c379a0000000000000000000000000000000000000000000000000000000008152600401610e7690612f51565b60405180910390fd5b6000845111610ec3576040517f08c379a0000000000000000000000000000000000000000000000000000000008152600401610eba90612fe3565b60405180910390fd5b3373ffffffffffffffffffffffffffffffffffffffff167f561138658ca49a8540dc70dcfe64c9026c1c5b9344642242dd6562970f9c127860405160405180910390a26040518060c001604052803373ffffffffffffffffffffffffffffffffffffffff16815260200185815260200184815260200183815260200182815260200160011515815250600360003373ffffffffffffffffffffffffffffffffffffffff1673ffffffffffffffffffffffffffffffffffffffff16815260200190815260200160002060008201518160000160006101000a81548173ffffffffffffffffffffffffffffffffffffffff021916908373ffffffffffffffffffffffffffffffffffffffff1602179055506020820151816001019081610fe79190612c48565b506040820151816002019081610ffd9190612c48565b5060608201518160030190816110139190612c48565b506080820151816004015560a08201518160050160006101000a81548160ff02191690831515021790555090505050505050565b60008054906101000a900473ffffffffffffffffffffffffffffffffffffffff1681565b6005818051602081018201805184825260208301602085012081835280955050505050506000915090508060000160009054906101000a900473ffffffffffffffffffffffffffffffffffffffff16908060010154908060020180546110d09061283e565b80601f01602080910402602001604051908101604052809291908181526020018280546110fc9061283e565b80156111495780601f1061111e57610100808354040283529160200191611149565b820191906000526020600020905b81548152906001019060200180831161112c57829003601f168201915b50505050509080600301805461115e9061283e565b80601f016020809104026020016040519081016040528092919081815260200182805461118a9061283e565b80156111d75780601f106111ac576101008083540402835291602001916111d7565b820191906000526020600020905b8154815290600101906020018083116111ba57829003601f168201915b5050505050908060040180546111ec9061283e565b80601f01602080910402602001604051908101604052809291908181526020018280546112189061283e565b80156112655780601f1061123a57610100808354040283529160200191611265565b820191906000526020600020905b81548152906001019060200180831161124857829003601f168201915b5050505050908060050154905086565b60008054906101000a900473ffffffffffffffffffffffffffffffffffffffff1673ffffffffffffffffffffffffffffffffffffffff163373ffffffffffffffffffffffffffffffffffffffff1614611303576040517f08c379a00000000000000000000000000000000000000000000000000000000081526004016112fa906128e1565b60405180910390fd5b806000806101000a81548173ffffffffffffffffffffffffffffffffffffffff021916908373ffffffffffffffffffffffffffffffffffffffff16021790555050565b600360003373ffffffffffffffffffffffffffffffffffffffff1673ffffffffffffffffffffffffffffffffffffffff16815260200190815260200160002060050160009054906101000a900460ff166113d5576040517f08c379a00000000000000000000000000000000000000000000000000000000081526004016113cc90612a05565b60405180910390fd5b600073ffffffffffffffffffffffffffffffffffffffff168573ffffffffffffffffffffffffffffffffffffffff1603611444576040517f08c379a000000000000000000000000000000000000000000000000000000000815260040161143b9061304f565b60405180910390fd5b8473ffffffffffffffffffffffffffffffffffffffff167f71ae26cad02663e3d92efd6ec56031a80d74a20c0ab4183faa8bf262261c9baa60405160405180910390a26001600081548092919061149a90612a54565b91905055506040518060c001604052808673ffffffffffffffffffffffffffffffffffffffff168152602001600154815260200185815260200184815260200183815260200182815250600460003373ffffffffffffffffffffffffffffffffffffffff1673ffffffffffffffffffffffffffffffffffffffff16815260200190815260200160002060008773ffffffffffffffffffffffffffffffffffffffff1673ffffffffffffffffffffffffffffffffffffffff16815260200190815260200160002060008201518160000160006101000a81548173ffffffffffffffffffffffffffffffffffffffff021916908373ffffffffffffffffffffffffffffffffffffffff1602179055506020820151816001015560408201518160020190816115c69190612c48565b5060608201518160030190816115dc9190612c48565b5060808201518160040190816115f29190612c48565b5060a08201518160050155905050600460003373ffffffffffffffffffffffffffffffffffffffff1673ffffffffffffffffffffffffffffffffffffffff16815260200190815260200160002060008673ffffffffffffffffffffffffffffffffffffffff1673ffffffffffffffffffffffffffffffffffffffff16815260200190815260200160002060058560405161168c9190612d56565b90815260200160405180910390206000820160009054906101000a900473ffffffffffffffffffffffffffffffffffffffff168160000160006101000a81548173ffffffffffffffffffffffffffffffffffffffff021916908373ffffffffffffffffffffffffffffffffffffffff160217905550600182015481600101556002820181600201908161171f9190613085565b50600382018160030190816117349190613085565b50600482018160040190816117499190613085565b50600582015481600501559050505050505050565b6004602052816000526040600020602052806000526040600020600091509150508060000160009054906101000a900473ffffffffffffffffffffffffffffffffffffffff16908060010154908060020180546117ba9061283e565b80601f01602080910402602001604051908101604052809291908181526020018280546117e69061283e565b80156118335780601f1061180857610100808354040283529160200191611833565b820191906000526020600020905b81548152906001019060200180831161181657829003601f168201915b5050505050908060030180546118489061283e565b80601f01602080910402602001604051908101604052809291908181526020018280546118749061283e565b80156118c15780601f10611896576101008083540402835291602001916118c1565b820191906000526020600020905b8154815290600101906020018083116118a457829003601f168201915b5050505050908060040180546118d69061283e565b80601f01602080910402602001604051908101604052809291908181526020018280546119029061283e565b801561194f5780601f106119245761010080835404028352916020019161194f565b820191906000526020600020905b81548152906001019060200180831161193257829003601f168201915b5050505050908060050154905086565b600b8060000160009054906101000a900473ffffffffffffffffffffffffffffffffffffffff16908060010180546119969061283e565b80601f01602080910402602001604051908101604052809291908181526020018280546119c29061283e565b8015611a0f5780601f106119e457610100808354040283529160200191611a0f565b820191906000526020600020905b8154815290600101906020018083116119f257829003601f168201915b5050505050908060020160009054906101000a900460ff16905083565b6060600860008381526020019081526020016000208054611a4c9061283e565b80601f0160208091040260200160405190810160405280929190818152602001828054611a789061283e565b8015611ac55780601f10611a9a57610100808354040283529160200191611ac5565b820191906000526020600020905b815481529060010190602001808311611aa857829003601f168201915b50505050509050919050565b600360003373ffffffffffffffffffffffffffffffffffffffff1673ffffffffffffffffffffffffffffffffffffffff16815260200190815260200160002060050160009054906101000a900460ff16611b60576040517f08c379a0000000000000000000000000000000000000000000000000000000008152600401611b5790612a05565b60405180910390fd5b600042905081600860008381526020019081526020016000209081611b859190612c48565b50600a8190806001815401808255809150506001900390600052602060002001600090919091909150555050565b60096020528060005260406000206000915090508060000160009054906101000a900473ffffffffffffffffffffffffffffffffffffffff1690806001018054611bfc9061283e565b80601f0160208091040260200160405190810160405280929190818152602001828054611c289061283e565b8015611c755780601f10611c4a57610100808354040283529160200191611c75565b820191906000526020600020905b815481529060010190602001808311611c5857829003601f168201915b5050505050908060020160009054906101000a900460ff16905083565b6060600a805480602002602001604051908101604052809291908181526020018280548015611ce057602002820191906000526020600020905b815481526020019060010190808311611ccc575b5050505050905090565b60036020528060005260406000206000915090508060000160009054906101000a900473ffffffffffffffffffffffffffffffffffffffff1690806001018054611d339061283e565b80601f0160208091040260200160405190810160405280929190818152602001828054611d5f9061283e565b8015611dac5780601f10611d8157610100808354040283529160200191611dac565b820191906000526020600020905b815481529060010190602001808311611d8f57829003601f168201915b505050505090806002018054611dc19061283e565b80601f0160208091040260200160405190810160405280929190818152602001828054611ded9061283e565b8015611e3a5780601f10611e0f57610100808354040283529160200191611e3a565b820191906000526020600020905b815481529060010190602001808311611e1d57829003601f168201915b505050505090806003018054611e4f9061283e565b80601f0160208091040260200160405190810160405280929190818152602001828054611e7b9061283e565b8015611ec85780601f10611e9d57610100808354040283529160200191611ec8565b820191906000526020600020905b815481529060010190602001808311611eab57829003601f168201915b5050505050908060040154908060050160009054906101000a900460ff16905086565b600081604051602001611efe9190612d56565b6040516020818303038152906040528051906020012083604051602001611f259190612d56565b6040516020818303038152906040528051906020012014905092915050565b508054611f509061283e565b6000825580601f10611f625750611f81565b601f016020900490600052602060002090810190611f809190611f84565b5b50565b5b80821115611f9d576000816000905550600101611f85565b5090565b6000604051905090565b600080fd5b600080fd5b6000819050919050565b611fc881611fb5565b8114611fd357600080fd5b50565b600081359050611fe581611fbf565b92915050565b60006020828403121561200157612000611fab565b5b600061200f84828501611fd6565b91505092915050565b600081519050919050565b600082825260208201905092915050565b60005b83811015612052578082015181840152602081019050612037565b60008484015250505050565b6000601f19601f8301169050919050565b600061207a82612018565b6120848185612023565b9350612094818560208601612034565b61209d8161205e565b840191505092915050565b600060408201905081810360008301526120c2818561206f565b905081810360208301526120d6818461206f565b90509392505050565b6120e881611fb5565b82525050565b600060208201905061210360008301846120df565b92915050565b600080fd5b600080fd5b7f4e487b7100000000000000000000000000000000000000000000000000000000600052604160045260246000fd5b61214b8261205e565b810181811067ffffffffffffffff8211171561216a57612169612113565b5b80604052505050565b600061217d611fa1565b90506121898282612142565b919050565b600067ffffffffffffffff8211156121a9576121a8612113565b5b6121b28261205e565b9050602081019050919050565b82818337600083830152505050565b60006121e16121dc8461218e565b612173565b9050828152602081018484840111156121fd576121fc61210e565b5b6122088482856121bf565b509392505050565b600082601f83011261222557612224612109565b5b81356122358482602086016121ce565b91505092915050565b60006020828403121561225457612253611fab565b5b600082013567ffffffffffffffff81111561227257612271611fb0565b5b61227e84828501612210565b91505092915050565b60008115159050919050565b61229c81612287565b82525050565b60006020820190506122b76000830184612293565b92915050565b6000806000606084860312156122d6576122d5611fab565b5b600084013567ffffffffffffffff8111156122f4576122f3611fb0565b5b61230086828701612210565b935050602084013567ffffffffffffffff81111561232157612320611fb0565b5b61232d86828701612210565b925050604084013567ffffffffffffffff81111561234e5761234d611fb0565b5b61235a86828701612210565b9150509250925092565b600073ffffffffffffffffffffffffffffffffffffffff82169050919050565b600061238f82612364565b9050919050565b61239f81612384565b81146123aa57600080fd5b50565b6000813590506123bc81612396565b92915050565b6000602082840312156123d8576123d7611fab565b5b60006123e6848285016123ad565b91505092915050565b6000806000806080858703121561240957612408611fab565b5b600085013567ffffffffffffffff81111561242757612426611fb0565b5b61243387828801612210565b945050602085013567ffffffffffffffff81111561245457612453611fb0565b5b61246087828801612210565b935050604085013567ffffffffffffffff81111561248157612480611fb0565b5b61248d87828801612210565b925050606061249e87828801611fd6565b91505092959194509250565b6124b381612384565b82525050565b60006020820190506124ce60008301846124aa565b92915050565b600060c0820190506124e960008301896124aa565b6124f660208301886120df565b8181036040830152612508818761206f565b9050818103606083015261251c818661206f565b90508181036080830152612530818561206f565b905061253f60a08301846120df565b979650505050505050565b600080600080600060a0868803121561256657612565611fab565b5b6000612574888289016123ad565b955050602086013567ffffffffffffffff81111561259557612594611fb0565b5b6125a188828901612210565b945050604086013567ffffffffffffffff8111156125c2576125c1611fb0565b5b6125ce88828901612210565b935050606086013567ffffffffffffffff8111156125ef576125ee611fb0565b5b6125fb88828901612210565b925050608061260c88828901611fd6565b9150509295509295909350565b600080604083850312156126305761262f611fab565b5b600061263e858286016123ad565b925050602061264f858286016123ad565b9150509250929050565b600060608201905061266e60008301866124aa565b8181036020830152612680818561206f565b905061268f6040830184612293565b949350505050565b600060208201905081810360008301526126b1818461206f565b905092915050565b600081519050919050565b600082825260208201905092915050565b6000819050602082019050919050565b6126ee81611fb5565b82525050565b600061270083836126e5565b60208301905092915050565b6000602082019050919050565b6000612724826126b9565b61272e81856126c4565b9350612739836126d5565b8060005b8381101561276a57815161275188826126f4565b975061275c8361270c565b92505060018101905061273d565b5085935050505092915050565b600060208201905081810360008301526127918184612719565b905092915050565b600060c0820190506127ae60008301896124aa565b81810360208301526127c0818861206f565b905081810360408301526127d4818761206f565b905081810360608301526127e8818661206f565b90506127f760808301856120df565b61280460a0830184612293565b979650505050505050565b7f4e487b7100000000000000000000000000000000000000000000000000000000600052602260045260246000fd5b6000600282049050600182168061285657607f821691505b6020821081036128695761286861280f565b5b50919050565b7f4f6e6c792073797374656d206f776e65722063616e20706572666f726d20746860008201527f697320616374696f6e0000000000000000000000000000000000000000000000602082015250565b60006128cb602983612023565b91506128d68261286f565b604082019050919050565b600060208201905081810360008301526128fa816128be565b9050919050565b7f496e76616c69642070617373776f7264206f66206163636f756e74206164647260008201527f6573730000000000000000000000000000000000000000000000000000000000602082015250565b600061295d602383612023565b915061296882612901565b604082019050919050565b6000602082019050818103600083015261298c81612950565b9050919050565b7f4f6e6c79206d616e7566616374757265722063616e206164642072657461696c60008201527f65722064657461696c7300000000000000000000000000000000000000000000602082015250565b60006129ef602a83612023565b91506129fa82612993565b604082019050919050565b60006020820190508181036000830152612a1e816129e2565b9050919050565b7f4e487b7100000000000000000000000000000000000000000000000000000000600052601160045260246000fd5b6000612a5f82611fb5565b91507fffffffffffffffffffffffffffffffffffffffffffffffffffffffffffffffff8203612a9157612a90612a25565b5b600182019050919050565b60008190508160005260206000209050919050565b60006020601f8301049050919050565b600082821b905092915050565b600060088302612afe7fffffffffffffffffffffffffffffffffffffffffffffffffffffffffffffffff82612ac1565b612b088683612ac1565b95508019841693508086168417925050509392505050565b6000819050919050565b6000612b45612b40612b3b84611fb5565b612b20565b611fb5565b9050919050565b6000819050919050565b612b5f83612b2a565b612b73612b6b82612b4c565b848454612ace565b825550505050565b600090565b612b88612b7b565b612b93818484612b56565b505050565b5b81811015612bb757612bac600082612b80565b600181019050612b99565b5050565b601f821115612bfc57612bcd81612a9c565b612bd684612ab1565b81016020851015612be5578190505b612bf9612bf185612ab1565b830182612b98565b50505b505050565b600082821c905092915050565b6000612c1f60001984600802612c01565b1980831691505092915050565b6000612c388383612c0e565b9150826002028217905092915050565b612c5182612018565b67ffffffffffffffff811115612c6a57612c69612113565b5b612c74825461283e565b612c7f828285612bbb565b600060209050601f831160018114612cb25760008415612ca0578287015190505b612caa8582612c2c565b865550612d12565b601f198416612cc086612a9c565b60005b82811015612ce857848901518255600182019150602085019450602081019050612cc3565b86831015612d055784890151612d01601f891682612c0e565b8355505b6001600288020188555050505b505050505050565b600081905092915050565b6000612d3082612018565b612d3a8185612d1a565b9350612d4a818560208601612034565b80840191505092915050565b6000612d628284612d25565b915081905092915050565b7f52657461696c6572206e6f7420666f756e640000000000000000000000000000600082015250565b6000612da3601283612023565b9150612dae82612d6d565b602082019050919050565b60006020820190508181036000830152612dd281612d96565b9050919050565b60008154612de68161283e565b612df08186612d1a565b94506001821660008114612e0b5760018114612e2057612e53565b60ff1983168652811515820286019350612e53565b612e2985612a9c565b60005b83811015612e4b57815481890152600182019150602081019050612e2c565b838801955050505b50505092915050565b6000612e688284612dd9565b915081905092915050565b7f41646472657373206e6f742076616c6964000000000000000000000000000000600082015250565b6000612ea9601183612023565b9150612eb482612e73565b602082019050919050565b60006020820190508181036000830152612ed881612e9c565b9050919050565b7f4d616e75666163747572657220697320616c726561647920726567697374657260008201527f6564000000000000000000000000000000000000000000000000000000000000602082015250565b6000612f3b602283612023565b9150612f4682612edf565b604082019050919050565b60006020820190508181036000830152612f6a81612f2e565b9050919050565b7f4d616e756661637475726572206e616d652063616e6e6f7420626520656d707460008201527f7900000000000000000000000000000000000000000000000000000000000000602082015250565b6000612fcd602183612023565b9150612fd882612f71565b604082019050919050565b60006020820190508181036000830152612ffc81612fc0565b9050919050565b7f52657461696c657220616464726573732063616e6e6f74206265207a65726f00600082015250565b6000613039601f83612023565b915061304482613003565b602082019050919050565b600060208201905081810360008301526130688161302c565b9050919050565b60008154905061307e8161283e565b9050919050565b81810361309357505061316b565b61309c8261306f565b67ffffffffffffffff8111156130b5576130b4612113565b5b6130bf825461283e565b6130ca828285612bbb565b6000601f8311600181146130f957600084156130e7578287015490505b6130f18582612c2c565b865550613164565b601f19841661310787612a9c565b965061311286612a9c565b60005b8281101561313a57848901548255600182019150600185019450602081019050613115565b868310156131575784890154613153601f891682612c0e565b8355505b6001600288020188555050505b5050505050505b56fea264697066735822122024efa2bb997383ca00e8ad8a49451e87c95379b13a9fb19eaf274f1e4a14b33464736f6c63430008130033",
  "immutableReferences": {},
  "source": "// SPDX-License-Identifier: MIT\npragma solidity ^0.8.19;\n\ncontract QrCodeCompare {\n    event ManufacturerAdded(address indexed manufacturer);\n    event RetailerAdded(address indexed retailer);\n    event RetailerRemoved(address indexed retailer);\n    event ItemAdded(uint256 indexed id);\n    event ItemDetailsUpdated(uint256 indexed id, string itemName, string description);\n    event ItemRecorded(uint256 indexed id);\n    // event ItemNotFound(string qrHash);\n\n    struct Manufacturer {\n        address manufacturer;\n        string name;\n        string location;\n        string email;\n        uint256 phoneNumber;\n        bool isSignedUp;\n    }\n\n    struct Retailer {\n        address retailer;\n        uint256 retailerID;\n        string name;\n        string location;\n        string email;\n        uint256 phoneNumber;\n    }\n\n    struct ItemDetails {\n        string itemName;\n        string description;\n    }\n\n    //@dev Josephat create system account structure\n    struct SystemOwner {\n        address sysOwner;\n        string password;\n        bool isLogin;\n    }\n\n    address public owner;\n    uint256 private s_retailerID;\n    uint256 private item_ID;\n\n    mapping(address => Manufacturer) public manufacturerDetails;\n    mapping(address => mapping(address => Retailer)) public manufacturerToRetailerDetails;\n    mapping(string => Retailer) public retailerDetails;\n\n    // mapping(address => mapping(string => uint256)) public identifiers;\n    // mapping(string => uint256) public hashToId;\n    mapping(uint256 => ItemDetails) public itemDetails;\n    mapping(string => bool) public recordedItems;\n\n    //@dev Josephat mapping\n    mapping(uint256 => string) private qrHashMap;\n    mapping(address => SystemOwner) public sysOwnerMap;\n\n    //@dev Josephat array\n    uint256[] public qrHashArr;\n\n    SystemOwner public sysowner;\n\n    constructor() {\n        owner = msg.sender;\n        sysowner = SystemOwner(owner, \"admin\", false);\n        sysOwnerMap[owner] = sysowner;\n    }\n\n    //@dev Josephat only owner condition\n    modifier onlySysOwner() {\n        require(msg.sender == owner, \"Only system owner can perform this action\");\n        _;\n    }\n\n    modifier onlyManufacturer() {\n        require(\n            manufacturerDetails[msg.sender].isSignedUp,\n            \"Only manufacturer can add retailer details\"\n        );\n        _;\n    }\n\n    // @dev Josephat transfer sysOwnership\n    function transerOwership(address _address) external onlySysOwner {\n        owner = _address;\n    }\n\n    function signUp(\n        string memory _manfName,\n        string memory _location,\n        string memory _email,\n        uint256 _phoneNumber\n    ) external {\n        require(msg.sender != address(0), \"Address not valid\");\n        require(!manufacturerDetails[msg.sender].isSignedUp, \"Manufacturer is already registered\");\n        require(bytes(_manfName).length > 0, \"Manufacturer name cannot be empty\");\n\n        emit ManufacturerAdded(msg.sender);\n        manufacturerDetails[msg.sender] = Manufacturer(\n            msg.sender,\n            _manfName,\n            _location,\n            _email,\n            _phoneNumber,\n            true\n        );\n    }\n\n    //@dev Josephat login system for system owner\n    function loginSysOwner(string memory _password) external onlySysOwner {\n        require(\n            compareString(sysOwnerMap[msg.sender].password,_password),\n            \"Invalid password of account address\"\n        );\n        sysOwnerMap[msg.sender].isLogin = true;\n    }\n\n    //@dev Josephat function to store data to the array storeQrHash executed by only manufacturer\n    function storeQrHash(string memory _qrHash) external onlyManufacturer {\n        uint timestamp = block.timestamp;\n        qrHashMap[timestamp] = _qrHash;\n        qrHashArr.push(timestamp);\n    }\n\n    //@dev Josephat function to return qrcodeHash array to the manufacturer frontend\n    function getQrHashList() external view returns (uint256[] memory) {\n        return qrHashArr;\n    }\n\n    //@dev Josephat function to view qrcodeHash one by one\n    function getQrHash(uint256 _indeId) external view returns (string memory _qrHash) {\n        _qrHash = qrHashMap[_indeId];\n    }\n\n    function addRetailerInfo(\n        address _retailer,\n        string memory _name,\n        string memory _location,\n        string memory _email,\n        uint256 _phoneNumber\n    ) external onlyManufacturer {\n        require(_retailer != address(0), \"Retailer address cannot be zero\");\n        emit RetailerAdded(_retailer);\n        s_retailerID++;\n        manufacturerToRetailerDetails[msg.sender][_retailer] = Retailer(\n            _retailer,\n            s_retailerID,\n            _name,\n            _location,\n            _email,\n            _phoneNumber\n        );\n        retailerDetails[_name] = manufacturerToRetailerDetails[msg.sender][_retailer];\n    }\n\n    function removeRetailer(address _retailer) external onlyManufacturer {\n        require(\n            manufacturerToRetailerDetails[msg.sender][_retailer].retailer != address(0),\n            \"Retailer not found\"\n        );\n        emit RetailerRemoved(_retailer);\n        delete manufacturerToRetailerDetails[msg.sender][_retailer];\n        delete retailerDetails[manufacturerToRetailerDetails[msg.sender][_retailer].name];\n    }\n\n    function addItemDetails(\n        string memory _qrHash,\n        string memory _itemName,\n        string memory _description\n    ) external onlyManufacturer {\n        // require(identifiers[msg.sender][_qrHash] == 0, \"Identifier already exists\");\n        // require(hashToId[_qrHash] == 0, \"Identifier already exists\");\n        // require(!recordedItems[_qrHash], \"Item already recorded\");\n        // require(bytes(_itemName).length > 0, \"Item name cannot be empty\");\n        // require(bytes(_description).length > 0, \"Description cannot be empty\");\n\n        emit ItemAdded(item_ID);\n        emit ItemDetailsUpdated(item_ID, _itemName, _description);\n        emit ItemRecorded(item_ID);\n\n        item_ID++;\n        // identifiers[msg.sender][_qrHash] = item_ID;\n        // hashToId[_qrHash] = item_ID;\n        itemDetails[item_ID] = ItemDetails(_itemName, _description);\n        recordedItems[_qrHash] = true;\n    }\n\n    // function getItemIdentifier(string memory _qrHash) public view returns (uint256) {\n    //     return hashToId[_qrHash];\n    // }\n\n    function scanItem(string memory _qrHash) external view returns (bool) {\n        if (recordedItems[_qrHash]) {\n            // return itemDetails[getItemIdentifier(_qrHash)];\n            return true;\n        } else {\n            // emit ItemNotFound(_qrHash);\n            // return ItemDetails(\"\", \"\");\n            return false;\n        }\n    }\n\n    function compareString(string memory _a, string memory _b) internal pure returns(bool) {\n        return keccak256(abi.encodePacked(_a)) == keccak256(abi.encodePacked(_b));\n    }\n}\n",
  "sourcePath": "/home/temba/fake product identification blockchain-based System/contracts/QrCodeCompare.sol",
  "compiler": {
    "name": "solc",
    "version": "0.8.19+commit.7dd6d404.Emscripten.clang"
  },
  "schemaVersion": "3.4.16",
  "updatedAt": "2024-03-22T22:42:28.222Z",
  "devdoc": {
    "kind": "dev",
    "methods": {},
    "version": 1
  },
  "userdoc": {
    "kind": "user",
    "methods": {},
    "version": 1
  }
}