{
  "contractName": "QrCode",
  "abi": [
    {
      "inputs": [],
      "stateMutability": "nonpayable",
      "type": "constructor"
    },
    {
      "anonymous": false,
      "inputs": [
        {
          "indexed": true,
          "internalType": "uint256",
          "name": "id",
          "type": "uint256"
        }
      ],
      "name": "ItemAdded_M",
      "type": "event"
    },
    {
      "anonymous": false,
      "inputs": [
        {
          "indexed": true,
          "internalType": "uint256",
          "name": "id",
          "type": "uint256"
        },
        {
          "indexed": false,
          "internalType": "string",
          "name": "itemName",
          "type": "string"
        },
        {
          "indexed": false,
          "internalType": "string",
          "name": "description",
          "type": "string"
        }
      ],
      "name": "ItemDetailsUpdated_M",
      "type": "event"
    },
    {
      "anonymous": false,
      "inputs": [
        {
          "indexed": true,
          "internalType": "uint256",
          "name": "id",
          "type": "uint256"
        }
      ],
      "name": "ItemRecorded_M",
      "type": "event"
    },
    {
      "anonymous": false,
      "inputs": [
        {
          "indexed": true,
          "internalType": "address",
          "name": "manufacturer",
          "type": "address"
        }
      ],
      "name": "ManufacturerAdded",
      "type": "event"
    },
    {
      "anonymous": false,
      "inputs": [
        {
          "indexed": true,
          "internalType": "address",
          "name": "admin",
          "type": "address"
        }
      ],
      "name": "PasswordChanged",
      "type": "event"
    },
    {
      "anonymous": false,
      "inputs": [
        {
          "indexed": false,
          "internalType": "string",
          "name": "retailer",
          "type": "string"
        }
      ],
      "name": "RetailerAdded",
      "type": "event"
    },
    {
      "anonymous": false,
      "inputs": [
        {
          "indexed": true,
          "internalType": "uint256",
          "name": "retailerID",
          "type": "uint256"
        }
      ],
      "name": "RetailerRemoved",
      "type": "event"
    },
    {
      "anonymous": false,
      "inputs": [
        {
          "indexed": true,
          "internalType": "address",
          "name": "newAdmin",
          "type": "address"
        }
      ],
      "name": "ownershipTransferred",
      "type": "event"
    },
    {
      "anonymous": false,
      "inputs": [
        {
          "indexed": false,
          "internalType": "uint256",
          "name": "_blockId",
          "type": "uint256"
        }
      ],
      "name": "qrHashDeleted",
      "type": "event"
    },
    {
      "anonymous": false,
      "inputs": [
        {
          "indexed": true,
          "internalType": "uint256",
          "name": "timestamp",
          "type": "uint256"
        }
      ],
      "name": "qrHashStored",
      "type": "event"
    },
    {
      "inputs": [
        {
          "internalType": "uint256",
          "name": "",
          "type": "uint256"
        }
      ],
      "name": "itemDetails",
      "outputs": [
        {
          "internalType": "string",
          "name": "itemName",
          "type": "string"
        },
        {
          "internalType": "string",
          "name": "description",
          "type": "string"
        }
      ],
      "stateMutability": "view",
      "type": "function"
    },
    {
      "inputs": [
        {
          "internalType": "address",
          "name": "",
          "type": "address"
        }
      ],
      "name": "manufacturerDetails",
      "outputs": [
        {
          "internalType": "address",
          "name": "manufacturer",
          "type": "address"
        },
        {
          "internalType": "string",
          "name": "name",
          "type": "string"
        },
        {
          "internalType": "string",
          "name": "location",
          "type": "string"
        },
        {
          "internalType": "string",
          "name": "email",
          "type": "string"
        },
        {
          "internalType": "string",
          "name": "phoneNumber",
          "type": "string"
        },
        {
          "internalType": "bytes32",
          "name": "password",
          "type": "bytes32"
        },
        {
          "internalType": "bool",
          "name": "isSignedUp",
          "type": "bool"
        }
      ],
      "stateMutability": "view",
      "type": "function"
    },
    {
      "inputs": [
        {
          "internalType": "address",
          "name": "",
          "type": "address"
        },
        {
          "internalType": "uint256",
          "name": "",
          "type": "uint256"
        }
      ],
      "name": "manufacturerToRetailerDetails",
      "outputs": [
        {
          "internalType": "uint256",
          "name": "retailerID",
          "type": "uint256"
        },
        {
          "internalType": "string",
          "name": "name",
          "type": "string"
        },
        {
          "internalType": "string",
          "name": "location",
          "type": "string"
        },
        {
          "internalType": "string",
          "name": "email",
          "type": "string"
        },
        {
          "internalType": "string",
          "name": "phoneNumber",
          "type": "string"
        }
      ],
      "stateMutability": "view",
      "type": "function"
    },
    {
      "inputs": [
        {
          "internalType": "string",
          "name": "",
          "type": "string"
        }
      ],
      "name": "matchHashToId",
      "outputs": [
        {
          "internalType": "uint256",
          "name": "",
          "type": "uint256"
        }
      ],
      "stateMutability": "view",
      "type": "function"
    },
    {
      "inputs": [
        {
          "internalType": "string",
          "name": "",
          "type": "string"
        }
      ],
      "name": "matchedItems",
      "outputs": [
        {
          "internalType": "bool",
          "name": "",
          "type": "bool"
        }
      ],
      "stateMutability": "view",
      "type": "function"
    },
    {
      "inputs": [
        {
          "internalType": "string",
          "name": "",
          "type": "string"
        }
      ],
      "name": "retailerDetails",
      "outputs": [
        {
          "internalType": "uint256",
          "name": "retailerID",
          "type": "uint256"
        },
        {
          "internalType": "string",
          "name": "name",
          "type": "string"
        },
        {
          "internalType": "string",
          "name": "location",
          "type": "string"
        },
        {
          "internalType": "string",
          "name": "email",
          "type": "string"
        },
        {
          "internalType": "string",
          "name": "phoneNumber",
          "type": "string"
        }
      ],
      "stateMutability": "view",
      "type": "function"
    },
    {
      "inputs": [],
      "name": "s_retailerID",
      "outputs": [
        {
          "internalType": "uint256",
          "name": "",
          "type": "uint256"
        }
      ],
      "stateMutability": "view",
      "type": "function"
    },
    {
      "inputs": [
        {
          "internalType": "bytes32",
          "name": "_password",
          "type": "bytes32"
        }
      ],
      "name": "loginSysOwner",
      "outputs": [],
      "stateMutability": "nonpayable",
      "type": "function"
    },
    {
      "inputs": [
        {
          "internalType": "bytes32",
          "name": "oldPassword",
          "type": "bytes32"
        },
        {
          "internalType": "bytes32",
          "name": "_newPassword",
          "type": "bytes32"
        }
      ],
      "name": "changePassword",
      "outputs": [],
      "stateMutability": "nonpayable",
      "type": "function"
    },
    {
      "inputs": [
        {
          "internalType": "address",
          "name": "_address",
          "type": "address"
        }
      ],
      "name": "transferOwnership",
      "outputs": [],
      "stateMutability": "nonpayable",
      "type": "function"
    },
    {
      "inputs": [
        {
          "internalType": "string",
          "name": "_manfName",
          "type": "string"
        },
        {
          "internalType": "string",
          "name": "_location",
          "type": "string"
        },
        {
          "internalType": "string",
          "name": "_email",
          "type": "string"
        },
        {
          "internalType": "string",
          "name": "_phoneNumber",
          "type": "string"
        },
        {
          "internalType": "bytes32",
          "name": "_password",
          "type": "bytes32"
        }
      ],
      "name": "signUp",
      "outputs": [],
      "stateMutability": "nonpayable",
      "type": "function"
    },
    {
      "inputs": [
        {
          "internalType": "string",
          "name": "_name",
          "type": "string"
        },
        {
          "internalType": "string",
          "name": "_location",
          "type": "string"
        },
        {
          "internalType": "string",
          "name": "_email",
          "type": "string"
        },
        {
          "internalType": "string",
          "name": "_phoneNumber",
          "type": "string"
        }
      ],
      "name": "addRetailerInfo",
      "outputs": [],
      "stateMutability": "nonpayable",
      "type": "function"
    },
    {
      "inputs": [
        {
          "internalType": "uint256",
          "name": "_retailerID",
          "type": "uint256"
        }
      ],
      "name": "removeRetailer",
      "outputs": [],
      "stateMutability": "nonpayable",
      "type": "function"
    },
    {
      "inputs": [
        {
          "internalType": "string",
          "name": "_qrHash",
          "type": "string"
        }
      ],
      "name": "storeQrHash",
      "outputs": [],
      "stateMutability": "nonpayable",
      "type": "function"
    },
    {
      "inputs": [
        {
          "internalType": "uint256",
          "name": "_blockId",
          "type": "uint256"
        }
      ],
      "name": "deleteQrHash",
      "outputs": [],
      "stateMutability": "nonpayable",
      "type": "function"
    },
    {
      "inputs": [],
      "name": "getManfItemIDList",
      "outputs": [
        {
          "internalType": "uint256[]",
          "name": "",
          "type": "uint256[]"
        }
      ],
      "stateMutability": "view",
      "type": "function"
    },
    {
      "inputs": [
        {
          "internalType": "string",
          "name": "_qrHash",
          "type": "string"
        },
        {
          "internalType": "uint256",
          "name": "_blockId",
          "type": "uint256"
        },
        {
          "internalType": "string",
          "name": "_itemName",
          "type": "string"
        },
        {
          "internalType": "string",
          "name": "_description",
          "type": "string"
        }
      ],
      "name": "addItemDetails",
      "outputs": [],
      "stateMutability": "nonpayable",
      "type": "function"
    },
    {
      "inputs": [
        {
          "internalType": "string",
          "name": "_qrHash",
          "type": "string"
        }
      ],
      "name": "scanItem",
      "outputs": [
        {
          "internalType": "bool",
          "name": "",
          "type": "bool"
        }
      ],
      "stateMutability": "view",
      "type": "function"
    },
    {
      "inputs": [
        {
          "internalType": "string",
          "name": "_qrHash",
          "type": "string"
        }
      ],
      "name": "moreDetailsForScannedItem",
      "outputs": [
        {
          "components": [
            {
              "internalType": "string",
              "name": "itemName",
              "type": "string"
            },
            {
              "internalType": "string",
              "name": "description",
              "type": "string"
            }
          ],
          "internalType": "struct QrCode.ItemDetails",
          "name": "",
          "type": "tuple"
        }
      ],
      "stateMutability": "view",
      "type": "function"
    }
  ],
  "bytecode": "0x60806040523480156200001157600080fd5b50336000806101000a81548173ffffffffffffffffffffffffffffffffffffffff021916908373ffffffffffffffffffffffffffffffffffffffff160217905550604051806060016040528060008054906101000a900473ffffffffffffffffffffffffffffffffffffffff1673ffffffffffffffffffffffffffffffffffffffff168152602001604051602001620000aa90620002ac565b60405160208183030381529060405280519060200120815260200160001515815250600160008201518160000160006101000a81548173ffffffffffffffffffffffffffffffffffffffff021916908373ffffffffffffffffffffffffffffffffffffffff1602179055506020820151816001015560408201518160020160006101000a81548160ff0219169083151502179055509050506001600560008060009054906101000a900473ffffffffffffffffffffffffffffffffffffffff1673ffffffffffffffffffffffffffffffffffffffff1673ffffffffffffffffffffffffffffffffffffffff1681526020019081526020016000206000820160009054906101000a900473ffffffffffffffffffffffffffffffffffffffff168160000160006101000a81548173ffffffffffffffffffffffffffffffffffffffff021916908373ffffffffffffffffffffffffffffffffffffffff160217905550600182015481600101556002820160009054906101000a900460ff168160020160006101000a81548160ff021916908315150217905550905050620002ce565b600082825260208201905092915050565b7f61646d696e000000000000000000000000000000000000000000000000000000600082015250565b6000620002946005836200024b565b9150620002a1826200025c565b602082019050919050565b60006020820190508181036000830152620002c78162000285565b9050919050565b6146c280620002de6000396000f3fe608060405234801561001057600080fd5b50600436106101215760003560e01c806377f40e33116100ad578063e38483a311610071578063e38483a314610333578063e4145db11461034f578063f2fde38b1461036b578063fb262c3014610387578063fe244c37146103b757610121565b806377f40e33146102795780637a788e0a146102a95780638d11d5ff146102c75780638fd6a8cf146102e3578063b98da9a31461031757610121565b80632f5be861116100f45780632f5be861146101bf5780636030775e146101db578063656807951461020b5780636c3a98ae14610227578063748ae1071461024557610121565b80631bef85c0146101265780631fb4e3f014610156578063292785fc146101875780632bb9cd92146101a3575b600080fd5b610140600480360381019061013b9190612e9b565b6103ed565b60405161014d9190612fa7565b60405180910390f35b610170600480360381019061016b9190612fff565b610562565b60405161017e929190613076565b60405180910390f35b6101a1600480360381019061019c91906130e3565b610696565b005b6101bd60048036038101906101b89190613123565b610a52565b005b6101d960048036038101906101d491906131de565b610eab565b005b6101f560048036038101906101f09190612e9b565b6112bf565b60405161020291906132d0565b60405180910390f35b610225600480360381019061022091906132eb565b611305565b005b61022f61150a565b60405161023c9190613327565b60405180910390f35b61025f600480360381019061025a91906133a0565b611510565b6040516102709594939291906133e0565b60405180910390f35b610293600480360381019061028e9190612e9b565b611773565b6040516102a091906132d0565b60405180910390f35b6102b16117a9565b6040516102be919061350d565b60405180910390f35b6102e160048036038101906102dc9190612fff565b6118ff565b005b6102fd60048036038101906102f89190612e9b565b611ad8565b60405161030e9594939291906133e0565b60405180910390f35b610331600480360381019061032c9190612fff565b611d44565b005b61034d60048036038101906103489190612e9b565b61205d565b005b6103696004803603810190610364919061352f565b612244565b005b6103856004803603810190610380919061361a565b61272a565b005b6103a1600480360381019061039c9190612e9b565b6129b4565b6040516103ae9190613327565b60405180910390f35b6103d160048036038101906103cc919061361a565b6129e2565b6040516103e49796959493929190613665565b60405180910390f35b6103f5612cca565b6000600c83604051610407919061372c565b9081526020016040518091039020549050600e600082815260200190815260200160002060405180604001604052908160008201805461044690613772565b80601f016020809104026020016040519081016040528092919081815260200182805461047290613772565b80156104bf5780601f10610494576101008083540402835291602001916104bf565b820191906000526020600020905b8154815290600101906020018083116104a257829003601f168201915b505050505081526020016001820180546104d890613772565b80601f016020809104026020016040519081016040528092919081815260200182805461050490613772565b80156105515780601f1061052657610100808354040283529160200191610551565b820191906000526020600020905b81548152906001019060200180831161053457829003601f168201915b505050505081525050915050919050565b600e60205280600052604060002060009150905080600001805461058590613772565b80601f01602080910402602001604051908101604052809291908181526020018280546105b190613772565b80156105fe5780601f106105d3576101008083540402835291602001916105fe565b820191906000526020600020905b8154815290600101906020018083116105e157829003601f168201915b50505050509080600101805461061390613772565b80601f016020809104026020016040519081016040528092919081815260200182805461063f90613772565b801561068c5780601f106106615761010080835404028352916020019161068c565b820191906000526020600020905b81548152906001019060200180831161066f57829003601f168201915b5050505050905082565b60008054906101000a900473ffffffffffffffffffffffffffffffffffffffff1673ffffffffffffffffffffffffffffffffffffffff163373ffffffffffffffffffffffffffffffffffffffff1614610724576040517f08c379a000000000000000000000000000000000000000000000000000000000815260040161071b90613815565b60405180910390fd5b600073ffffffffffffffffffffffffffffffffffffffff163373ffffffffffffffffffffffffffffffffffffffff1603610793576040517f08c379a000000000000000000000000000000000000000000000000000000000815260040161078a90613815565b60405180910390fd5b816040516020016107a49190613835565b60405160208183030381529060405280519060200120600560003373ffffffffffffffffffffffffffffffffffffffff1673ffffffffffffffffffffffffffffffffffffffff168152602001908152602001600020600101541461083d576040517f08c379a00000000000000000000000000000000000000000000000000000000081526004016108349061389c565b60405180910390fd5b6000602060ff1611610884576040517f08c379a000000000000000000000000000000000000000000000000000000000815260040161087b90613908565b60405180910390fd5b806040516020016108959190613835565b60405160208183030381529060405280519060200120600560003373ffffffffffffffffffffffffffffffffffffffff1673ffffffffffffffffffffffffffffffffffffffff168152602001908152602001600020600101540361092e576040517f08c379a000000000000000000000000000000000000000000000000000000000815260040161092590613974565b60405180910390fd5b60011515600560003373ffffffffffffffffffffffffffffffffffffffff1673ffffffffffffffffffffffffffffffffffffffff16815260200190815260200160002060020160009054906101000a900460ff161515146109c4576040517f08c379a00000000000000000000000000000000000000000000000000000000081526004016109bb906139e0565b60405180910390fd5b3373ffffffffffffffffffffffffffffffffffffffff167f85a52c4d6d605a61db8affa2383ae4d5aeefe6f4363c35174504042b4a0ee9b660405160405180910390a280600560003373ffffffffffffffffffffffffffffffffffffffff1673ffffffffffffffffffffffffffffffffffffffff168152602001908152602001600020600101819055505050565b600660003373ffffffffffffffffffffffffffffffffffffffff1673ffffffffffffffffffffffffffffffffffffffff16815260200190815260200160002060060160009054906101000a900460ff16610ae1576040517f08c379a0000000000000000000000000000000000000000000000000000000008152600401610ad890613a72565b60405180910390fd5b600073ffffffffffffffffffffffffffffffffffffffff163373ffffffffffffffffffffffffffffffffffffffff1603610b50576040517f08c379a0000000000000000000000000000000000000000000000000000000008152600401610b4790613b04565b60405180910390fd5b610c32600960003373ffffffffffffffffffffffffffffffffffffffff1673ffffffffffffffffffffffffffffffffffffffff16815260200190815260200160002060008581526020019081526020016000208054610bae90613772565b80601f0160208091040260200160405190810160405280929190818152602001828054610bda90613772565b8015610c275780601f10610bfc57610100808354040283529160200191610c27565b820191906000526020600020905b815481529060010190602001808311610c0a57829003601f168201915b505050505085612c71565b610c71576040517f08c379a0000000000000000000000000000000000000000000000000000000008152600401610c6890613b70565b60405180910390fd5b60011515600b600085815260200190815260200160002060009054906101000a900460ff16151514610cd8576040517f08c379a0000000000000000000000000000000000000000000000000000000008152600401610ccf90613bdc565b60405180910390fd5b6000825111610d1c576040517f08c379a0000000000000000000000000000000000000000000000000000000008152600401610d1390613c48565b60405180910390fd5b6000815111610d60576040517f08c379a0000000000000000000000000000000000000000000000000000000008152600401610d5790613cb4565b60405180910390fd5b827f611520fe479942fc842c72a2974cc0bf4746653a8b34285ba197c7192fd4721d60405160405180910390a2827f63bcdba1660b19ba3aaaf6afe05409cc2811b84ad557ca33f7eda874ac3a89b08383604051610dbf929190613076565b60405180910390a2827f2c43e921afd657149a59b6382398172493954880204131eb2a51b2846890838960405160405180910390a282600c85604051610e05919061372c565b9081526020016040518091039020819055506001600d85604051610e29919061372c565b908152602001604051809103902060006101000a81548160ff021916908315150217905550604051806040016040528083815260200182815250600e60008581526020019081526020016000206000820151816000019081610e8b9190613e80565b506020820151816001019081610ea19190613e80565b5090505050505050565b600660003373ffffffffffffffffffffffffffffffffffffffff1673ffffffffffffffffffffffffffffffffffffffff16815260200190815260200160002060060160009054906101000a900460ff16610f3a576040517f08c379a0000000000000000000000000000000000000000000000000000000008152600401610f3190613a72565b60405180910390fd5b600073ffffffffffffffffffffffffffffffffffffffff163373ffffffffffffffffffffffffffffffffffffffff1603610fa9576040517f08c379a0000000000000000000000000000000000000000000000000000000008152600401610fa090613b04565b60405180910390fd5b6000845111610fed576040517f08c379a0000000000000000000000000000000000000000000000000000000008152600401610fe490613fc4565b60405180910390fd5b6000835111611031576040517f08c379a000000000000000000000000000000000000000000000000000000000815260040161102890614030565b60405180910390fd5b6000825111611075576040517f08c379a000000000000000000000000000000000000000000000000000000000815260040161106c9061409c565b60405180910390fd5b60008151116110b9576040517f08c379a00000000000000000000000000000000000000000000000000000000081526004016110b090614108565b60405180910390fd5b7f73d87f380e0a7b768520275cc06c6143276be057013aa419a14c7f88e47f915f846040516110e89190614128565b60405180910390a16004600081548092919061110390614179565b91905055506040518060a00160405280600454815260200185815260200184815260200183815260200182815250600760003373ffffffffffffffffffffffffffffffffffffffff1673ffffffffffffffffffffffffffffffffffffffff168152602001908152602001600020600060045481526020019081526020016000206000820151816000015560208201518160010190816111a29190613e80565b5060408201518160020190816111b89190613e80565b5060608201518160030190816111ce9190613e80565b5060808201518160040190816111e49190613e80565b50905050600760003373ffffffffffffffffffffffffffffffffffffffff1673ffffffffffffffffffffffffffffffffffffffff1681526020019081526020016000206000600454815260200190815260200160002060088560405161124a919061372c565b9081526020016040518091039020600082015481600001556001820181600101908161127691906141d7565b506002820181600201908161128b91906141d7565b50600382018160030190816112a091906141d7565b50600482018160040190816112b591906141d7565b5090505050505050565b6000600d826040516112d1919061372c565b908152602001604051809103902060009054906101000a900460ff16156112fb5760019050611300565b600090505b919050565b60008054906101000a900473ffffffffffffffffffffffffffffffffffffffff1673ffffffffffffffffffffffffffffffffffffffff163373ffffffffffffffffffffffffffffffffffffffff1614611393576040517f08c379a000000000000000000000000000000000000000000000000000000000815260040161138a90613815565b60405180910390fd5b600073ffffffffffffffffffffffffffffffffffffffff163373ffffffffffffffffffffffffffffffffffffffff1603611402576040517f08c379a00000000000000000000000000000000000000000000000000000000081526004016113f990613815565b60405180910390fd5b806040516020016114139190613835565b60405160208183030381529060405280519060200120600560003373ffffffffffffffffffffffffffffffffffffffff1673ffffffffffffffffffffffffffffffffffffffff16815260200190815260200160002060010154146114ac576040517f08c379a00000000000000000000000000000000000000000000000000000000081526004016114a390614331565b60405180910390fd5b6001600560003373ffffffffffffffffffffffffffffffffffffffff1673ffffffffffffffffffffffffffffffffffffffff16815260200190815260200160002060020160006101000a81548160ff02191690831515021790555050565b60045481565b60076020528160005260406000206020528060005260406000206000915091505080600001549080600101805461154690613772565b80601f016020809104026020016040519081016040528092919081815260200182805461157290613772565b80156115bf5780601f10611594576101008083540402835291602001916115bf565b820191906000526020600020905b8154815290600101906020018083116115a257829003601f168201915b5050505050908060020180546115d490613772565b80601f016020809104026020016040519081016040528092919081815260200182805461160090613772565b801561164d5780601f106116225761010080835404028352916020019161164d565b820191906000526020600020905b81548152906001019060200180831161163057829003601f168201915b50505050509080600301805461166290613772565b80601f016020809104026020016040519081016040528092919081815260200182805461168e90613772565b80156116db5780601f106116b0576101008083540402835291602001916116db565b820191906000526020600020905b8154815290600101906020018083116116be57829003601f168201915b5050505050908060040180546116f090613772565b80601f016020809104026020016040519081016040528092919081815260200182805461171c90613772565b80156117695780601f1061173e57610100808354040283529160200191611769565b820191906000526020600020905b81548152906001019060200180831161174c57829003601f168201915b5050505050905085565b600d818051602081018201805184825260208301602085012081835280955050505050506000915054906101000a900460ff1681565b6060600660003373ffffffffffffffffffffffffffffffffffffffff1673ffffffffffffffffffffffffffffffffffffffff16815260200190815260200160002060060160009054906101000a900460ff1661183a576040517f08c379a000000000000000000000000000000000000000000000000000000000815260040161183190613a72565b60405180910390fd5b600073ffffffffffffffffffffffffffffffffffffffff163373ffffffffffffffffffffffffffffffffffffffff16036118a9576040517f08c379a00000000000000000000000000000000000000000000000000000000081526004016118a090613b04565b60405180910390fd5b600a8054806020026020016040519081016040528092919081815260200182805480156118f557602002820191906000526020600020905b8154815260200190600101908083116118e1575b5050505050905090565b600660003373ffffffffffffffffffffffffffffffffffffffff1673ffffffffffffffffffffffffffffffffffffffff16815260200190815260200160002060060160009054906101000a900460ff1661198e576040517f08c379a000000000000000000000000000000000000000000000000000000000815260040161198590613a72565b60405180910390fd5b600073ffffffffffffffffffffffffffffffffffffffff163373ffffffffffffffffffffffffffffffffffffffff16036119fd576040517f08c379a00000000000000000000000000000000000000000000000000000000081526004016119f490613b04565b60405180910390fd5b7f4140c73226c8ea512653d2920a7fbe10a0c0fe3c5f07aee8be2cad8b2b9a772f81604051611a2c9190613327565b60405180910390a1600960003373ffffffffffffffffffffffffffffffffffffffff1673ffffffffffffffffffffffffffffffffffffffff16815260200190815260200160002060008281526020019081526020016000206000611a909190612ce4565b600a8181548110611aa457611aa3614351565b5b9060005260206000200160009055600b600082815260200190815260200160002060006101000a81549060ff021916905550565b600881805160208101820180518482526020830160208501208183528095505050505050600091509050806000015490806001018054611b1790613772565b80601f0160208091040260200160405190810160405280929190818152602001828054611b4390613772565b8015611b905780601f10611b6557610100808354040283529160200191611b90565b820191906000526020600020905b815481529060010190602001808311611b7357829003601f168201915b505050505090806002018054611ba590613772565b80601f0160208091040260200160405190810160405280929190818152602001828054611bd190613772565b8015611c1e5780601f10611bf357610100808354040283529160200191611c1e565b820191906000526020600020905b815481529060010190602001808311611c0157829003601f168201915b505050505090806003018054611c3390613772565b80601f0160208091040260200160405190810160405280929190818152602001828054611c5f90613772565b8015611cac5780601f10611c8157610100808354040283529160200191611cac565b820191906000526020600020905b815481529060010190602001808311611c8f57829003601f168201915b505050505090806004018054611cc190613772565b80601f0160208091040260200160405190810160405280929190818152602001828054611ced90613772565b8015611d3a5780601f10611d0f57610100808354040283529160200191611d3a565b820191906000526020600020905b815481529060010190602001808311611d1d57829003601f168201915b5050505050905085565b600660003373ffffffffffffffffffffffffffffffffffffffff1673ffffffffffffffffffffffffffffffffffffffff16815260200190815260200160002060060160009054906101000a900460ff16611dd3576040517f08c379a0000000000000000000000000000000000000000000000000000000008152600401611dca90613a72565b60405180910390fd5b600073ffffffffffffffffffffffffffffffffffffffff163373ffffffffffffffffffffffffffffffffffffffff1603611e42576040517f08c379a0000000000000000000000000000000000000000000000000000000008152600401611e3990613b04565b60405180910390fd5b80600760003373ffffffffffffffffffffffffffffffffffffffff1673ffffffffffffffffffffffffffffffffffffffff16815260200190815260200160002060008381526020019081526020016000206000015414611ed7576040517f08c379a0000000000000000000000000000000000000000000000000000000008152600401611ece906143cc565b60405180910390fd5b807faa7b178b937dc7e7342b585173f310ad8f355bfd84c1210e41c1f0c3edc7b4c960405160405180910390a2600760003373ffffffffffffffffffffffffffffffffffffffff1673ffffffffffffffffffffffffffffffffffffffff1681526020019081526020016000206000828152602001908152602001600020600080820160009055600182016000611f6d9190612ce4565b600282016000611f7d9190612ce4565b600382016000611f8d9190612ce4565b600482016000611f9d9190612ce4565b50506008600760003373ffffffffffffffffffffffffffffffffffffffff1673ffffffffffffffffffffffffffffffffffffffff1681526020019081526020016000206000838152602001908152602001600020600101604051612001919061446f565b90815260200160405180910390206000808201600090556001820160006120289190612ce4565b6002820160006120389190612ce4565b6003820160006120489190612ce4565b6004820160006120589190612ce4565b505050565b600660003373ffffffffffffffffffffffffffffffffffffffff1673ffffffffffffffffffffffffffffffffffffffff16815260200190815260200160002060060160009054906101000a900460ff166120ec576040517f08c379a00000000000000000000000000000000000000000000000000000000081526004016120e390613a72565b60405180910390fd5b600073ffffffffffffffffffffffffffffffffffffffff163373ffffffffffffffffffffffffffffffffffffffff160361215b576040517f08c379a000000000000000000000000000000000000000000000000000000000815260040161215290613b04565b60405180910390fd5b6000429050807f9376d1f5ae2781161467d7ecca7bb235a2f861272b40eca70ea487d3005004d060405160405180910390a281600960003373ffffffffffffffffffffffffffffffffffffffff1673ffffffffffffffffffffffffffffffffffffffff168152602001908152602001600020600083815260200190815260200160002090816121ea9190613e80565b50600a8190806001815401808255809150506001900390600052602060002001600090919091909150556001600b600083815260200190815260200160002060006101000a81548160ff0219169083151502179055505050565b600073ffffffffffffffffffffffffffffffffffffffff163373ffffffffffffffffffffffffffffffffffffffff16036122b3576040517f08c379a00000000000000000000000000000000000000000000000000000000081526004016122aa906144d2565b60405180910390fd5b60008054906101000a900473ffffffffffffffffffffffffffffffffffffffff1673ffffffffffffffffffffffffffffffffffffffff163373ffffffffffffffffffffffffffffffffffffffff1603612341576040517f08c379a000000000000000000000000000000000000000000000000000000000815260040161233890614564565b60405180910390fd5b600660003373ffffffffffffffffffffffffffffffffffffffff1673ffffffffffffffffffffffffffffffffffffffff16815260200190815260200160002060060160009054906101000a900460ff166123d0576040517f08c379a00000000000000000000000000000000000000000000000000000000081526004016123c7906145f6565b60405180910390fd5b6000855111612414576040517f08c379a000000000000000000000000000000000000000000000000000000000815260040161240b90613fc4565b60405180910390fd5b6000845111612458576040517f08c379a000000000000000000000000000000000000000000000000000000000815260040161244f90614030565b60405180910390fd5b600083511161249c576040517f08c379a00000000000000000000000000000000000000000000000000000000081526004016124939061409c565b60405180910390fd5b60008251116124e0576040517f08c379a00000000000000000000000000000000000000000000000000000000081526004016124d790614108565b60405180910390fd5b6000602060ff1611612527576040517f08c379a000000000000000000000000000000000000000000000000000000000815260040161251e9061409c565b60405180910390fd5b6000424460405160200161253c929190614637565b6040516020818303038152906040528051906020012060001c60001b90506000828260405160200161256f929190614663565b6040516020818303038152906040528051906020012090503373ffffffffffffffffffffffffffffffffffffffff167f561138658ca49a8540dc70dcfe64c9026c1c5b9344642242dd6562970f9c127860405160405180910390a26040518060e001604052803373ffffffffffffffffffffffffffffffffffffffff16815260200188815260200187815260200186815260200185815260200182815260200160011515815250600660003373ffffffffffffffffffffffffffffffffffffffff1673ffffffffffffffffffffffffffffffffffffffff16815260200190815260200160002060008201518160000160006101000a81548173ffffffffffffffffffffffffffffffffffffffff021916908373ffffffffffffffffffffffffffffffffffffffff16021790555060208201518160010190816126b19190613e80565b5060408201518160020190816126c79190613e80565b5060608201518160030190816126dd9190613e80565b5060808201518160040190816126f39190613e80565b5060a0820151816005015560c08201518160060160006101000a81548160ff02191690831515021790555090505050505050505050565b60008054906101000a900473ffffffffffffffffffffffffffffffffffffffff1673ffffffffffffffffffffffffffffffffffffffff163373ffffffffffffffffffffffffffffffffffffffff16146127b8576040517f08c379a00000000000000000000000000000000000000000000000000000000081526004016127af90613815565b60405180910390fd5b600073ffffffffffffffffffffffffffffffffffffffff163373ffffffffffffffffffffffffffffffffffffffff1603612827576040517f08c379a000000000000000000000000000000000000000000000000000000000815260040161281e90613815565b60405180910390fd5b600560008060009054906101000a900473ffffffffffffffffffffffffffffffffffffffff1673ffffffffffffffffffffffffffffffffffffffff1673ffffffffffffffffffffffffffffffffffffffff168152602001908152602001600020600080820160006101000a81549073ffffffffffffffffffffffffffffffffffffffff021916905560018201600090556002820160006101000a81549060ff021916905550508073ffffffffffffffffffffffffffffffffffffffff167fac9a252a3ed2d3fcc198677953ffe98ac492e191a4605978c655f8ce4ae8067660405160405180910390a2806000806101000a81548173ffffffffffffffffffffffffffffffffffffffff021916908373ffffffffffffffffffffffffffffffffffffffff160217905550600560008060009054906101000a900473ffffffffffffffffffffffffffffffffffffffff1673ffffffffffffffffffffffffffffffffffffffff1673ffffffffffffffffffffffffffffffffffffffff1681526020019081526020016000205050565b600c818051602081018201805184825260208301602085012081835280955050505050506000915090505481565b60066020528060005260406000206000915090508060000160009054906101000a900473ffffffffffffffffffffffffffffffffffffffff1690806001018054612a2b90613772565b80601f0160208091040260200160405190810160405280929190818152602001828054612a5790613772565b8015612aa45780601f10612a7957610100808354040283529160200191612aa4565b820191906000526020600020905b815481529060010190602001808311612a8757829003601f168201915b505050505090806002018054612ab990613772565b80601f0160208091040260200160405190810160405280929190818152602001828054612ae590613772565b8015612b325780601f10612b0757610100808354040283529160200191612b32565b820191906000526020600020905b815481529060010190602001808311612b1557829003601f168201915b505050505090806003018054612b4790613772565b80601f0160208091040260200160405190810160405280929190818152602001828054612b7390613772565b8015612bc05780601f10612b9557610100808354040283529160200191612bc0565b820191906000526020600020905b815481529060010190602001808311612ba357829003601f168201915b505050505090806004018054612bd590613772565b80601f0160208091040260200160405190810160405280929190818152602001828054612c0190613772565b8015612c4e5780601f10612c2357610100808354040283529160200191612c4e565b820191906000526020600020905b815481529060010190602001808311612c3157829003601f168201915b5050505050908060050154908060060160009054906101000a900460ff16905087565b600081604051602001612c84919061372c565b6040516020818303038152906040528051906020012083604051602001612cab919061372c565b6040516020818303038152906040528051906020012014905092915050565b604051806040016040528060608152602001606081525090565b508054612cf090613772565b6000825580601f10612d025750612d21565b601f016020900490600052602060002090810190612d209190612d24565b5b50565b5b80821115612d3d576000816000905550600101612d25565b5090565b6000604051905090565b600080fd5b600080fd5b600080fd5b600080fd5b6000601f19601f8301169050919050565b7f4e487b7100000000000000000000000000000000000000000000000000000000600052604160045260246000fd5b612da882612d5f565b810181811067ffffffffffffffff82111715612dc757612dc6612d70565b5b80604052505050565b6000612dda612d41565b9050612de68282612d9f565b919050565b600067ffffffffffffffff821115612e0657612e05612d70565b5b612e0f82612d5f565b9050602081019050919050565b82818337600083830152505050565b6000612e3e612e3984612deb565b612dd0565b905082815260208101848484011115612e5a57612e59612d5a565b5b612e65848285612e1c565b509392505050565b600082601f830112612e8257612e81612d55565b5b8135612e92848260208601612e2b565b91505092915050565b600060208284031215612eb157612eb0612d4b565b5b600082013567ffffffffffffffff811115612ecf57612ece612d50565b5b612edb84828501612e6d565b91505092915050565b600081519050919050565b600082825260208201905092915050565b60005b83811015612f1e578082015181840152602081019050612f03565b60008484015250505050565b6000612f3582612ee4565b612f3f8185612eef565b9350612f4f818560208601612f00565b612f5881612d5f565b840191505092915050565b60006040830160008301518482036000860152612f808282612f2a565b91505060208301518482036020860152612f9a8282612f2a565b9150508091505092915050565b60006020820190508181036000830152612fc18184612f63565b905092915050565b6000819050919050565b612fdc81612fc9565b8114612fe757600080fd5b50565b600081359050612ff981612fd3565b92915050565b60006020828403121561301557613014612d4b565b5b600061302384828501612fea565b91505092915050565b600082825260208201905092915050565b600061304882612ee4565b613052818561302c565b9350613062818560208601612f00565b61306b81612d5f565b840191505092915050565b60006040820190508181036000830152613090818561303d565b905081810360208301526130a4818461303d565b90509392505050565b6000819050919050565b6130c0816130ad565b81146130cb57600080fd5b50565b6000813590506130dd816130b7565b92915050565b600080604083850312156130fa576130f9612d4b565b5b6000613108858286016130ce565b9250506020613119858286016130ce565b9150509250929050565b6000806000806080858703121561313d5761313c612d4b565b5b600085013567ffffffffffffffff81111561315b5761315a612d50565b5b61316787828801612e6d565b945050602061317887828801612fea565b935050604085013567ffffffffffffffff81111561319957613198612d50565b5b6131a587828801612e6d565b925050606085013567ffffffffffffffff8111156131c6576131c5612d50565b5b6131d287828801612e6d565b91505092959194509250565b600080600080608085870312156131f8576131f7612d4b565b5b600085013567ffffffffffffffff81111561321657613215612d50565b5b61322287828801612e6d565b945050602085013567ffffffffffffffff81111561324357613242612d50565b5b61324f87828801612e6d565b935050604085013567ffffffffffffffff8111156132705761326f612d50565b5b61327c87828801612e6d565b925050606085013567ffffffffffffffff81111561329d5761329c612d50565b5b6132a987828801612e6d565b91505092959194509250565b60008115159050919050565b6132ca816132b5565b82525050565b60006020820190506132e560008301846132c1565b92915050565b60006020828403121561330157613300612d4b565b5b600061330f848285016130ce565b91505092915050565b61332181612fc9565b82525050565b600060208201905061333c6000830184613318565b92915050565b600073ffffffffffffffffffffffffffffffffffffffff82169050919050565b600061336d82613342565b9050919050565b61337d81613362565b811461338857600080fd5b50565b60008135905061339a81613374565b92915050565b600080604083850312156133b7576133b6612d4b565b5b60006133c58582860161338b565b92505060206133d685828601612fea565b9150509250929050565b600060a0820190506133f56000830188613318565b8181036020830152613407818761303d565b9050818103604083015261341b818661303d565b9050818103606083015261342f818561303d565b90508181036080830152613443818461303d565b90509695505050505050565b600081519050919050565b600082825260208201905092915050565b6000819050602082019050919050565b61348481612fc9565b82525050565b6000613496838361347b565b60208301905092915050565b6000602082019050919050565b60006134ba8261344f565b6134c4818561345a565b93506134cf8361346b565b8060005b838110156135005781516134e7888261348a565b97506134f2836134a2565b9250506001810190506134d3565b5085935050505092915050565b6000602082019050818103600083015261352781846134af565b905092915050565b600080600080600060a0868803121561354b5761354a612d4b565b5b600086013567ffffffffffffffff81111561356957613568612d50565b5b61357588828901612e6d565b955050602086013567ffffffffffffffff81111561359657613595612d50565b5b6135a288828901612e6d565b945050604086013567ffffffffffffffff8111156135c3576135c2612d50565b5b6135cf88828901612e6d565b935050606086013567ffffffffffffffff8111156135f0576135ef612d50565b5b6135fc88828901612e6d565b925050608061360d888289016130ce565b9150509295509295909350565b6000602082840312156136305761362f612d4b565b5b600061363e8482850161338b565b91505092915050565b61365081613362565b82525050565b61365f816130ad565b82525050565b600060e08201905061367a600083018a613647565b818103602083015261368c818961303d565b905081810360408301526136a0818861303d565b905081810360608301526136b4818761303d565b905081810360808301526136c8818661303d565b90506136d760a0830185613656565b6136e460c08301846132c1565b98975050505050505050565b600081905092915050565b600061370682612ee4565b61371081856136f0565b9350613720818560208601612f00565b80840191505092915050565b600061373882846136fb565b915081905092915050565b7f4e487b7100000000000000000000000000000000000000000000000000000000600052602260045260246000fd5b6000600282049050600182168061378a57607f821691505b60208210810361379d5761379c613743565b5b50919050565b7f4f6e6c792073797374656d206f776e65722063616e20706572666f726d20746860008201527f697320616374696f6e0000000000000000000000000000000000000000000000602082015250565b60006137ff60298361302c565b915061380a826137a3565b604082019050919050565b6000602082019050818103600083015261382e816137f2565b9050919050565b600060208201905061384a6000830184613656565b92915050565b7f496e76616c6964206f6c642070617373776f7264000000000000000000000000600082015250565b600061388660148361302c565b915061389182613850565b602082019050919050565b600060208201905081810360008301526138b581613879565b9050919050565b7f50617373776f72642073686f756c64206e6f7420626520656d70747900000000600082015250565b60006138f2601c8361302c565b91506138fd826138bc565b602082019050919050565b60006020820190508181036000830152613921816138e5565b9050919050565b7f496e76616c6964206e65772070617373776f7264000000000000000000000000600082015250565b600061395e60148361302c565b915061396982613928565b602082019050919050565b6000602082019050818103600083015261398d81613951565b9050919050565b7f4e6f74206c6f6767656420696e00000000000000000000000000000000000000600082015250565b60006139ca600d8361302c565b91506139d582613994565b602082019050919050565b600060208201905081810360008301526139f9816139bd565b9050919050565b7f4f6e6c79206d616e7566616374757265722063616e206164642072657461696c60008201527f65722064657461696c7300000000000000000000000000000000000000000000602082015250565b6000613a5c602a8361302c565b9150613a6782613a00565b604082019050919050565b60006020820190508181036000830152613a8b81613a4f565b9050919050565b7f4f6e6c79206d616e7566616374757265722063616e20706572666f726d20746860008201527f697320616374696f6e0000000000000000000000000000000000000000000000602082015250565b6000613aee60298361302c565b9150613af982613a92565b604082019050919050565b60006020820190508181036000830152613b1d81613ae1565b9050919050565b7f486173682069736e27742073746f726564000000000000000000000000000000600082015250565b6000613b5a60118361302c565b9150613b6582613b24565b602082019050919050565b60006020820190508181036000830152613b8981613b4d565b9050919050565b7f49442069736e27742073746f7265640000000000000000000000000000000000600082015250565b6000613bc6600f8361302c565b9150613bd182613b90565b602082019050919050565b60006020820190508181036000830152613bf581613bb9565b9050919050565b7f4974656d206e616d652063616e6e6f7420626520656d70747900000000000000600082015250565b6000613c3260198361302c565b9150613c3d82613bfc565b602082019050919050565b60006020820190508181036000830152613c6181613c25565b9050919050565b7f4465736372697074696f6e2063616e6e6f7420626520656d7074790000000000600082015250565b6000613c9e601b8361302c565b9150613ca982613c68565b602082019050919050565b60006020820190508181036000830152613ccd81613c91565b9050919050565b60008190508160005260206000209050919050565b60006020601f8301049050919050565b600082821b905092915050565b600060088302613d367fffffffffffffffffffffffffffffffffffffffffffffffffffffffffffffffff82613cf9565b613d408683613cf9565b95508019841693508086168417925050509392505050565b6000819050919050565b6000613d7d613d78613d7384612fc9565b613d58565b612fc9565b9050919050565b6000819050919050565b613d9783613d62565b613dab613da382613d84565b848454613d06565b825550505050565b600090565b613dc0613db3565b613dcb818484613d8e565b505050565b5b81811015613def57613de4600082613db8565b600181019050613dd1565b5050565b601f821115613e3457613e0581613cd4565b613e0e84613ce9565b81016020851015613e1d578190505b613e31613e2985613ce9565b830182613dd0565b50505b505050565b600082821c905092915050565b6000613e5760001984600802613e39565b1980831691505092915050565b6000613e708383613e46565b9150826002028217905092915050565b613e8982612ee4565b67ffffffffffffffff811115613ea257613ea1612d70565b5b613eac8254613772565b613eb7828285613df3565b600060209050601f831160018114613eea5760008415613ed8578287015190505b613ee28582613e64565b865550613f4a565b601f198416613ef886613cd4565b60005b82811015613f2057848901518255600182019150602085019450602081019050613efb565b86831015613f3d5784890151613f39601f891682613e46565b8355505b6001600288020188555050505b505050505050565b7f4d616e756661637475726572206e616d652063616e6e6f7420626520656d707460008201527f7900000000000000000000000000000000000000000000000000000000000000602082015250565b6000613fae60218361302c565b9150613fb982613f52565b604082019050919050565b60006020820190508181036000830152613fdd81613fa1565b9050919050565b7f4c6f636174696f6e206e616d652063616e6e6f7420626520656d707479000000600082015250565b600061401a601d8361302c565b915061402582613fe4565b602082019050919050565b600060208201905081810360008301526140498161400d565b9050919050565b7f456d61696c20616464726573732063616e6e6f7420626520656d707479000000600082015250565b6000614086601d8361302c565b915061409182614050565b602082019050919050565b600060208201905081810360008301526140b581614079565b9050919050565b7f50686f6e65206e756d6265722063616e6e6f7420626520656d70747900000000600082015250565b60006140f2601c8361302c565b91506140fd826140bc565b602082019050919050565b60006020820190508181036000830152614121816140e5565b9050919050565b60006020820190508181036000830152614142818461303d565b905092915050565b7f4e487b7100000000000000000000000000000000000000000000000000000000600052601160045260246000fd5b600061418482612fc9565b91507fffffffffffffffffffffffffffffffffffffffffffffffffffffffffffffffff82036141b6576141b561414a565b5b600182019050919050565b6000815490506141d081613772565b9050919050565b8181036141e55750506142bd565b6141ee826141c1565b67ffffffffffffffff81111561420757614206612d70565b5b6142118254613772565b61421c828285613df3565b6000601f83116001811461424b5760008415614239578287015490505b6142438582613e64565b8655506142b6565b601f19841661425987613cd4565b965061426486613cd4565b60005b8281101561428c57848901548255600182019150600185019450602081019050614267565b868310156142a957848901546142a5601f891682613e46565b8355505b6001600288020188555050505b5050505050505b565b7f496e76616c69642070617373776f7264206f66206163636f756e74206164647260008201527f6573730000000000000000000000000000000000000000000000000000000000602082015250565b600061431b60238361302c565b9150614326826142bf565b604082019050919050565b6000602082019050818103600083015261434a8161430e565b9050919050565b7f4e487b7100000000000000000000000000000000000000000000000000000000600052603260045260246000fd5b7f52657461696c6572206e6f7420666f756e640000000000000000000000000000600082015250565b60006143b660128361302c565b91506143c182614380565b602082019050919050565b600060208201905081810360008301526143e5816143a9565b9050919050565b600081546143f981613772565b61440381866136f0565b9450600182166000811461441e576001811461443357614466565b60ff1983168652811515820286019350614466565b61443c85613cd4565b60005b8381101561445e5781548189015260018201915060208101905061443f565b838801955050505b50505092915050565b600061447b82846143ec565b915081905092915050565b7f41646472657373206e6f742076616c6964000000000000000000000000000000600082015250565b60006144bc60118361302c565b91506144c782614486565b602082019050919050565b600060208201905081810360008301526144eb816144af565b9050919050565b7f416464726573732073686f756c646e27742062652073797374656d206f776e6560008201527f7200000000000000000000000000000000000000000000000000000000000000602082015250565b600061454e60218361302c565b9150614559826144f2565b604082019050919050565b6000602082019050818103600083015261457d81614541565b9050919050565b7f4d616e75666163747572657220697320616c726561647920726567697374657260008201527f6564000000000000000000000000000000000000000000000000000000000000602082015250565b60006145e060228361302c565b91506145eb82614584565b604082019050919050565b6000602082019050818103600083015261460f816145d3565b9050919050565b6000819050919050565b61463161462c82612fc9565b614616565b82525050565b60006146438285614620565b6020820191506146538284614620565b6020820191508190509392505050565b60006040820190506146786000830185613656565b6146856020830184613656565b939250505056fea26469706673582212206cb3af5848a21cdfc6b32f0ef23046ce4e23263921811bf45c63d4e7fee0ec2164736f6c63430008130033",
  "immutableReferences": {},
  "source": "// SPDX-License-Identifier: MIT\npragma solidity ^0.8.19;\n\ncontract QrCode {\n    event ManufacturerAdded(address indexed manufacturer);\n    event RetailerAdded(string retailer);\n    event RetailerRemoved(uint256 indexed retailerID);\n\n    event PasswordChanged(address indexed admin);\n    event ownershipTransferred(address indexed newAdmin);\n\n    event ItemAdded_M(uint256 indexed id);\n    event ItemDetailsUpdated_M(\n        uint256 indexed id,\n        string itemName,\n        string description\n    );\n    event ItemRecorded_M(uint256 indexed id);\n\n    event qrHashStored(uint indexed timestamp);\n    event qrHashDeleted(uint256 _blockId);\n\n    struct Manufacturer {\n        address manufacturer;\n        string name;\n        string location;\n        string email;\n        string phoneNumber;\n        bytes32 password;\n        bool isSignedUp;\n    }\n\n    struct Retailer {\n        uint256 retailerID;\n        string name;\n        string location;\n        string email;\n        string phoneNumber;\n    }\n\n    struct ItemDetails {\n        string itemName;\n        string description;\n    }\n\n    //@dev create system account structure\n    struct SystemOwner {\n        address sysOwner;\n        bytes32 password /*audit*/;\n        bool isLogin;\n    }\n\n    address private owner;\n    SystemOwner private sysowner;\n\n    uint256 public s_retailerID;\n\n    mapping(address => SystemOwner) private sysOwnerMap;\n\n    mapping(address => Manufacturer) public manufacturerDetails;\n    mapping(address => mapping(uint => Retailer))\n        public manufacturerToRetailerDetails;\n    mapping(string => Retailer) public retailerDetails;\n\n    //STORING\n    mapping(address => mapping(uint256 => string))\n        private qrHashMapByManufacturer; // stored by manufacturer when generating hash + id\n\n    uint256[] private manufacturerIDHashArr; //scanned by only manufacturer\n    mapping(uint => bool) private storedIDs; //just stored\n\n    //MATCHING\n    mapping(string => uint256) public matchHashToId; //used by users when scanning\n\n    mapping(string => bool) public matchedItems; //matched hash to items\n\n    mapping(uint256 => ItemDetails) public itemDetails;\n\n    constructor() {\n        owner = msg.sender;\n        sysowner = SystemOwner(owner, keccak256(abi.encode((\"admin\"))), false);\n        sysOwnerMap[owner] = sysowner;\n    }\n\n    modifier onlySysOwner() {\n        require(\n            msg.sender == owner,\n            \"Only system owner can perform this action\"\n        );\n        require(\n            msg.sender != address(0),\n            \"Only system owner can perform this action\"\n        );\n        _;\n    }\n\n    modifier onlyManufacturer() {\n        require(\n            manufacturerDetails[msg.sender].isSignedUp,\n            \"Only manufacturer can add retailer details\"\n        );\n        require(\n            msg.sender != address(0),\n            \"Only manufacturer can perform this action\"\n        );\n        _;\n    }\n\n    /*@dev System Owner functions*/\n    function loginSysOwner(\n        bytes32 _password\n    ) external onlySysOwner {\n        require(\n            sysOwnerMap[msg.sender].password ==\n                keccak256(abi.encode(_password)),\n            \"Invalid password of account address\"\n        );\n        sysOwnerMap[msg.sender].isLogin = true;\n    }\n\n    function changePassword(\n        bytes32 oldPassword,\n        bytes32 _newPassword\n    ) external onlySysOwner {\n        require(\n            sysOwnerMap[msg.sender].password ==\n                keccak256(abi.encode(oldPassword)),\n            \"Invalid old password\"\n        );\n        require(_newPassword.length > 0, \"Password should not be empty\");\n        require(\n            sysOwnerMap[msg.sender].password !=\n                keccak256(abi.encode(_newPassword)),\n            \"Invalid new password\"\n        );\n        require(sysOwnerMap[msg.sender].isLogin == true, \"Not logged in\");\n\n        emit PasswordChanged(msg.sender);\n        sysOwnerMap[msg.sender].password = _newPassword;\n    }\n\n    function transferOwnership(address _address) external onlySysOwner {\n        delete sysOwnerMap[owner];\n        emit ownershipTransferred(_address);\n        owner = _address;\n        sysOwnerMap[owner];\n    }\n\n    /*@dev Manufacturer functions*/\n    function signUp(\n        string memory _manfName,\n        string memory _location,\n        string memory _email,\n        string memory _phoneNumber,\n        bytes32 _password\n    ) external {\n        require(msg.sender != address(0), \"Address not valid\");\n        require(msg.sender != owner, \"Address shouldn't be system owner\");\n        require(\n            manufacturerDetails[msg.sender].isSignedUp,\n            \"Manufacturer is already registered\"\n        );\n        require(\n            bytes(_manfName).length > 0,\n            \"Manufacturer name cannot be empty\"\n        );\n        require(bytes(_location).length > 0, \"Location name cannot be empty\");\n        require(bytes(_email).length > 0, \"Email address cannot be empty\");\n        require(bytes(_phoneNumber).length > 0, \"Phone number cannot be empty\");\n        require(_password.length > 0, \"Email address cannot be empty\");\n\n        // Generate a salt (you can use a random number or a unique value)\n        bytes32 salt = bytes32(\n            uint256(\n                keccak256(abi.encodePacked(block.timestamp, block.prevrandao))\n            )\n        );\n\n        // Hash the password with the salt\n        bytes32 passwordHash = keccak256(abi.encode(_password, salt));\n\n        emit ManufacturerAdded(msg.sender);\n        manufacturerDetails[msg.sender] = Manufacturer(\n            msg.sender,\n            _manfName,\n            _location,\n            _email,\n            _phoneNumber,\n            passwordHash,\n            true\n        );\n    }\n\n    function addRetailerInfo(\n        string memory _name,\n        string memory _location,\n        string memory _email,\n        string memory _phoneNumber\n    ) external onlyManufacturer {\n        require(bytes(_name).length > 0, \"Manufacturer name cannot be empty\");\n        require(bytes(_location).length > 0, \"Location name cannot be empty\");\n        require(bytes(_email).length > 0, \"Email address cannot be empty\");\n        require(bytes(_phoneNumber).length > 0, \"Phone number cannot be empty\");\n\n        emit RetailerAdded(_name);\n        s_retailerID++;\n        manufacturerToRetailerDetails[msg.sender][s_retailerID] = Retailer(\n            s_retailerID,\n            _name,\n            _location,\n            _email,\n            _phoneNumber\n        );\n        retailerDetails[_name] = manufacturerToRetailerDetails[msg.sender][\n            s_retailerID\n        ];\n    }\n\n    function removeRetailer(uint256 _retailerID) external onlyManufacturer {\n        require(\n            manufacturerToRetailerDetails[msg.sender][_retailerID].retailerID ==\n                _retailerID,\n            \"Retailer not found\"\n        );\n        emit RetailerRemoved(_retailerID);\n        delete manufacturerToRetailerDetails[msg.sender][_retailerID];\n        delete retailerDetails[\n            manufacturerToRetailerDetails[msg.sender][_retailerID].name\n        ];\n    }\n\n    function storeQrHash(string memory _qrHash) external onlyManufacturer {\n        uint256 timestamp = block.timestamp;\n        emit qrHashStored(timestamp);\n        qrHashMapByManufacturer[msg.sender][timestamp] = _qrHash;\n        manufacturerIDHashArr.push(timestamp);\n        storedIDs[timestamp] = true;\n    }\n\n    function deleteQrHash(uint _blockId) external onlyManufacturer {\n        emit qrHashDeleted(_blockId);\n        delete qrHashMapByManufacturer[msg.sender][_blockId];\n        delete manufacturerIDHashArr[_blockId];\n        delete storedIDs[_blockId];\n    }\n\n    //@dev returns qrcodeHash array to the manufacturer frontend\n    function getManfItemIDList()\n        external\n        view\n        onlyManufacturer\n        returns (uint256[] memory)\n    {\n        return manufacturerIDHashArr;\n    }\n\n    //@dev !! views qrcodeHash and ID one by one. Used when manf wants to match stored ids & hashes to every item\n    function getQrHashAndID()\n        private\n        view\n        onlyManufacturer\n        returns (string memory _qrHash, uint256 _blockId)\n    {\n        _qrHash = qrHashMapByManufacturer[msg.sender][_blockId];\n\n        return (_qrHash, _blockId); //used at addItemDetails\n    }\n\n    /*@dev matches the stored hashes to each item & returns a bool for evidence */\n    function addItemDetails(\n        string memory _qrHash,\n        uint256 _blockId,\n        string memory _itemName,\n        string memory _description\n    ) external onlyManufacturer {\n        require(\n            compareStrings(\n                qrHashMapByManufacturer[msg.sender][_blockId],\n                _qrHash\n            ),\n            \"Hash isn't stored\"\n        );\n        require(storedIDs[_blockId] == true, \"ID isn't stored\");\n        require(bytes(_itemName).length > 0, \"Item name cannot be empty\");\n        require(bytes(_description).length > 0, \"Description cannot be empty\");\n\n        emit ItemAdded_M(_blockId);\n        emit ItemDetailsUpdated_M(_blockId, _itemName, _description);\n        emit ItemRecorded_M(_blockId);\n\n        matchHashToId[_qrHash] = _blockId; //update by matching\n        matchedItems[_qrHash] = true;\n\n        itemDetails[_blockId] = ItemDetails(_itemName, _description);\n    }\n\n    function scanItem(string memory _qrHash) external view returns (bool) {\n        if (matchedItems[_qrHash]) {\n            return true;\n        } else {\n            return false;\n        }\n    }\n\n    function moreDetailsForScannedItem(\n        string memory _qrHash\n    ) external view returns (ItemDetails memory) {\n        uint id = matchHashToId[_qrHash];\n        return itemDetails[id];\n    }\n\n    // Cannot directly compare strings in Solidity\n    // This function hashes the 2 strings and then compares the 2 hashes\n    function compareStrings(\n        string memory a,\n        string memory b\n    ) internal pure returns (bool) {\n        return keccak256(abi.encodePacked(a)) == keccak256(abi.encodePacked(b));\n    }\n}",
  "sourcePath": "/home/temba/fake product identification blockchain-based System/contracts/QrCode02.sol",
  "compiler": {
    "name": "solc",
    "version": "0.8.19+commit.7dd6d404.Emscripten.clang"
  },
  "schemaVersion": "3.4.16",
  "updatedAt": "2024-03-22T08:12:39.632Z",
  "devdoc": {
    "kind": "dev",
    "methods": {},
    "version": 1
  },
  "userdoc": {
    "kind": "user",
    "methods": {},
    "version": 1
  }
}