{
  "contractName": "QrCode",
  "abi": [
    {
      "inputs": [],
      "stateMutability": "nonpayable",
      "type": "constructor"
    },
    {
      "anonymous": false,
      "inputs": [
        {
          "indexed": true,
          "internalType": "uint256",
          "name": "id",
          "type": "uint256"
        }
      ],
      "name": "ItemAdded_M",
      "type": "event"
    },
    {
      "anonymous": false,
      "inputs": [
        {
          "indexed": true,
          "internalType": "uint256",
          "name": "id",
          "type": "uint256"
        },
        {
          "indexed": false,
          "internalType": "string",
          "name": "itemName",
          "type": "string"
        },
        {
          "indexed": false,
          "internalType": "string",
          "name": "description",
          "type": "string"
        }
      ],
      "name": "ItemDetailsUpdated_M",
      "type": "event"
    },
    {
      "anonymous": false,
      "inputs": [
        {
          "indexed": true,
          "internalType": "uint256",
          "name": "id",
          "type": "uint256"
        }
      ],
      "name": "ItemRecorded_M",
      "type": "event"
    },
    {
      "anonymous": false,
      "inputs": [
        {
          "indexed": true,
          "internalType": "address",
          "name": "manufacturer",
          "type": "address"
        }
      ],
      "name": "ManufacturerAdded",
      "type": "event"
    },
    {
      "anonymous": false,
      "inputs": [
        {
          "indexed": true,
          "internalType": "address",
          "name": "admin",
          "type": "address"
        }
      ],
      "name": "PasswordChanged",
      "type": "event"
    },
    {
      "anonymous": false,
      "inputs": [
        {
          "indexed": false,
          "internalType": "string",
          "name": "retailer",
          "type": "string"
        }
      ],
      "name": "RetailerAdded",
      "type": "event"
    },
    {
      "anonymous": false,
      "inputs": [
        {
          "indexed": true,
          "internalType": "address",
          "name": "retailerAddress",
          "type": "address"
        }
      ],
      "name": "RetailerRemoved",
      "type": "event"
    },
    {
      "anonymous": false,
      "inputs": [
        {
          "indexed": true,
          "internalType": "address",
          "name": "newAdmin",
          "type": "address"
        }
      ],
      "name": "ownershipTransferred",
      "type": "event"
    },
    {
      "anonymous": false,
      "inputs": [
        {
          "indexed": false,
          "internalType": "uint256",
          "name": "_blockId",
          "type": "uint256"
        }
      ],
      "name": "qrHashDeleted",
      "type": "event"
    },
    {
      "anonymous": false,
      "inputs": [
        {
          "indexed": true,
          "internalType": "uint256",
          "name": "timestamp",
          "type": "uint256"
        }
      ],
      "name": "qrHashStored",
      "type": "event"
    },
    {
      "inputs": [
        {
          "internalType": "uint256",
          "name": "",
          "type": "uint256"
        }
      ],
      "name": "itemDetails",
      "outputs": [
        {
          "internalType": "string",
          "name": "itemName",
          "type": "string"
        },
        {
          "internalType": "string",
          "name": "description",
          "type": "string"
        }
      ],
      "stateMutability": "view",
      "type": "function",
      "constant": true
    },
    {
      "inputs": [
        {
          "internalType": "address",
          "name": "",
          "type": "address"
        }
      ],
      "name": "manufacturerDetails",
      "outputs": [
        {
          "internalType": "address",
          "name": "manPublicAddress",
          "type": "address"
        },
        {
          "internalType": "string",
          "name": "fullName",
          "type": "string"
        },
        {
          "internalType": "string",
          "name": "email",
          "type": "string"
        },
        {
          "internalType": "string",
          "name": "brand",
          "type": "string"
        },
        {
          "internalType": "string",
          "name": "licenseUri",
          "type": "string"
        },
        {
          "internalType": "string",
          "name": "country",
          "type": "string"
        },
        {
          "internalType": "string",
          "name": "region",
          "type": "string"
        },
        {
          "internalType": "string",
          "name": "state",
          "type": "string"
        },
        {
          "internalType": "bool",
          "name": "agreement",
          "type": "bool"
        },
        {
          "internalType": "string",
          "name": "password",
          "type": "string"
        },
        {
          "internalType": "bool",
          "name": "isVerified",
          "type": "bool"
        },
        {
          "internalType": "bool",
          "name": "isSignedUp",
          "type": "bool"
        }
      ],
      "stateMutability": "view",
      "type": "function",
      "constant": true
    },
    {
      "inputs": [
        {
          "internalType": "address",
          "name": "",
          "type": "address"
        },
        {
          "internalType": "address",
          "name": "",
          "type": "address"
        }
      ],
      "name": "manufacturerToRetailerDetails",
      "outputs": [
        {
          "internalType": "address",
          "name": "publicAddress",
          "type": "address"
        },
        {
          "internalType": "string",
          "name": "name",
          "type": "string"
        },
        {
          "internalType": "string",
          "name": "location",
          "type": "string"
        },
        {
          "internalType": "string",
          "name": "email",
          "type": "string"
        },
        {
          "internalType": "string",
          "name": "password",
          "type": "string"
        }
      ],
      "stateMutability": "view",
      "type": "function",
      "constant": true
    },
    {
      "inputs": [
        {
          "internalType": "string",
          "name": "",
          "type": "string"
        }
      ],
      "name": "matchHashToId",
      "outputs": [
        {
          "internalType": "uint256",
          "name": "",
          "type": "uint256"
        }
      ],
      "stateMutability": "view",
      "type": "function",
      "constant": true
    },
    {
      "inputs": [
        {
          "internalType": "string",
          "name": "",
          "type": "string"
        }
      ],
      "name": "matchedItems",
      "outputs": [
        {
          "internalType": "bool",
          "name": "",
          "type": "bool"
        }
      ],
      "stateMutability": "view",
      "type": "function",
      "constant": true
    },
    {
      "inputs": [
        {
          "internalType": "address",
          "name": "",
          "type": "address"
        }
      ],
      "name": "retailerDetails",
      "outputs": [
        {
          "internalType": "address",
          "name": "publicAddress",
          "type": "address"
        },
        {
          "internalType": "string",
          "name": "name",
          "type": "string"
        },
        {
          "internalType": "string",
          "name": "location",
          "type": "string"
        },
        {
          "internalType": "string",
          "name": "email",
          "type": "string"
        },
        {
          "internalType": "string",
          "name": "password",
          "type": "string"
        }
      ],
      "stateMutability": "view",
      "type": "function",
      "constant": true
    },
    {
      "inputs": [],
      "name": "s_retailerID",
      "outputs": [
        {
          "internalType": "uint256",
          "name": "",
          "type": "uint256"
        }
      ],
      "stateMutability": "view",
      "type": "function",
      "constant": true
    },
    {
      "inputs": [
        {
          "internalType": "bytes32",
          "name": "_password",
          "type": "bytes32"
        }
      ],
      "name": "loginSysOwner",
      "outputs": [],
      "stateMutability": "nonpayable",
      "type": "function"
    },
    {
      "inputs": [
        {
          "internalType": "bytes32",
          "name": "oldPassword",
          "type": "bytes32"
        },
        {
          "internalType": "bytes32",
          "name": "_newPassword",
          "type": "bytes32"
        }
      ],
      "name": "changePassword",
      "outputs": [],
      "stateMutability": "nonpayable",
      "type": "function"
    },
    {
      "inputs": [
        {
          "internalType": "address",
          "name": "_address",
          "type": "address"
        }
      ],
      "name": "transferOwnership",
      "outputs": [],
      "stateMutability": "nonpayable",
      "type": "function"
    },
    {
      "inputs": [
        {
          "internalType": "address",
          "name": "_manPublicAddress",
          "type": "address"
        },
        {
          "internalType": "string",
          "name": "_fullName",
          "type": "string"
        },
        {
          "internalType": "string",
          "name": "_email",
          "type": "string"
        },
        {
          "internalType": "string",
          "name": "_brand",
          "type": "string"
        },
        {
          "internalType": "string",
          "name": "_licenseUri",
          "type": "string"
        },
        {
          "internalType": "string",
          "name": "_country",
          "type": "string"
        },
        {
          "internalType": "string",
          "name": "_region",
          "type": "string"
        },
        {
          "internalType": "string",
          "name": "_state",
          "type": "string"
        },
        {
          "internalType": "bool",
          "name": "_agreement",
          "type": "bool"
        },
        {
          "internalType": "string",
          "name": "_password",
          "type": "string"
        }
      ],
      "name": "signUpManufacturer",
      "outputs": [],
      "stateMutability": "nonpayable",
      "type": "function"
    },
    {
      "inputs": [
        {
          "internalType": "address",
          "name": "_publicAddress",
          "type": "address"
        },
        {
          "internalType": "string",
          "name": "_name",
          "type": "string"
        },
        {
          "internalType": "string",
          "name": "_location",
          "type": "string"
        },
        {
          "internalType": "string",
          "name": "_email",
          "type": "string"
        },
        {
          "internalType": "string",
          "name": "_password",
          "type": "string"
        }
      ],
      "name": "addRetailer",
      "outputs": [],
      "stateMutability": "nonpayable",
      "type": "function"
    },
    {
      "inputs": [
        {
          "internalType": "address",
          "name": "_retailerAddress",
          "type": "address"
        }
      ],
      "name": "removeRetailer",
      "outputs": [],
      "stateMutability": "nonpayable",
      "type": "function"
    },
    {
      "inputs": [
        {
          "internalType": "string",
          "name": "_qrHash",
          "type": "string"
        }
      ],
      "name": "storeQrHash",
      "outputs": [],
      "stateMutability": "nonpayable",
      "type": "function"
    },
    {
      "inputs": [
        {
          "internalType": "uint256",
          "name": "_blockId",
          "type": "uint256"
        }
      ],
      "name": "deleteQrHash",
      "outputs": [],
      "stateMutability": "nonpayable",
      "type": "function"
    },
    {
      "inputs": [],
      "name": "getManfItemIDList",
      "outputs": [
        {
          "internalType": "uint256[]",
          "name": "",
          "type": "uint256[]"
        }
      ],
      "stateMutability": "view",
      "type": "function",
      "constant": true
    },
    {
      "inputs": [
        {
          "internalType": "string",
          "name": "_qrHash",
          "type": "string"
        },
        {
          "internalType": "uint256",
          "name": "_blockId",
          "type": "uint256"
        },
        {
          "internalType": "string",
          "name": "_itemName",
          "type": "string"
        },
        {
          "internalType": "string",
          "name": "_description",
          "type": "string"
        }
      ],
      "name": "addItemDetails",
      "outputs": [],
      "stateMutability": "nonpayable",
      "type": "function"
    },
    {
      "inputs": [
        {
          "internalType": "string",
          "name": "_qrHash",
          "type": "string"
        }
      ],
      "name": "scanItem",
      "outputs": [
        {
          "internalType": "bool",
          "name": "",
          "type": "bool"
        }
      ],
      "stateMutability": "view",
      "type": "function",
      "constant": true
    },
    {
      "inputs": [
        {
          "internalType": "string",
          "name": "_qrHash",
          "type": "string"
        }
      ],
      "name": "moreDetailsForScannedItem",
      "outputs": [
        {
          "components": [
            {
              "internalType": "string",
              "name": "itemName",
              "type": "string"
            },
            {
              "internalType": "string",
              "name": "description",
              "type": "string"
            }
          ],
          "internalType": "struct QrCode.ItemDetails",
          "name": "",
          "type": "tuple"
        }
      ],
      "stateMutability": "view",
      "type": "function",
      "constant": true
    }
  ],
  "bytecode": "0x60806040523480156200001157600080fd5b50336000806101000a81548173ffffffffffffffffffffffffffffffffffffffff021916908373ffffffffffffffffffffffffffffffffffffffff160217905550604051806060016040528060008054906101000a900473ffffffffffffffffffffffffffffffffffffffff1673ffffffffffffffffffffffffffffffffffffffff168152602001604051602001620000aa90620002ac565b60405160208183030381529060405280519060200120815260200160001515815250600160008201518160000160006101000a81548173ffffffffffffffffffffffffffffffffffffffff021916908373ffffffffffffffffffffffffffffffffffffffff1602179055506020820151816001015560408201518160020160006101000a81548160ff0219169083151502179055509050506001600560008060009054906101000a900473ffffffffffffffffffffffffffffffffffffffff1673ffffffffffffffffffffffffffffffffffffffff1673ffffffffffffffffffffffffffffffffffffffff1681526020019081526020016000206000820160009054906101000a900473ffffffffffffffffffffffffffffffffffffffff168160000160006101000a81548173ffffffffffffffffffffffffffffffffffffffff021916908373ffffffffffffffffffffffffffffffffffffffff160217905550600182015481600101556002820160009054906101000a900460ff168160020160006101000a81548160ff021916908315150217905550905050620002ce565b600082825260208201905092915050565b7f61646d696e000000000000000000000000000000000000000000000000000000600082015250565b6000620002946005836200024b565b9150620002a1826200025c565b602082019050919050565b60006020820190508181036000830152620002c78162000285565b9050919050565b614fa380620002de6000396000f3fe608060405234801561001057600080fd5b50600436106101215760003560e01c806377f40e33116100ad578063de5df39811610071578063de5df3981461031b578063e38483a31461034f578063f2fde38b1461036b578063fb262c3014610387578063fe244c37146103b757610121565b806377f40e33146102615780637a788e0a146102915780638d11d5ff146102af57806396df3446146102cb578063daa7f64b146102ff57610121565b80636030775e116100f45780636030775e146101bf57806365680795146101ef5780636c3a98ae1461020b57806370099ec814610229578063719f29721461024557610121565b80631bef85c0146101265780631fb4e3f014610156578063292785fc146101875780632bb9cd92146101a3575b600080fd5b610140600480360381019061013b9190613494565b6103f2565b60405161014d91906135a0565b60405180910390f35b610170600480360381019061016b91906135f8565b610567565b60405161017e92919061366f565b60405180910390f35b6101a1600480360381019061019c91906136dc565b61069b565b005b6101bd60048036038101906101b8919061371c565b610a57565b005b6101d960048036038101906101d49190613494565b610eb0565b6040516101e691906137f2565b60405180910390f35b6102096004803603810190610204919061380d565b610ef6565b005b6102136110fb565b6040516102209190613849565b60405180910390f35b610243600480360381019061023e91906138c2565b611101565b005b61025f600480360381019061025a919061391b565b611580565b005b61027b60048036038101906102769190613494565b611b88565b60405161028891906137f2565b60405180910390f35b610299611bbe565b6040516102a69190613b98565b60405180910390f35b6102c960048036038101906102c491906135f8565b611d14565b005b6102e560048036038101906102e091906138c2565b611eed565b6040516102f6959493929190613bc9565b60405180910390f35b61031960048036038101906103149190613c38565b612163565b005b61033560048036038101906103309190613d23565b612661565b604051610346959493929190613bc9565b60405180910390f35b61036960048036038101906103649190613494565b6128e4565b005b610385600480360381019061038091906138c2565b612acb565b005b6103a1600480360381019061039c9190613494565b612d55565b6040516103ae9190613849565b60405180910390f35b6103d160048036038101906103cc91906138c2565b612d83565b6040516103e99c9b9a99989796959493929190613d63565b60405180910390f35b6103fa6132c3565b6000600c8360405161040c9190613e91565b9081526020016040518091039020549050600e600082815260200190815260200160002060405180604001604052908160008201805461044b90613ed7565b80601f016020809104026020016040519081016040528092919081815260200182805461047790613ed7565b80156104c45780601f10610499576101008083540402835291602001916104c4565b820191906000526020600020905b8154815290600101906020018083116104a757829003601f168201915b505050505081526020016001820180546104dd90613ed7565b80601f016020809104026020016040519081016040528092919081815260200182805461050990613ed7565b80156105565780601f1061052b57610100808354040283529160200191610556565b820191906000526020600020905b81548152906001019060200180831161053957829003601f168201915b505050505081525050915050919050565b600e60205280600052604060002060009150905080600001805461058a90613ed7565b80601f01602080910402602001604051908101604052809291908181526020018280546105b690613ed7565b80156106035780601f106105d857610100808354040283529160200191610603565b820191906000526020600020905b8154815290600101906020018083116105e657829003601f168201915b50505050509080600101805461061890613ed7565b80601f016020809104026020016040519081016040528092919081815260200182805461064490613ed7565b80156106915780601f1061066657610100808354040283529160200191610691565b820191906000526020600020905b81548152906001019060200180831161067457829003601f168201915b5050505050905082565b60008054906101000a900473ffffffffffffffffffffffffffffffffffffffff1673ffffffffffffffffffffffffffffffffffffffff163373ffffffffffffffffffffffffffffffffffffffff1614610729576040517f08c379a000000000000000000000000000000000000000000000000000000000815260040161072090613f7a565b60405180910390fd5b600073ffffffffffffffffffffffffffffffffffffffff163373ffffffffffffffffffffffffffffffffffffffff1603610798576040517f08c379a000000000000000000000000000000000000000000000000000000000815260040161078f90613f7a565b60405180910390fd5b816040516020016107a99190613fa9565b60405160208183030381529060405280519060200120600560003373ffffffffffffffffffffffffffffffffffffffff1673ffffffffffffffffffffffffffffffffffffffff1681526020019081526020016000206001015414610842576040517f08c379a000000000000000000000000000000000000000000000000000000000815260040161083990614010565b60405180910390fd5b6000602060ff1611610889576040517f08c379a00000000000000000000000000000000000000000000000000000000081526004016108809061407c565b60405180910390fd5b8060405160200161089a9190613fa9565b60405160208183030381529060405280519060200120600560003373ffffffffffffffffffffffffffffffffffffffff1673ffffffffffffffffffffffffffffffffffffffff1681526020019081526020016000206001015403610933576040517f08c379a000000000000000000000000000000000000000000000000000000000815260040161092a906140e8565b60405180910390fd5b60011515600560003373ffffffffffffffffffffffffffffffffffffffff1673ffffffffffffffffffffffffffffffffffffffff16815260200190815260200160002060020160009054906101000a900460ff161515146109c9576040517f08c379a00000000000000000000000000000000000000000000000000000000081526004016109c090614154565b60405180910390fd5b3373ffffffffffffffffffffffffffffffffffffffff167f85a52c4d6d605a61db8affa2383ae4d5aeefe6f4363c35174504042b4a0ee9b660405160405180910390a280600560003373ffffffffffffffffffffffffffffffffffffffff1673ffffffffffffffffffffffffffffffffffffffff168152602001908152602001600020600101819055505050565b600660003373ffffffffffffffffffffffffffffffffffffffff1673ffffffffffffffffffffffffffffffffffffffff168152602001908152602001600020600a0160019054906101000a900460ff16610ae6576040517f08c379a0000000000000000000000000000000000000000000000000000000008152600401610add906141e6565b60405180910390fd5b600073ffffffffffffffffffffffffffffffffffffffff163373ffffffffffffffffffffffffffffffffffffffff1603610b55576040517f08c379a0000000000000000000000000000000000000000000000000000000008152600401610b4c90614278565b60405180910390fd5b610c37600960003373ffffffffffffffffffffffffffffffffffffffff1673ffffffffffffffffffffffffffffffffffffffff16815260200190815260200160002060008581526020019081526020016000208054610bb390613ed7565b80601f0160208091040260200160405190810160405280929190818152602001828054610bdf90613ed7565b8015610c2c5780601f10610c0157610100808354040283529160200191610c2c565b820191906000526020600020905b815481529060010190602001808311610c0f57829003601f168201915b50505050508561326a565b610c76576040517f08c379a0000000000000000000000000000000000000000000000000000000008152600401610c6d906142e4565b60405180910390fd5b60011515600b600085815260200190815260200160002060009054906101000a900460ff16151514610cdd576040517f08c379a0000000000000000000000000000000000000000000000000000000008152600401610cd490614350565b60405180910390fd5b6000825111610d21576040517f08c379a0000000000000000000000000000000000000000000000000000000008152600401610d18906143bc565b60405180910390fd5b6000815111610d65576040517f08c379a0000000000000000000000000000000000000000000000000000000008152600401610d5c90614428565b60405180910390fd5b827f611520fe479942fc842c72a2974cc0bf4746653a8b34285ba197c7192fd4721d60405160405180910390a2827f63bcdba1660b19ba3aaaf6afe05409cc2811b84ad557ca33f7eda874ac3a89b08383604051610dc492919061366f565b60405180910390a2827f2c43e921afd657149a59b6382398172493954880204131eb2a51b2846890838960405160405180910390a282600c85604051610e0a9190613e91565b9081526020016040518091039020819055506001600d85604051610e2e9190613e91565b908152602001604051809103902060006101000a81548160ff021916908315150217905550604051806040016040528083815260200182815250600e60008581526020019081526020016000206000820151816000019081610e9091906145f4565b506020820151816001019081610ea691906145f4565b5090505050505050565b6000600d82604051610ec29190613e91565b908152602001604051809103902060009054906101000a900460ff1615610eec5760019050610ef1565b600090505b919050565b60008054906101000a900473ffffffffffffffffffffffffffffffffffffffff1673ffffffffffffffffffffffffffffffffffffffff163373ffffffffffffffffffffffffffffffffffffffff1614610f84576040517f08c379a0000000000000000000000000000000000000000000000000000000008152600401610f7b90613f7a565b60405180910390fd5b600073ffffffffffffffffffffffffffffffffffffffff163373ffffffffffffffffffffffffffffffffffffffff1603610ff3576040517f08c379a0000000000000000000000000000000000000000000000000000000008152600401610fea90613f7a565b60405180910390fd5b806040516020016110049190613fa9565b60405160208183030381529060405280519060200120600560003373ffffffffffffffffffffffffffffffffffffffff1673ffffffffffffffffffffffffffffffffffffffff168152602001908152602001600020600101541461109d576040517f08c379a000000000000000000000000000000000000000000000000000000000815260040161109490614738565b60405180910390fd5b6001600560003373ffffffffffffffffffffffffffffffffffffffff1673ffffffffffffffffffffffffffffffffffffffff16815260200190815260200160002060020160006101000a81548160ff02191690831515021790555050565b60045481565b600660003373ffffffffffffffffffffffffffffffffffffffff1673ffffffffffffffffffffffffffffffffffffffff168152602001908152602001600020600a0160019054906101000a900460ff16611190576040517f08c379a0000000000000000000000000000000000000000000000000000000008152600401611187906141e6565b60405180910390fd5b600073ffffffffffffffffffffffffffffffffffffffff163373ffffffffffffffffffffffffffffffffffffffff16036111ff576040517f08c379a00000000000000000000000000000000000000000000000000000000081526004016111f690614278565b60405180910390fd5b8073ffffffffffffffffffffffffffffffffffffffff16600760003373ffffffffffffffffffffffffffffffffffffffff1673ffffffffffffffffffffffffffffffffffffffff16815260200190815260200160002060008373ffffffffffffffffffffffffffffffffffffffff1673ffffffffffffffffffffffffffffffffffffffff16815260200190815260200160002060000160009054906101000a900473ffffffffffffffffffffffffffffffffffffffff1673ffffffffffffffffffffffffffffffffffffffff161461130c576040517f08c379a0000000000000000000000000000000000000000000000000000000008152600401611303906147a4565b60405180910390fd5b8073ffffffffffffffffffffffffffffffffffffffff167fdb7176e79cffef81cb01767dd0447a0b24bb72ca9778d4b245581086b2a7e6db60405160405180910390a2600760003373ffffffffffffffffffffffffffffffffffffffff1673ffffffffffffffffffffffffffffffffffffffff16815260200190815260200160002060008273ffffffffffffffffffffffffffffffffffffffff1673ffffffffffffffffffffffffffffffffffffffff168152602001908152602001600020600080820160006101000a81549073ffffffffffffffffffffffffffffffffffffffff021916905560018201600061140391906132dd565b60028201600061141391906132dd565b60038201600061142391906132dd565b60048201600061143391906132dd565b505060086000600760003373ffffffffffffffffffffffffffffffffffffffff1673ffffffffffffffffffffffffffffffffffffffff16815260200190815260200160002060008473ffffffffffffffffffffffffffffffffffffffff1673ffffffffffffffffffffffffffffffffffffffff16815260200190815260200160002060000160009054906101000a900473ffffffffffffffffffffffffffffffffffffffff1673ffffffffffffffffffffffffffffffffffffffff1673ffffffffffffffffffffffffffffffffffffffff168152602001908152602001600020600080820160006101000a81549073ffffffffffffffffffffffffffffffffffffffff021916905560018201600061154b91906132dd565b60028201600061155b91906132dd565b60038201600061156b91906132dd565b60048201600061157b91906132dd565b505050565b60008054906101000a900473ffffffffffffffffffffffffffffffffffffffff1673ffffffffffffffffffffffffffffffffffffffff163373ffffffffffffffffffffffffffffffffffffffff160361160e576040517f08c379a000000000000000000000000000000000000000000000000000000000815260040161160590614836565b60405180910390fd5b600073ffffffffffffffffffffffffffffffffffffffff168a73ffffffffffffffffffffffffffffffffffffffff160361167d576040517f08c379a0000000000000000000000000000000000000000000000000000000008152600401611674906148a2565b60405180910390fd5b600660008b73ffffffffffffffffffffffffffffffffffffffff1673ffffffffffffffffffffffffffffffffffffffff168152602001908152602001600020600a0160019054906101000a900460ff1661170c576040517f08c379a000000000000000000000000000000000000000000000000000000000815260040161170390614934565b60405180910390fd5b6000895111611750576040517f08c379a0000000000000000000000000000000000000000000000000000000008152600401611747906149c6565b60405180910390fd5b6000885111611794576040517f08c379a000000000000000000000000000000000000000000000000000000000815260040161178b90614a32565b60405180910390fd5b60008751116117d8576040517f08c379a00000000000000000000000000000000000000000000000000000000081526004016117cf90614a9e565b60405180910390fd5b600086511161181c576040517f08c379a000000000000000000000000000000000000000000000000000000000815260040161181390614b0a565b60405180910390fd5b6000855111611860576040517f08c379a000000000000000000000000000000000000000000000000000000000815260040161185790614b76565b60405180910390fd5b60008451116118a4576040517f08c379a000000000000000000000000000000000000000000000000000000000815260040161189b90614be2565b60405180910390fd5b60008351116118e8576040517f08c379a00000000000000000000000000000000000000000000000000000000081526004016118df90614c4e565b60405180910390fd5b600081511161192c576040517f08c379a000000000000000000000000000000000000000000000000000000000815260040161192390614cba565b60405180910390fd5b3373ffffffffffffffffffffffffffffffffffffffff167f561138658ca49a8540dc70dcfe64c9026c1c5b9344642242dd6562970f9c127860405160405180910390a26040518061018001604052808b73ffffffffffffffffffffffffffffffffffffffff1681526020018a8152602001898152602001888152602001878152602001868152602001858152602001848152602001831515815260200182815260200160001515815260200160011515815250600660003373ffffffffffffffffffffffffffffffffffffffff1673ffffffffffffffffffffffffffffffffffffffff16815260200190815260200160002060008201518160000160006101000a81548173ffffffffffffffffffffffffffffffffffffffff021916908373ffffffffffffffffffffffffffffffffffffffff1602179055506020820151816001019081611a7a91906145f4565b506040820151816002019081611a9091906145f4565b506060820151816003019081611aa691906145f4565b506080820151816004019081611abc91906145f4565b5060a0820151816005019081611ad291906145f4565b5060c0820151816006019081611ae891906145f4565b5060e0820151816007019081611afe91906145f4565b506101008201518160080160006101000a81548160ff021916908315150217905550610120820151816009019081611b3691906145f4565b5061014082015181600a0160006101000a81548160ff02191690831515021790555061016082015181600a0160016101000a81548160ff02191690831515021790555090505050505050505050505050565b600d818051602081018201805184825260208301602085012081835280955050505050506000915054906101000a900460ff1681565b6060600660003373ffffffffffffffffffffffffffffffffffffffff1673ffffffffffffffffffffffffffffffffffffffff168152602001908152602001600020600a0160019054906101000a900460ff16611c4f576040517f08c379a0000000000000000000000000000000000000000000000000000000008152600401611c46906141e6565b60405180910390fd5b600073ffffffffffffffffffffffffffffffffffffffff163373ffffffffffffffffffffffffffffffffffffffff1603611cbe576040517f08c379a0000000000000000000000000000000000000000000000000000000008152600401611cb590614278565b60405180910390fd5b600a805480602002602001604051908101604052809291908181526020018280548015611d0a57602002820191906000526020600020905b815481526020019060010190808311611cf6575b5050505050905090565b600660003373ffffffffffffffffffffffffffffffffffffffff1673ffffffffffffffffffffffffffffffffffffffff168152602001908152602001600020600a0160019054906101000a900460ff16611da3576040517f08c379a0000000000000000000000000000000000000000000000000000000008152600401611d9a906141e6565b60405180910390fd5b600073ffffffffffffffffffffffffffffffffffffffff163373ffffffffffffffffffffffffffffffffffffffff1603611e12576040517f08c379a0000000000000000000000000000000000000000000000000000000008152600401611e0990614278565b60405180910390fd5b7f4140c73226c8ea512653d2920a7fbe10a0c0fe3c5f07aee8be2cad8b2b9a772f81604051611e419190613849565b60405180910390a1600960003373ffffffffffffffffffffffffffffffffffffffff1673ffffffffffffffffffffffffffffffffffffffff16815260200190815260200160002060008281526020019081526020016000206000611ea591906132dd565b600a8181548110611eb957611eb8614cda565b5b9060005260206000200160009055600b600082815260200190815260200160002060006101000a81549060ff021916905550565b60086020528060005260406000206000915090508060000160009054906101000a900473ffffffffffffffffffffffffffffffffffffffff1690806001018054611f3690613ed7565b80601f0160208091040260200160405190810160405280929190818152602001828054611f6290613ed7565b8015611faf5780601f10611f8457610100808354040283529160200191611faf565b820191906000526020600020905b815481529060010190602001808311611f9257829003601f168201915b505050505090806002018054611fc490613ed7565b80601f0160208091040260200160405190810160405280929190818152602001828054611ff090613ed7565b801561203d5780601f106120125761010080835404028352916020019161203d565b820191906000526020600020905b81548152906001019060200180831161202057829003601f168201915b50505050509080600301805461205290613ed7565b80601f016020809104026020016040519081016040528092919081815260200182805461207e90613ed7565b80156120cb5780601f106120a0576101008083540402835291602001916120cb565b820191906000526020600020905b8154815290600101906020018083116120ae57829003601f168201915b5050505050908060040180546120e090613ed7565b80601f016020809104026020016040519081016040528092919081815260200182805461210c90613ed7565b80156121595780601f1061212e57610100808354040283529160200191612159565b820191906000526020600020905b81548152906001019060200180831161213c57829003601f168201915b5050505050905085565b600660003373ffffffffffffffffffffffffffffffffffffffff1673ffffffffffffffffffffffffffffffffffffffff168152602001908152602001600020600a0160019054906101000a900460ff166121f2576040517f08c379a00000000000000000000000000000000000000000000000000000000081526004016121e9906141e6565b60405180910390fd5b600073ffffffffffffffffffffffffffffffffffffffff163373ffffffffffffffffffffffffffffffffffffffff1603612261576040517f08c379a000000000000000000000000000000000000000000000000000000000815260040161225890614278565b60405180910390fd5b600073ffffffffffffffffffffffffffffffffffffffff168573ffffffffffffffffffffffffffffffffffffffff16036122d0576040517f08c379a00000000000000000000000000000000000000000000000000000000081526004016122c790614d7b565b60405180910390fd5b6000845111612314576040517f08c379a000000000000000000000000000000000000000000000000000000000815260040161230b90614de7565b60405180910390fd5b6000835111612358576040517f08c379a000000000000000000000000000000000000000000000000000000000815260040161234f90614e53565b60405180910390fd5b600082511161239c576040517f08c379a000000000000000000000000000000000000000000000000000000000815260040161239390614ebf565b60405180910390fd5b60008151116123e0576040517f08c379a00000000000000000000000000000000000000000000000000000000081526004016123d790614f2b565b60405180910390fd5b7f73d87f380e0a7b768520275cc06c6143276be057013aa419a14c7f88e47f915f8460405161240f9190614f4b565b60405180910390a160006040518060a001604052808773ffffffffffffffffffffffffffffffffffffffff16815260200186815260200185815260200184815260200183815250905080600760003373ffffffffffffffffffffffffffffffffffffffff1673ffffffffffffffffffffffffffffffffffffffff16815260200190815260200160002060008873ffffffffffffffffffffffffffffffffffffffff1673ffffffffffffffffffffffffffffffffffffffff16815260200190815260200160002060008201518160000160006101000a81548173ffffffffffffffffffffffffffffffffffffffff021916908373ffffffffffffffffffffffffffffffffffffffff160217905550602082015181600101908161253191906145f4565b50604082015181600201908161254791906145f4565b50606082015181600301908161255d91906145f4565b50608082015181600401908161257391906145f4565b5090505080600860008873ffffffffffffffffffffffffffffffffffffffff1673ffffffffffffffffffffffffffffffffffffffff16815260200190815260200160002060008201518160000160006101000a81548173ffffffffffffffffffffffffffffffffffffffff021916908373ffffffffffffffffffffffffffffffffffffffff160217905550602082015181600101908161261391906145f4565b50604082015181600201908161262991906145f4565b50606082015181600301908161263f91906145f4565b50608082015181600401908161265591906145f4565b50905050505050505050565b6007602052816000526040600020602052806000526040600020600091509150508060000160009054906101000a900473ffffffffffffffffffffffffffffffffffffffff16908060010180546126b790613ed7565b80601f01602080910402602001604051908101604052809291908181526020018280546126e390613ed7565b80156127305780601f1061270557610100808354040283529160200191612730565b820191906000526020600020905b81548152906001019060200180831161271357829003601f168201915b50505050509080600201805461274590613ed7565b80601f016020809104026020016040519081016040528092919081815260200182805461277190613ed7565b80156127be5780601f10612793576101008083540402835291602001916127be565b820191906000526020600020905b8154815290600101906020018083116127a157829003601f168201915b5050505050908060030180546127d390613ed7565b80601f01602080910402602001604051908101604052809291908181526020018280546127ff90613ed7565b801561284c5780601f106128215761010080835404028352916020019161284c565b820191906000526020600020905b81548152906001019060200180831161282f57829003601f168201915b50505050509080600401805461286190613ed7565b80601f016020809104026020016040519081016040528092919081815260200182805461288d90613ed7565b80156128da5780601f106128af576101008083540402835291602001916128da565b820191906000526020600020905b8154815290600101906020018083116128bd57829003601f168201915b5050505050905085565b600660003373ffffffffffffffffffffffffffffffffffffffff1673ffffffffffffffffffffffffffffffffffffffff168152602001908152602001600020600a0160019054906101000a900460ff16612973576040517f08c379a000000000000000000000000000000000000000000000000000000000815260040161296a906141e6565b60405180910390fd5b600073ffffffffffffffffffffffffffffffffffffffff163373ffffffffffffffffffffffffffffffffffffffff16036129e2576040517f08c379a00000000000000000000000000000000000000000000000000000000081526004016129d990614278565b60405180910390fd5b6000429050807f9376d1f5ae2781161467d7ecca7bb235a2f861272b40eca70ea487d3005004d060405160405180910390a281600960003373ffffffffffffffffffffffffffffffffffffffff1673ffffffffffffffffffffffffffffffffffffffff16815260200190815260200160002060008381526020019081526020016000209081612a7191906145f4565b50600a8190806001815401808255809150506001900390600052602060002001600090919091909150556001600b600083815260200190815260200160002060006101000a81548160ff0219169083151502179055505050565b60008054906101000a900473ffffffffffffffffffffffffffffffffffffffff1673ffffffffffffffffffffffffffffffffffffffff163373ffffffffffffffffffffffffffffffffffffffff1614612b59576040517f08c379a0000000000000000000000000000000000000000000000000000000008152600401612b5090613f7a565b60405180910390fd5b600073ffffffffffffffffffffffffffffffffffffffff163373ffffffffffffffffffffffffffffffffffffffff1603612bc8576040517f08c379a0000000000000000000000000000000000000000000000000000000008152600401612bbf90613f7a565b60405180910390fd5b600560008060009054906101000a900473ffffffffffffffffffffffffffffffffffffffff1673ffffffffffffffffffffffffffffffffffffffff1673ffffffffffffffffffffffffffffffffffffffff168152602001908152602001600020600080820160006101000a81549073ffffffffffffffffffffffffffffffffffffffff021916905560018201600090556002820160006101000a81549060ff021916905550508073ffffffffffffffffffffffffffffffffffffffff167fac9a252a3ed2d3fcc198677953ffe98ac492e191a4605978c655f8ce4ae8067660405160405180910390a2806000806101000a81548173ffffffffffffffffffffffffffffffffffffffff021916908373ffffffffffffffffffffffffffffffffffffffff160217905550600560008060009054906101000a900473ffffffffffffffffffffffffffffffffffffffff1673ffffffffffffffffffffffffffffffffffffffff1673ffffffffffffffffffffffffffffffffffffffff1681526020019081526020016000205050565b600c818051602081018201805184825260208301602085012081835280955050505050506000915090505481565b60066020528060005260406000206000915090508060000160009054906101000a900473ffffffffffffffffffffffffffffffffffffffff1690806001018054612dcc90613ed7565b80601f0160208091040260200160405190810160405280929190818152602001828054612df890613ed7565b8015612e455780601f10612e1a57610100808354040283529160200191612e45565b820191906000526020600020905b815481529060010190602001808311612e2857829003601f168201915b505050505090806002018054612e5a90613ed7565b80601f0160208091040260200160405190810160405280929190818152602001828054612e8690613ed7565b8015612ed35780601f10612ea857610100808354040283529160200191612ed3565b820191906000526020600020905b815481529060010190602001808311612eb657829003601f168201915b505050505090806003018054612ee890613ed7565b80601f0160208091040260200160405190810160405280929190818152602001828054612f1490613ed7565b8015612f615780601f10612f3657610100808354040283529160200191612f61565b820191906000526020600020905b815481529060010190602001808311612f4457829003601f168201915b505050505090806004018054612f7690613ed7565b80601f0160208091040260200160405190810160405280929190818152602001828054612fa290613ed7565b8015612fef5780601f10612fc457610100808354040283529160200191612fef565b820191906000526020600020905b815481529060010190602001808311612fd257829003601f168201915b50505050509080600501805461300490613ed7565b80601f016020809104026020016040519081016040528092919081815260200182805461303090613ed7565b801561307d5780601f106130525761010080835404028352916020019161307d565b820191906000526020600020905b81548152906001019060200180831161306057829003601f168201915b50505050509080600601805461309290613ed7565b80601f01602080910402602001604051908101604052809291908181526020018280546130be90613ed7565b801561310b5780601f106130e05761010080835404028352916020019161310b565b820191906000526020600020905b8154815290600101906020018083116130ee57829003601f168201915b50505050509080600701805461312090613ed7565b80601f016020809104026020016040519081016040528092919081815260200182805461314c90613ed7565b80156131995780601f1061316e57610100808354040283529160200191613199565b820191906000526020600020905b81548152906001019060200180831161317c57829003601f168201915b5050505050908060080160009054906101000a900460ff16908060090180546131c190613ed7565b80601f01602080910402602001604051908101604052809291908181526020018280546131ed90613ed7565b801561323a5780601f1061320f5761010080835404028352916020019161323a565b820191906000526020600020905b81548152906001019060200180831161321d57829003601f168201915b50505050509080600a0160009054906101000a900460ff169080600a0160019054906101000a900460ff1690508c565b60008160405160200161327d9190613e91565b60405160208183030381529060405280519060200120836040516020016132a49190613e91565b6040516020818303038152906040528051906020012014905092915050565b604051806040016040528060608152602001606081525090565b5080546132e990613ed7565b6000825580601f106132fb575061331a565b601f016020900490600052602060002090810190613319919061331d565b5b50565b5b8082111561333657600081600090555060010161331e565b5090565b6000604051905090565b600080fd5b600080fd5b600080fd5b600080fd5b6000601f19601f8301169050919050565b7f4e487b7100000000000000000000000000000000000000000000000000000000600052604160045260246000fd5b6133a182613358565b810181811067ffffffffffffffff821117156133c0576133bf613369565b5b80604052505050565b60006133d361333a565b90506133df8282613398565b919050565b600067ffffffffffffffff8211156133ff576133fe613369565b5b61340882613358565b9050602081019050919050565b82818337600083830152505050565b6000613437613432846133e4565b6133c9565b90508281526020810184848401111561345357613452613353565b5b61345e848285613415565b509392505050565b600082601f83011261347b5761347a61334e565b5b813561348b848260208601613424565b91505092915050565b6000602082840312156134aa576134a9613344565b5b600082013567ffffffffffffffff8111156134c8576134c7613349565b5b6134d484828501613466565b91505092915050565b600081519050919050565b600082825260208201905092915050565b60005b838110156135175780820151818401526020810190506134fc565b60008484015250505050565b600061352e826134dd565b61353881856134e8565b93506135488185602086016134f9565b61355181613358565b840191505092915050565b600060408301600083015184820360008601526135798282613523565b915050602083015184820360208601526135938282613523565b9150508091505092915050565b600060208201905081810360008301526135ba818461355c565b905092915050565b6000819050919050565b6135d5816135c2565b81146135e057600080fd5b50565b6000813590506135f2816135cc565b92915050565b60006020828403121561360e5761360d613344565b5b600061361c848285016135e3565b91505092915050565b600082825260208201905092915050565b6000613641826134dd565b61364b8185613625565b935061365b8185602086016134f9565b61366481613358565b840191505092915050565b600060408201905081810360008301526136898185613636565b9050818103602083015261369d8184613636565b90509392505050565b6000819050919050565b6136b9816136a6565b81146136c457600080fd5b50565b6000813590506136d6816136b0565b92915050565b600080604083850312156136f3576136f2613344565b5b6000613701858286016136c7565b9250506020613712858286016136c7565b9150509250929050565b6000806000806080858703121561373657613735613344565b5b600085013567ffffffffffffffff81111561375457613753613349565b5b61376087828801613466565b9450506020613771878288016135e3565b935050604085013567ffffffffffffffff81111561379257613791613349565b5b61379e87828801613466565b925050606085013567ffffffffffffffff8111156137bf576137be613349565b5b6137cb87828801613466565b91505092959194509250565b60008115159050919050565b6137ec816137d7565b82525050565b600060208201905061380760008301846137e3565b92915050565b60006020828403121561382357613822613344565b5b6000613831848285016136c7565b91505092915050565b613843816135c2565b82525050565b600060208201905061385e600083018461383a565b92915050565b600073ffffffffffffffffffffffffffffffffffffffff82169050919050565b600061388f82613864565b9050919050565b61389f81613884565b81146138aa57600080fd5b50565b6000813590506138bc81613896565b92915050565b6000602082840312156138d8576138d7613344565b5b60006138e6848285016138ad565b91505092915050565b6138f8816137d7565b811461390357600080fd5b50565b600081359050613915816138ef565b92915050565b6000806000806000806000806000806101408b8d03121561393f5761393e613344565b5b600061394d8d828e016138ad565b9a505060208b013567ffffffffffffffff81111561396e5761396d613349565b5b61397a8d828e01613466565b99505060408b013567ffffffffffffffff81111561399b5761399a613349565b5b6139a78d828e01613466565b98505060608b013567ffffffffffffffff8111156139c8576139c7613349565b5b6139d48d828e01613466565b97505060808b013567ffffffffffffffff8111156139f5576139f4613349565b5b613a018d828e01613466565b96505060a08b013567ffffffffffffffff811115613a2257613a21613349565b5b613a2e8d828e01613466565b95505060c08b013567ffffffffffffffff811115613a4f57613a4e613349565b5b613a5b8d828e01613466565b94505060e08b013567ffffffffffffffff811115613a7c57613a7b613349565b5b613a888d828e01613466565b935050610100613a9a8d828e01613906565b9250506101208b013567ffffffffffffffff811115613abc57613abb613349565b5b613ac88d828e01613466565b9150509295989b9194979a5092959850565b600081519050919050565b600082825260208201905092915050565b6000819050602082019050919050565b613b0f816135c2565b82525050565b6000613b218383613b06565b60208301905092915050565b6000602082019050919050565b6000613b4582613ada565b613b4f8185613ae5565b9350613b5a83613af6565b8060005b83811015613b8b578151613b728882613b15565b9750613b7d83613b2d565b925050600181019050613b5e565b5085935050505092915050565b60006020820190508181036000830152613bb28184613b3a565b905092915050565b613bc381613884565b82525050565b600060a082019050613bde6000830188613bba565b8181036020830152613bf08187613636565b90508181036040830152613c048186613636565b90508181036060830152613c188185613636565b90508181036080830152613c2c8184613636565b90509695505050505050565b600080600080600060a08688031215613c5457613c53613344565b5b6000613c62888289016138ad565b955050602086013567ffffffffffffffff811115613c8357613c82613349565b5b613c8f88828901613466565b945050604086013567ffffffffffffffff811115613cb057613caf613349565b5b613cbc88828901613466565b935050606086013567ffffffffffffffff811115613cdd57613cdc613349565b5b613ce988828901613466565b925050608086013567ffffffffffffffff811115613d0a57613d09613349565b5b613d1688828901613466565b9150509295509295909350565b60008060408385031215613d3a57613d39613344565b5b6000613d48858286016138ad565b9250506020613d59858286016138ad565b9150509250929050565b600061018082019050613d79600083018f613bba565b8181036020830152613d8b818e613636565b90508181036040830152613d9f818d613636565b90508181036060830152613db3818c613636565b90508181036080830152613dc7818b613636565b905081810360a0830152613ddb818a613636565b905081810360c0830152613def8189613636565b905081810360e0830152613e038188613636565b9050613e136101008301876137e3565b818103610120830152613e268186613636565b9050613e366101408301856137e3565b613e446101608301846137e3565b9d9c50505050505050505050505050565b600081905092915050565b6000613e6b826134dd565b613e758185613e55565b9350613e858185602086016134f9565b80840191505092915050565b6000613e9d8284613e60565b915081905092915050565b7f4e487b7100000000000000000000000000000000000000000000000000000000600052602260045260246000fd5b60006002820490506001821680613eef57607f821691505b602082108103613f0257613f01613ea8565b5b50919050565b7f4f6e6c792073797374656d206f776e65722063616e20706572666f726d20746860008201527f697320616374696f6e0000000000000000000000000000000000000000000000602082015250565b6000613f64602983613625565b9150613f6f82613f08565b604082019050919050565b60006020820190508181036000830152613f9381613f57565b9050919050565b613fa3816136a6565b82525050565b6000602082019050613fbe6000830184613f9a565b92915050565b7f496e76616c6964206f6c642070617373776f7264000000000000000000000000600082015250565b6000613ffa601483613625565b915061400582613fc4565b602082019050919050565b6000602082019050818103600083015261402981613fed565b9050919050565b7f50617373776f72642073686f756c64206e6f7420626520656d70747900000000600082015250565b6000614066601c83613625565b915061407182614030565b602082019050919050565b6000602082019050818103600083015261409581614059565b9050919050565b7f496e76616c6964206e65772070617373776f7264000000000000000000000000600082015250565b60006140d2601483613625565b91506140dd8261409c565b602082019050919050565b60006020820190508181036000830152614101816140c5565b9050919050565b7f4e6f74206c6f6767656420696e00000000000000000000000000000000000000600082015250565b600061413e600d83613625565b915061414982614108565b602082019050919050565b6000602082019050818103600083015261416d81614131565b9050919050565b7f4f6e6c79206d616e7566616374757265722063616e206164642072657461696c60008201527f65722064657461696c7300000000000000000000000000000000000000000000602082015250565b60006141d0602a83613625565b91506141db82614174565b604082019050919050565b600060208201905081810360008301526141ff816141c3565b9050919050565b7f4f6e6c79206d616e7566616374757265722063616e20706572666f726d20746860008201527f697320616374696f6e0000000000000000000000000000000000000000000000602082015250565b6000614262602983613625565b915061426d82614206565b604082019050919050565b6000602082019050818103600083015261429181614255565b9050919050565b7f486173682069736e27742073746f726564000000000000000000000000000000600082015250565b60006142ce601183613625565b91506142d982614298565b602082019050919050565b600060208201905081810360008301526142fd816142c1565b9050919050565b7f49442069736e27742073746f7265640000000000000000000000000000000000600082015250565b600061433a600f83613625565b915061434582614304565b602082019050919050565b600060208201905081810360008301526143698161432d565b9050919050565b7f4974656d206e616d652063616e6e6f7420626520656d70747900000000000000600082015250565b60006143a6601983613625565b91506143b182614370565b602082019050919050565b600060208201905081810360008301526143d581614399565b9050919050565b7f4465736372697074696f6e2063616e6e6f7420626520656d7074790000000000600082015250565b6000614412601b83613625565b915061441d826143dc565b602082019050919050565b6000602082019050818103600083015261444181614405565b9050919050565b60008190508160005260206000209050919050565b60006020601f8301049050919050565b600082821b905092915050565b6000600883026144aa7fffffffffffffffffffffffffffffffffffffffffffffffffffffffffffffffff8261446d565b6144b4868361446d565b95508019841693508086168417925050509392505050565b6000819050919050565b60006144f16144ec6144e7846135c2565b6144cc565b6135c2565b9050919050565b6000819050919050565b61450b836144d6565b61451f614517826144f8565b84845461447a565b825550505050565b600090565b614534614527565b61453f818484614502565b505050565b5b818110156145635761455860008261452c565b600181019050614545565b5050565b601f8211156145a85761457981614448565b6145828461445d565b81016020851015614591578190505b6145a561459d8561445d565b830182614544565b50505b505050565b600082821c905092915050565b60006145cb600019846008026145ad565b1980831691505092915050565b60006145e483836145ba565b9150826002028217905092915050565b6145fd826134dd565b67ffffffffffffffff81111561461657614615613369565b5b6146208254613ed7565b61462b828285614567565b600060209050601f83116001811461465e576000841561464c578287015190505b61465685826145d8565b8655506146be565b601f19841661466c86614448565b60005b828110156146945784890151825560018201915060208501945060208101905061466f565b868310156146b157848901516146ad601f8916826145ba565b8355505b6001600288020188555050505b505050505050565b7f496e76616c69642070617373776f7264206f66206163636f756e74206164647260008201527f6573730000000000000000000000000000000000000000000000000000000000602082015250565b6000614722602383613625565b915061472d826146c6565b604082019050919050565b6000602082019050818103600083015261475181614715565b9050919050565b7f52657461696c6572206e6f7420666f756e640000000000000000000000000000600082015250565b600061478e601283613625565b915061479982614758565b602082019050919050565b600060208201905081810360008301526147bd81614781565b9050919050565b7f416464726573732073686f756c646e27742062652073797374656d206f776e6560008201527f7200000000000000000000000000000000000000000000000000000000000000602082015250565b6000614820602183613625565b915061482b826147c4565b604082019050919050565b6000602082019050818103600083015261484f81614813565b9050919050565b7f41646472657373206e6f742076616c6964000000000000000000000000000000600082015250565b600061488c601183613625565b915061489782614856565b602082019050919050565b600060208201905081810360008301526148bb8161487f565b9050919050565b7f4d616e75666163747572657220697320616c726561647920726567697374657260008201527f6564000000000000000000000000000000000000000000000000000000000000602082015250565b600061491e602283613625565b9150614929826148c2565b604082019050919050565b6000602082019050818103600083015261494d81614911565b9050919050565b7f4d616e756661637475726572206e616d652073686f756c646e2774206265206560008201527f6d70747900000000000000000000000000000000000000000000000000000000602082015250565b60006149b0602483613625565b91506149bb82614954565b604082019050919050565b600060208201905081810360008301526149df816149a3565b9050919050565b7f456d61696c20616464726573732073686f756c646e277420626520656d707479600082015250565b6000614a1c602083613625565b9150614a27826149e6565b602082019050919050565b60006020820190508181036000830152614a4b81614a0f565b9050919050565b7f4272616e642073686f756c646e277420626520656d7074790000000000000000600082015250565b6000614a88601883613625565b9150614a9382614a52565b602082019050919050565b60006020820190508181036000830152614ab781614a7b565b9050919050565b7f4c6963656e7365205572692073686f756c646e277420626520656d7074790000600082015250565b6000614af4601e83613625565b9150614aff82614abe565b602082019050919050565b60006020820190508181036000830152614b2381614ae7565b9050919050565b7f436f756e7472792073686f756c646e277420626520656d707479000000000000600082015250565b6000614b60601a83613625565b9150614b6b82614b2a565b602082019050919050565b60006020820190508181036000830152614b8f81614b53565b9050919050565b7f526567696f6e2073686f756c646e277420626520656d70747900000000000000600082015250565b6000614bcc601983613625565b9150614bd782614b96565b602082019050919050565b60006020820190508181036000830152614bfb81614bbf565b9050919050565b7f53746174652073686f756c646e277420626520656d7074790000000000000000600082015250565b6000614c38601883613625565b9150614c4382614c02565b602082019050919050565b60006020820190508181036000830152614c6781614c2b565b9050919050565b7f50617373776f72642073686f756c646e277420626520656d7074790000000000600082015250565b6000614ca4601b83613625565b9150614caf82614c6e565b602082019050919050565b60006020820190508181036000830152614cd381614c97565b9050919050565b7f4e487b7100000000000000000000000000000000000000000000000000000000600052603260045260246000fd5b7f52657461696c6572207075626c69632061646472657373206e6f742076616c6960008201527f6400000000000000000000000000000000000000000000000000000000000000602082015250565b6000614d65602183613625565b9150614d7082614d09565b604082019050919050565b60006020820190508181036000830152614d9481614d58565b9050919050565b7f52657461696c6572206e616d652063616e6e6f7420626520656d707479000000600082015250565b6000614dd1601d83613625565b9150614ddc82614d9b565b602082019050919050565b60006020820190508181036000830152614e0081614dc4565b9050919050565b7f4c6f636174696f6e206e616d652063616e6e6f7420626520656d707479000000600082015250565b6000614e3d601d83613625565b9150614e4882614e07565b602082019050919050565b60006020820190508181036000830152614e6c81614e30565b9050919050565b7f456d61696c20616464726573732063616e6e6f7420626520656d707479000000600082015250565b6000614ea9601d83613625565b9150614eb482614e73565b602082019050919050565b60006020820190508181036000830152614ed881614e9c565b9050919050565b7f50686f6e65206e756d6265722063616e6e6f7420626520656d70747900000000600082015250565b6000614f15601c83613625565b9150614f2082614edf565b602082019050919050565b60006020820190508181036000830152614f4481614f08565b9050919050565b60006020820190508181036000830152614f658184613636565b90509291505056fea26469706673582212205ad492607dea8c46fb51562467c664cb22674683d91c4ec8101fd6c1cb4167dd64736f6c63430008130033",
  "immutableReferences": {},
  "source": "// SPDX-License-Identifier: MIT\npragma solidity ^0.8.19;\n\ncontract QrCode {\n    event ManufacturerAdded(address indexed manufacturer);\n    event RetailerAdded(string retailer);\n    event RetailerRemoved(address indexed retailerAddress);\n\n    event PasswordChanged(address indexed admin);\n    event ownershipTransferred(address indexed newAdmin);\n\n    event ItemAdded_M(uint256 indexed id);\n    event ItemDetailsUpdated_M(\n        uint256 indexed id,\n        string itemName,\n        string description\n    );\n    event ItemRecorded_M(uint256 indexed id);\n\n    event qrHashStored(uint indexed timestamp);\n    event qrHashDeleted(uint256 _blockId);\n\n    struct Manufacturer {\n        address manPublicAddress;\n        string fullName;\n        string email;\n        string brand;\n        string licenseUri;\n        string country;\n        string region;\n        string state;\n        bool agreement;\n        string password;\n        bool isVerified;\n        bool isSignedUp;\n    }\n\n    struct Retailer {\n        address publicAddress;\n        string name;\n        string location;\n        string email;\n        string password;\n    }\n\n    struct ItemDetails {\n        string itemName;\n        string description;\n    }\n\n    //@dev create system account structure\n    struct SystemOwner {\n        address sysOwner;\n        bytes32 password; /*audit*/\n        bool isLogin;\n    }\n\n    address private owner;\n    SystemOwner private sysowner;\n\n    uint256 public s_retailerID;\n\n    mapping(address => SystemOwner) private sysOwnerMap;\n\n    mapping(address => Manufacturer) public manufacturerDetails;\n    mapping(address => mapping(address => Retailer))\n        public manufacturerToRetailerDetails;\n    mapping(address => Retailer) public retailerDetails;\n\n    //STORING\n    mapping(address => mapping(uint256 => string))\n        private qrHashMapByManufacturer; // stored by manufacturer when generating hash + id\n\n    uint256[] private manufacturerIDHashArr; //scanned by only manufacturer\n    mapping(uint => bool) private storedIDs; //just stored\n\n    //MATCHING\n    mapping(string => uint256) public matchHashToId; //used by users when scanning\n\n    mapping(string => bool) public matchedItems; //matched hash to items\n\n    mapping(uint256 => ItemDetails) public itemDetails;\n\n    constructor() {\n        owner = msg.sender;\n        sysowner = SystemOwner(owner, keccak256(abi.encode((\"admin\"))), false);\n        sysOwnerMap[owner] = sysowner;\n    }\n\n    modifier onlySysOwner() {\n        require(\n            msg.sender == owner,\n            \"Only system owner can perform this action\"\n        );\n        require(\n            msg.sender != address(0),\n            \"Only system owner can perform this action\"\n        );\n        _;\n    }\n\n    modifier onlyManufacturer() {\n        require(\n            manufacturerDetails[msg.sender].isSignedUp,\n            \"Only manufacturer can add retailer details\"\n        );\n        require(\n            msg.sender != address(0),\n            \"Only manufacturer can perform this action\"\n        );\n        _;\n    }\n\n    /*@dev System Owner functions*/\n    function loginSysOwner(\n        bytes32 _password\n    ) external onlySysOwner {\n        require(\n            sysOwnerMap[msg.sender].password ==\n                keccak256(abi.encode(_password)),\n            \"Invalid password of account address\"\n        );\n        sysOwnerMap[msg.sender].isLogin = true;\n    }\n\n    function changePassword(\n        bytes32 oldPassword,\n        bytes32 _newPassword\n    ) external onlySysOwner {\n        require(\n            sysOwnerMap[msg.sender].password ==\n                keccak256(abi.encode(oldPassword)),\n            \"Invalid old password\"\n        );\n        require(_newPassword.length > 0, \"Password should not be empty\");\n        require(\n            sysOwnerMap[msg.sender].password !=\n                keccak256(abi.encode(_newPassword)),\n            \"Invalid new password\"\n        );\n        require(sysOwnerMap[msg.sender].isLogin == true, \"Not logged in\");\n\n        emit PasswordChanged(msg.sender);\n        sysOwnerMap[msg.sender].password = _newPassword;\n    }\n\n    function transferOwnership(address _address) external onlySysOwner {\n        delete sysOwnerMap[owner];\n        emit ownershipTransferred(_address);\n        owner = _address;\n        sysOwnerMap[owner];\n    }\n\n    /**@dev Manufacturer functions*/\n    function signUpManufacturer(\n        address _manPublicAddress,\n        string memory _fullName,\n        string memory _email,\n        string memory _brand,\n        string memory _licenseUri,\n        string memory _country,\n        string memory _region,\n        string memory _state,\n        bool _agreement,\n        string memory _password\n    ) external {\n        require(msg.sender != owner, \"Address shouldn't be system owner\");\n        require(_manPublicAddress != address(0), \"Address not valid\");\n        require(\n            manufacturerDetails[_manPublicAddress].isSignedUp,\n            \"Manufacturer is already registered\"\n        );\n        require(bytes(_fullName).length > 0,\"Manufacturer name shouldn't be empty\");\n        require(bytes(_email).length > 0, \"Email address shouldn't be empty\");\n        require(bytes(_brand).length > 0, \"Brand shouldn't be empty\");\n        require(bytes(_licenseUri).length > 0, \"License Uri shouldn't be empty\");\n        require(bytes(_country).length > 0, \"Country shouldn't be empty\");\n        require(bytes(_region).length > 0, \"Region shouldn't be empty\");\n        require(bytes(_state).length > 0, \"State shouldn't be empty\");\n        require(bytes(_password).length > 0, \"Password shouldn't be empty\");\n\n        emit ManufacturerAdded(msg.sender);\n        manufacturerDetails[msg.sender] = Manufacturer(\n            _manPublicAddress,\n            _fullName,\n            _email,\n            _brand,\n            _licenseUri,\n            _country,\n            _region,\n            _state,\n            _agreement,\n            _password,\n            false,\n            true\n        );\n    }\n\n    function addRetailer(\n        address _publicAddress,\n        string memory _name,\n        string memory _location,\n        string memory _email,\n        string memory _password\n    ) external onlyManufacturer {\n        require(_publicAddress != address(0), \"Retailer public address not valid\");\n        require(bytes(_name).length > 0, \"Retailer name cannot be empty\");\n        require(bytes(_location).length > 0, \"Location name cannot be empty\");\n        require(bytes(_email).length > 0, \"Email address cannot be empty\");\n        require(bytes(_password).length > 0, \"Phone number cannot be empty\");\n\n        emit RetailerAdded(_name);\n        Retailer memory retailer = Retailer(\n            _publicAddress,\n            _name,\n            _location,\n            _email,\n            _password\n        );\n        manufacturerToRetailerDetails[msg.sender][_publicAddress] = retailer;\n        retailerDetails[_publicAddress] = retailer;\n    }\n\n    function removeRetailer(address _retailerAddress) external onlyManufacturer {\n        require(\n            manufacturerToRetailerDetails[msg.sender][_retailerAddress].publicAddress ==\n                _retailerAddress,\n            \"Retailer not found\"\n        );\n        emit RetailerRemoved(_retailerAddress);\n        delete manufacturerToRetailerDetails[msg.sender][_retailerAddress];\n        delete retailerDetails[manufacturerToRetailerDetails[msg.sender][_retailerAddress].publicAddress];\n    }\n\n    function storeQrHash(string memory _qrHash) external onlyManufacturer {\n        uint256 timestamp = block.timestamp;\n        emit qrHashStored(timestamp);\n        qrHashMapByManufacturer[msg.sender][timestamp] = _qrHash;\n        manufacturerIDHashArr.push(timestamp);\n        storedIDs[timestamp] = true;\n    }\n\n    function deleteQrHash(uint _blockId) external onlyManufacturer {\n        emit qrHashDeleted(_blockId);\n        delete qrHashMapByManufacturer[msg.sender][_blockId];\n        delete manufacturerIDHashArr[_blockId];\n        delete storedIDs[_blockId];\n    }\n\n    /// @dev returns qrcodeHash array to the manufacturer frontend\n    function getManfItemIDList()\n        external\n        view\n        onlyManufacturer\n        returns (uint256[] memory)\n    {\n        return manufacturerIDHashArr;\n    }\n\n    /// @dev !! views qrcodeHash and ID one by one. Used when manf wants to match stored ids & hashes to every item\n    function getQrHashAndID()\n        private\n        view\n        onlyManufacturer\n        returns (string memory _qrHash, uint256 _blockId)\n    {\n        _qrHash = qrHashMapByManufacturer[msg.sender][_blockId];\n\n        return (_qrHash, _blockId); //used at addItemDetails\n    }\n\n    /*@dev matches the stored hashes to each item & returns a bool for evidence */\n    function addItemDetails(\n        string memory _qrHash,\n        uint256 _blockId,\n        string memory _itemName,\n        string memory _description\n    ) external onlyManufacturer {\n        require(\n            compareStrings(\n                qrHashMapByManufacturer[msg.sender][_blockId],\n                _qrHash\n            ),\n            \"Hash isn't stored\"\n        );\n        require(storedIDs[_blockId] == true, \"ID isn't stored\");\n        require(bytes(_itemName).length > 0, \"Item name cannot be empty\");\n        require(bytes(_description).length > 0, \"Description cannot be empty\");\n\n        emit ItemAdded_M(_blockId);\n        emit ItemDetailsUpdated_M(_blockId, _itemName, _description);\n        emit ItemRecorded_M(_blockId);\n\n        matchHashToId[_qrHash] = _blockId; //update by matching\n        matchedItems[_qrHash] = true;\n\n        itemDetails[_blockId] = ItemDetails(_itemName, _description);\n    }\n\n    function scanItem(string memory _qrHash) external view returns (bool) {\n        if (matchedItems[_qrHash]) {\n            return true;\n        } else {\n            return false;\n        }\n    }\n\n    function moreDetailsForScannedItem(\n        string memory _qrHash\n    ) external view returns (ItemDetails memory) {\n        uint id = matchHashToId[_qrHash];\n        return itemDetails[id];\n    }\n\n    // Cannot directly compare strings in Solidity\n    // This function hashes the 2 strings and then compares the 2 hashes\n    function compareStrings(\n        string memory a,\n        string memory b\n    ) internal pure returns (bool) {\n        return keccak256(abi.encodePacked(a)) == keccak256(abi.encodePacked(b));\n    }\n}",
  "sourcePath": "/home/temba/fake product identification blockchain-based System/contracts/QrCode.sol",
  "compiler": {
    "name": "solc",
    "version": "0.8.19+commit.7dd6d404.Emscripten.clang"
  },
  "schemaVersion": "3.4.16",
  "updatedAt": "2024-03-23T20:59:12.624Z",
  "networkType": "ethereum",
  "devdoc": {
    "kind": "dev",
    "methods": {
      "getManfItemIDList()": {
        "details": "returns qrcodeHash array to the manufacturer frontend"
      },
      "signUpManufacturer(address,string,string,string,string,string,string,string,bool,string)": {
        "details": "Manufacturer functions"
      }
    },
    "version": 1
  },
  "userdoc": {
    "kind": "user",
    "methods": {},
    "version": 1
  }
}