{
  "contractName": "QrCode",
  "abi": [
    {
      "inputs": [],
      "stateMutability": "nonpayable",
      "type": "constructor"
    },
    {
      "anonymous": false,
      "inputs": [
        {
          "indexed": true,
          "internalType": "uint256",
          "name": "id",
          "type": "uint256"
        }
      ],
      "name": "ItemAdded_M",
      "type": "event"
    },
    {
      "anonymous": false,
      "inputs": [
        {
          "indexed": true,
          "internalType": "uint256",
          "name": "id",
          "type": "uint256"
        },
        {
          "indexed": false,
          "internalType": "string",
          "name": "itemName",
          "type": "string"
        },
        {
          "indexed": false,
          "internalType": "string",
          "name": "description",
          "type": "string"
        }
      ],
      "name": "ItemDetailsUpdated_M",
      "type": "event"
    },
    {
      "anonymous": false,
      "inputs": [
        {
          "indexed": true,
          "internalType": "uint256",
          "name": "id",
          "type": "uint256"
        }
      ],
      "name": "ItemRecorded_M",
      "type": "event"
    },
    {
      "anonymous": false,
      "inputs": [
        {
          "indexed": true,
          "internalType": "address",
          "name": "manufacturer",
          "type": "address"
        }
      ],
      "name": "ManufacturerAdded",
      "type": "event"
    },
    {
      "anonymous": false,
      "inputs": [
        {
          "indexed": true,
          "internalType": "address",
          "name": "admin",
          "type": "address"
        }
      ],
      "name": "PasswordChanged",
      "type": "event"
    },
    {
      "anonymous": false,
      "inputs": [
        {
          "indexed": false,
          "internalType": "string",
          "name": "retailer",
          "type": "string"
        }
      ],
      "name": "RetailerAdded",
      "type": "event"
    },
    {
      "anonymous": false,
      "inputs": [
        {
          "indexed": true,
          "internalType": "address",
          "name": "retailerAddress",
          "type": "address"
        }
      ],
      "name": "RetailerRemoved",
      "type": "event"
    },
    {
      "anonymous": false,
      "inputs": [
        {
          "indexed": true,
          "internalType": "address",
          "name": "newAdmin",
          "type": "address"
        }
      ],
      "name": "ownershipTransferred",
      "type": "event"
    },
    {
      "anonymous": false,
      "inputs": [
        {
          "indexed": false,
          "internalType": "uint256",
          "name": "_blockId",
          "type": "uint256"
        }
      ],
      "name": "qrHashDeleted",
      "type": "event"
    },
    {
      "anonymous": false,
      "inputs": [
        {
          "indexed": true,
          "internalType": "uint256",
          "name": "timestamp",
          "type": "uint256"
        }
      ],
      "name": "qrHashStored",
      "type": "event"
    },
    {
      "inputs": [
        {
          "internalType": "uint256",
          "name": "",
          "type": "uint256"
        }
      ],
      "name": "itemDetails",
      "outputs": [
        {
          "internalType": "string",
          "name": "itemName",
          "type": "string"
        },
        {
          "internalType": "string",
          "name": "description",
          "type": "string"
        }
      ],
      "stateMutability": "view",
      "type": "function",
      "constant": true
    },
    {
      "inputs": [
        {
          "internalType": "address",
          "name": "",
          "type": "address"
        }
      ],
      "name": "manufacturerDetails",
      "outputs": [
        {
          "internalType": "address",
          "name": "manPublicAddress",
          "type": "address"
        },
        {
          "internalType": "string",
          "name": "fullName",
          "type": "string"
        },
        {
          "internalType": "string",
          "name": "email",
          "type": "string"
        },
        {
          "internalType": "string",
          "name": "brand",
          "type": "string"
        },
        {
          "internalType": "string",
          "name": "licenseUri",
          "type": "string"
        },
        {
          "internalType": "string",
          "name": "country",
          "type": "string"
        },
        {
          "internalType": "string",
          "name": "region",
          "type": "string"
        },
        {
          "internalType": "string",
          "name": "state",
          "type": "string"
        },
        {
          "internalType": "bool",
          "name": "agreement",
          "type": "bool"
        },
        {
          "internalType": "string",
          "name": "password",
          "type": "string"
        },
        {
          "internalType": "bool",
          "name": "isVerified",
          "type": "bool"
        },
        {
          "internalType": "bool",
          "name": "isRegistered",
          "type": "bool"
        },
        {
          "internalType": "bool",
          "name": "isLogin",
          "type": "bool"
        }
      ],
      "stateMutability": "view",
      "type": "function",
      "constant": true
    },
    {
      "inputs": [
        {
          "internalType": "address",
          "name": "",
          "type": "address"
        },
        {
          "internalType": "address",
          "name": "",
          "type": "address"
        }
      ],
      "name": "manufacturerToRetailerDetails",
      "outputs": [
        {
          "internalType": "address",
          "name": "publicAddress",
          "type": "address"
        },
        {
          "internalType": "string",
          "name": "name",
          "type": "string"
        },
        {
          "internalType": "string",
          "name": "location",
          "type": "string"
        },
        {
          "internalType": "string",
          "name": "email",
          "type": "string"
        },
        {
          "internalType": "string",
          "name": "password",
          "type": "string"
        }
      ],
      "stateMutability": "view",
      "type": "function",
      "constant": true
    },
    {
      "inputs": [
        {
          "internalType": "string",
          "name": "",
          "type": "string"
        }
      ],
      "name": "matchHashToId",
      "outputs": [
        {
          "internalType": "uint256",
          "name": "",
          "type": "uint256"
        }
      ],
      "stateMutability": "view",
      "type": "function",
      "constant": true
    },
    {
      "inputs": [
        {
          "internalType": "string",
          "name": "",
          "type": "string"
        }
      ],
      "name": "matchedItems",
      "outputs": [
        {
          "internalType": "bool",
          "name": "",
          "type": "bool"
        }
      ],
      "stateMutability": "view",
      "type": "function",
      "constant": true
    },
    {
      "inputs": [
        {
          "internalType": "address",
          "name": "",
          "type": "address"
        }
      ],
      "name": "retailerDetails",
      "outputs": [
        {
          "internalType": "address",
          "name": "publicAddress",
          "type": "address"
        },
        {
          "internalType": "string",
          "name": "name",
          "type": "string"
        },
        {
          "internalType": "string",
          "name": "location",
          "type": "string"
        },
        {
          "internalType": "string",
          "name": "email",
          "type": "string"
        },
        {
          "internalType": "string",
          "name": "password",
          "type": "string"
        }
      ],
      "stateMutability": "view",
      "type": "function",
      "constant": true
    },
    {
      "inputs": [],
      "name": "s_retailerID",
      "outputs": [
        {
          "internalType": "uint256",
          "name": "",
          "type": "uint256"
        }
      ],
      "stateMutability": "view",
      "type": "function",
      "constant": true
    },
    {
      "inputs": [
        {
          "internalType": "bytes32",
          "name": "_password",
          "type": "bytes32"
        }
      ],
      "name": "loginSysOwner",
      "outputs": [],
      "stateMutability": "nonpayable",
      "type": "function"
    },
    {
      "inputs": [
        {
          "internalType": "bytes32",
          "name": "oldPassword",
          "type": "bytes32"
        },
        {
          "internalType": "bytes32",
          "name": "_newPassword",
          "type": "bytes32"
        }
      ],
      "name": "changePassword",
      "outputs": [],
      "stateMutability": "nonpayable",
      "type": "function"
    },
    {
      "inputs": [
        {
          "internalType": "address",
          "name": "_address",
          "type": "address"
        }
      ],
      "name": "transferOwnership",
      "outputs": [],
      "stateMutability": "nonpayable",
      "type": "function"
    },
    {
      "inputs": [
        {
          "internalType": "address",
          "name": "_manPublicAddress",
          "type": "address"
        },
        {
          "internalType": "string",
          "name": "_fullName",
          "type": "string"
        },
        {
          "internalType": "string",
          "name": "_email",
          "type": "string"
        },
        {
          "internalType": "string",
          "name": "_brand",
          "type": "string"
        },
        {
          "internalType": "string",
          "name": "_licenseUri",
          "type": "string"
        },
        {
          "internalType": "string",
          "name": "_country",
          "type": "string"
        },
        {
          "internalType": "string",
          "name": "_region",
          "type": "string"
        },
        {
          "internalType": "string",
          "name": "_state",
          "type": "string"
        },
        {
          "internalType": "bool",
          "name": "_agreement",
          "type": "bool"
        },
        {
          "internalType": "string",
          "name": "_password",
          "type": "string"
        }
      ],
      "name": "signUpManufacturer",
      "outputs": [],
      "stateMutability": "nonpayable",
      "type": "function"
    },
    {
      "inputs": [
        {
          "internalType": "address",
          "name": "_manufacturerAddress",
          "type": "address"
        }
      ],
      "name": "verifyManufacturer",
      "outputs": [],
      "stateMutability": "nonpayable",
      "type": "function"
    },
    {
      "inputs": [
        {
          "internalType": "address",
          "name": "_MNPublicAddress",
          "type": "address"
        },
        {
          "internalType": "string",
          "name": "_password",
          "type": "string"
        }
      ],
      "name": "manufacturerLogin",
      "outputs": [],
      "stateMutability": "nonpayable",
      "type": "function"
    },
    {
      "inputs": [
        {
          "internalType": "address",
          "name": "_publicAddress",
          "type": "address"
        },
        {
          "internalType": "string",
          "name": "_name",
          "type": "string"
        },
        {
          "internalType": "string",
          "name": "_location",
          "type": "string"
        },
        {
          "internalType": "string",
          "name": "_email",
          "type": "string"
        },
        {
          "internalType": "string",
          "name": "_password",
          "type": "string"
        }
      ],
      "name": "addRetailer",
      "outputs": [],
      "stateMutability": "nonpayable",
      "type": "function"
    },
    {
      "inputs": [
        {
          "internalType": "address",
          "name": "_retailerAddress",
          "type": "address"
        }
      ],
      "name": "removeRetailer",
      "outputs": [],
      "stateMutability": "nonpayable",
      "type": "function"
    },
    {
      "inputs": [
        {
          "internalType": "string",
          "name": "_qrHash",
          "type": "string"
        }
      ],
      "name": "storeQrHash",
      "outputs": [],
      "stateMutability": "nonpayable",
      "type": "function"
    },
    {
      "inputs": [
        {
          "internalType": "uint256",
          "name": "_blockId",
          "type": "uint256"
        }
      ],
      "name": "deleteQrHash",
      "outputs": [],
      "stateMutability": "nonpayable",
      "type": "function"
    },
    {
      "inputs": [],
      "name": "getManufacturerArray",
      "outputs": [
        {
          "internalType": "address[]",
          "name": "",
          "type": "address[]"
        }
      ],
      "stateMutability": "view",
      "type": "function",
      "constant": true
    },
    {
      "inputs": [
        {
          "internalType": "address",
          "name": "_manPublicAddress",
          "type": "address"
        }
      ],
      "name": "getManufacturer",
      "outputs": [
        {
          "internalType": "address",
          "name": "manPublicAddress",
          "type": "address"
        },
        {
          "internalType": "string",
          "name": "email",
          "type": "string"
        },
        {
          "internalType": "string",
          "name": "fullName",
          "type": "string"
        },
        {
          "internalType": "string",
          "name": "brand",
          "type": "string"
        },
        {
          "internalType": "string",
          "name": "licenseUri",
          "type": "string"
        },
        {
          "internalType": "string",
          "name": "country",
          "type": "string"
        },
        {
          "internalType": "string",
          "name": "region",
          "type": "string"
        },
        {
          "internalType": "string",
          "name": "state",
          "type": "string"
        },
        {
          "internalType": "bool",
          "name": "agreement",
          "type": "bool"
        },
        {
          "internalType": "bool",
          "name": "isVerified",
          "type": "bool"
        }
      ],
      "stateMutability": "view",
      "type": "function",
      "constant": true
    },
    {
      "inputs": [],
      "name": "getManfItemIDList",
      "outputs": [
        {
          "internalType": "uint256[]",
          "name": "",
          "type": "uint256[]"
        }
      ],
      "stateMutability": "view",
      "type": "function",
      "constant": true
    },
    {
      "inputs": [
        {
          "internalType": "address",
          "name": "_manPublicAddress",
          "type": "address"
        },
        {
          "internalType": "uint256",
          "name": "_blockId",
          "type": "uint256"
        }
      ],
      "name": "getQrHashAndID",
      "outputs": [
        {
          "internalType": "string",
          "name": "qrHash",
          "type": "string"
        },
        {
          "internalType": "uint256",
          "name": "blockId",
          "type": "uint256"
        }
      ],
      "stateMutability": "view",
      "type": "function",
      "constant": true
    },
    {
      "inputs": [
        {
          "internalType": "string",
          "name": "_qrHash",
          "type": "string"
        },
        {
          "internalType": "uint256",
          "name": "_blockId",
          "type": "uint256"
        },
        {
          "internalType": "string",
          "name": "_itemName",
          "type": "string"
        },
        {
          "internalType": "string",
          "name": "_description",
          "type": "string"
        }
      ],
      "name": "addItemDetails",
      "outputs": [],
      "stateMutability": "nonpayable",
      "type": "function"
    },
    {
      "inputs": [
        {
          "internalType": "string",
          "name": "_qrHash",
          "type": "string"
        }
      ],
      "name": "scanItem",
      "outputs": [
        {
          "internalType": "bool",
          "name": "",
          "type": "bool"
        }
      ],
      "stateMutability": "view",
      "type": "function",
      "constant": true
    },
    {
      "inputs": [
        {
          "internalType": "string",
          "name": "_qrHash",
          "type": "string"
        }
      ],
      "name": "moreDetailsForScannedItem",
      "outputs": [
        {
          "components": [
            {
              "internalType": "string",
              "name": "itemName",
              "type": "string"
            },
            {
              "internalType": "string",
              "name": "description",
              "type": "string"
            }
          ],
          "internalType": "struct QrCode.ItemDetails",
          "name": "",
          "type": "tuple"
        }
      ],
      "stateMutability": "view",
      "type": "function",
      "constant": true
    }
  ],
  "bytecode": "0x6080346200013757600160a060020a03196000913382845416178355602081019060208252600560408201527f61646d696e0000000000000000000000000000000000000000000000000000006060820152606081526080810167ffffffffffffffff92828210848311176200010a5781604052825190209260e0830190828210908211176200010a579160c09186936040523390528360a0820152015233826001541617600155600255604060ff1992836003541660035533815260056020522060018103620000db575b60405161347c90816200013d8239f35b600291339082541617815581546001820155019060ff80600354161515918354169116179055388080620000cb565b6024867f4e487b710000000000000000000000000000000000000000000000000000000081526041600452fd5b600080fdfe608080604052600436101561001357600080fd5b7c010000000000000000000000000000000000000000000000000000000060003504908163191bcef614612d59575080631bef85c014612c8b5780631fb4e3f014612c4c578063292785fc14612a875780632bb9cd92146125ac5780635c9e052a146123ed5780636030775e146123a857806365680795146122b75780636c3a98ae146122995780636f3911bc146121d157806370099ec8146120a0578063719f29721461152657806377f40e33146114d75780637a788e0a146114215780638d11d5ff1461138e57806396df34461461134b578063bb569267146112e2578063d64a3d8b14611222578063daa7f64b14610621578063de5df3981461058d578063e38483a3146103b0578063f2fde38b1461031b578063fb262c30146102be5763fe244c371461014357600080fd5b346102b95760203660031901126102b957600160a060020a0380610165612f20565b166000526006602052604060002090815416600182016101849061306e565b916101916002820161306e565b61019d6003830161306e565b916101aa6004820161306e565b6101b66005830161306e565b6101c26006840161306e565b906101cf6007850161306e565b92600885015460ff1696600986016101e69061306e565b95600a0154966040519a8b9a8b526101a08060208d01528b0161020891612f59565b8a810360408c015261021991612f59565b89810360608b015261022a91612f59565b88810360808a015261023b91612f59565b87810360a089015261024c91612f59565b86810360c088015261025d91612f59565b85810360e087015261026e91612f59565b6101009315158486015284810361012086015261028a91612f59565b9160ff82161515610140850152810460ff16151561016084015262010000900460ff1615156101808301520390f35b600080fd5b346102b95760203660031901126102b95760043567ffffffffffffffff81116102b95761030860206102f581933690600401612fd9565b8160405193828580945193849201612f36565b8101600d81520301902054604051908152f35b346102b95760203660031901126102b957610334612f20565b600160a060020a0390816000541661034d813314613193565b610358331515613193565b60005260056020526000600260408220828155826001820155015516807fac9a252a3ed2d3fcc198677953ffe98ac492e191a4605978c655f8ce4ae80676600080a2600160a060020a03196000541617600055600080f35b346102b9576020806003193601126102b95767ffffffffffffffff6004358181116102b9576103e3903690600401612fd9565b90427f9376d1f5ae2781161467d7ecca7bb235a2f861272b40eca70ea487d3005004d0600080a233600052600a8352604060002042600052835260406000209180519182116104c85781906104388454613030565b601f8111610554575b508490601f83116001146104ec576000926104e1575b5050816002029160080260020a6000190419161790555b600b5490680100000000000000008210156104c857610495826001600c9401600b5561321e565b60088254910260020a9081600003809242021691191617905542600052526040600020600160ff19825416179055600080f35b60e060020a634e487b7102600052604160045260246000fd5b015190508480610457565b60008581528681209350601f198516905b8782821061053e5750509160029391856001969410610523575b5050500201905561046e565b01516008601f841602840a6000190419169055858080610517565b60018596829396860151815501950193016104fd565b61057d9085600052866000208780601f870104820192818710610583575b601f01040190613207565b85610441565b9192508291610572565b346102b95760403660031901126102b9576105a6612f20565b602435600160a060020a03918282168092036102b9578216600052600860205260406000209060005260205260406000209081541661061d6105ea6001840161306e565b926105f76002820161306e565b9061061060046106096003840161306e565b920161306e565b916040519586958661313b565b0390f35b346102b95760a03660031901126102b95761063a612f20565b60243567ffffffffffffffff81116102b95761065a903690600401612fd9565b6044803567ffffffffffffffff81116102b95761067b903690600401612fd9565b606490813567ffffffffffffffff81116102b95761069d903690600401612fd9565b9160843567ffffffffffffffff81116102b9576106be903690600401612fd9565b933360005260066020526106e060ff610100600a604060002001540416613255565b6106eb3315156132c9565b600160a060020a038716156111b7578551156111735782511561112f578351156110eb578451156110a75750507f73d87f380e0a7b768520275cc06c6143276be057013aa419a14c7f88e47f915f604051602081528061074e6020820188612f59565b0390a16040519360a0850185811067ffffffffffffffff8211176104c857604052600160a060020a038616855260208501526040840152606083015260808201523360005260086020526040600020600160a060020a038316600052602052604060002091600160a060020a03825116600160a060020a0319845416178355602082015180519067ffffffffffffffff82116104c85781906107f36001870154613030565b601f8111611071575b50602090601f8311600114610ffd57600092610ff2575b5050816002029160080260020a6000190419161760018401555b604082015180519067ffffffffffffffff82116104c85781906108536002870154613030565b601f8111610fbc575b50602090601f8311600114610f4857600092610f3d575b5050816002029160080260020a6000190419161760028401555b606082015180519067ffffffffffffffff82116104c85781906108b36003870154613030565b601f8111610f07575b50602090601f8311600114610e9357600092610e88575b5050816002029160080260020a6000190419161760038401555b608082015192835167ffffffffffffffff81116104c8576109116004830154613030565b601f8111610e52575b506020601f8211600114610dd7579080600492600160a060020a039697600092610dcc575b5050816002029160080260020a600019041916179101555b166000526009602052604060002090600160a060020a03815116600160a060020a0319835416178255602081015180519067ffffffffffffffff82116104c85781906109a66001860154613030565b601f8111610d96575b50602090601f8311600114610d2257600092610d17575b5050816002029160080260020a6000190419161760018301555b604081015180519067ffffffffffffffff82116104c8578190610a066002860154613030565b601f8111610ce1575b50602090601f8311600114610c6d57600092610c62575b5050816002029160080260020a6000190419161760028301555b6003820191606082015192835167ffffffffffffffff81116104c857610a668254613030565b601f8111610c2f575b506020601f8211600114610bbe579080600494939260809697600092610bb3575b5050816002029160080260020a6000190419161790555b0191015180519067ffffffffffffffff82116104c8578190610ac98454613030565b601f8111610b75575b50602090601f8311600114610b0f57600092610b04575b5050816002029160080260020a600019041916179055600080f35b015190508380610ae9565b6000858152602081209350601f198516905b818110610b5d57509160029391856001969410610b42575b50505002019055005b01516008601f841602840a6000190419169055848080610b39565b92936020600181928786015181550195019301610b21565b610ba3908560005260206000206020601f86010481019160208610610ba9575b601f60209101040190613207565b84610ad2565b9091508190610b95565b015190508780610a90565b601f198216958360005260206000209660005b818110610c175750926080969760019360029383600499989710610bfc575b50505002019055610aa7565b01516008601f841602840a6000190419169055888080610bf0565b83830151895560019098019760209384019301610bd1565b610c5c908360005260206000206020601f85010481019160208510610ba957601f60209101040190613207565b85610a6f565b015190508480610a26565b91506002850160005260206000209160005b601f1985168110610cc95750918391600293600195601f19811610610cae575b50505002016002830155610a40565b01516008601f841602840a6000190419169055858080610c9f565b91926020600181928685015181550194019201610c7f565b610d11906002870160005260206000206020601f86010481019160208610610ba957601f60209101040190613207565b85610a0f565b0151905084806109c6565b91506001850160005260206000209160005b601f1985168110610d7e5750918391600293600195601f19811610610d63575b505050020160018301556109e0565b01516008601f841602840a6000190419169055858080610d54565b91926020600181928685015181550194019201610d34565b610dc6906001870160005260206000206020601f86010481019160208610610ba957601f60209101040190613207565b856109af565b01519050878061093f565b6004830160005260206000209560005b601f1984168110610e3a575082600160a060020a039697600193600293600496601f19811610610e1f575b5050500201910155610957565b01516008601f841602840a6000190419169055888080610e12565b82820151885560019097019660209283019201610de7565b610e82906004840160005260206000206020601f85010481019160208510610ba957601f60209101040190613207565b8561091a565b0151905085806108d3565b91506003860160005260206000209160005b601f1985168110610eef5750918391600293600195601f19811610610ed4575b505050020160038401556108ed565b01516008601f841602840a6000190419169055868080610ec5565b91926020600181928685015181550194019201610ea5565b610f37906003880160005260206000206020601f86010481019160208610610ba957601f60209101040190613207565b866108bc565b015190508580610873565b91506002860160005260206000209160005b601f1985168110610fa45750918391600293600195601f19811610610f89575b5050500201600284015561088d565b01516008601f841602840a6000190419169055868080610f7a565b91926020600181928685015181550194019201610f5a565b610fec906002880160005260206000206020601f86010481019160208610610ba957601f60209101040190613207565b8661085c565b015190508580610813565b91506001860160005260206000209160005b601f19851681106110595750918391600293600195601f1981161061103e575b5050500201600184015561082d565b01516008601f841602840a600019041916905586808061102f565b9192602060018192868501518155019401920161100f565b6110a1906001880160005260206000206020601f86010481019160208610610ba957601f60209101040190613207565b866107fc565b7f50686f6e65206e756d6265722063616e6e6f7420626520656d707479000000006040519160e560020a62461bcd02835260206004840152601c6024840152820152fd5b7f456d61696c20616464726573732063616e6e6f7420626520656d7074790000006040519160e560020a62461bcd02835260206004840152601d6024840152820152fd5b7f4c6f636174696f6e206e616d652063616e6e6f7420626520656d7074790000006040519160e560020a62461bcd02835260206004840152601d6024840152820152fd5b7f52657461696c6572206e616d652063616e6e6f7420626520656d7074790000006040519160e560020a62461bcd02835260206004840152601d6024840152820152fd5b7f64000000000000000000000000000000000000000000000000000000000000006084927f52657461696c6572207075626c69632061646472657373206e6f742076616c696040519360e560020a62461bcd0285526020600486015260216024860152840152820152fd5b346102b95760203660031901126102b95761123b612f20565b600160a060020a039061125382600054163314613193565b61125e331515613193565b1680600052600660205260ff610100600a6040600020015404161561129b576000908152600660205260409020600a01805460ff19166001179055005b606460405160e560020a62461bcd02815260206004820152601e60248201527f6d616e756661637475726572206973206e6f74207265676973746572656400006044820152fd5b346102b95760403660031901126102b9576113416112fe612f20565b600160a060020a036024359116600052600a60205260406000208160005260205261132c604060002061306e565b90604051928392604084526040840190612f59565b9060208301520390f35b346102b95760203660031901126102b957600160a060020a038061136d612f20565b16600052600960205260406000209081541661061d6105ea6001840161306e565b346102b95760203660031901126102b9576004357f4140c73226c8ea512653d2920a7fbe10a0c0fe3c5f07aee8be2cad8b2b9a772f6020604051838152a133600052600a6020526040600020816000526020526113ee604060002061333d565b6113f78161321e565b60088254910260020a60000319169055600052600c602052604060002060ff198154169055600080f35b346102b95760003660031901126102b95760405180600b5480835260208093018091600b6000527f0175b7a638427703f0dbe7bb9bbf987a2551717b34e79f33b5b1008d1fa01db99060005b868282106114c357868661148382880383612fb7565b604051928392818401908285525180915260408401929160005b8281106114ac57505050500390f35b83518552869550938101939281019260010161149d565b83548552909301926001928301920161146d565b346102b95760203660031901126102b95760043567ffffffffffffffff81116102b95760ff61151060206102f581943690600401612fd9565b8101600e81520301902054166040519015158152f35b346102b9576101403660031901126102b957611540612f20565b60243567ffffffffffffffff81116102b957611560903690600401612fd9565b9060443567ffffffffffffffff81116102b957611581903690600401612fd9565b60643567ffffffffffffffff81116102b9576115a1903690600401612fd9565b60843567ffffffffffffffff81116102b9576115c1903690600401612fd9565b60a43567ffffffffffffffff81116102b9576115e1903690600401612fd9565b60c43567ffffffffffffffff81116102b957611601903690600401612fd9565b9060e43567ffffffffffffffff81116102b957611622903690600401612fd9565b92610104359485151586036102b9576101243567ffffffffffffffff81116102b957611652903690600401612fd9565b9660405199337f561138658ca49a8540dc70dcfe64c9026c1c5b9344642242dd6562970f9c1278600080a26116868b612f7e565b600160a060020a038a168b5260208b015260408a01526060890152608088015260a087015260c086015260e08501521515610100840152610120830152600061014083015260016101608301526000610180830152336000526006602052604060002091600160a060020a03815116600160a060020a0319845416178355602081015180519067ffffffffffffffff82116104c857819061172a6001870154613030565b601f811161206a575b50602090601f8311600114611ff657600092611feb575b5050816002029160080260020a6000190419161760018401555b604081015180519067ffffffffffffffff82116104c857819061178a6002870154613030565b601f8111611fb5575b50602090601f8311600114611f4157600092611f36575b5050816002029160080260020a6000190419161760028401555b606081015180519067ffffffffffffffff82116104c85781906117ea6003870154613030565b601f8111611f00575b50602090601f8311600114611e8c57600092611e81575b5050816002029160080260020a6000190419161760038401555b608081015180519067ffffffffffffffff82116104c857819061184a6004870154613030565b601f8111611e4b575b50602090601f8311600114611dd757600092611dcc575b5050816002029160080260020a6000190419161760048401555b60a081015180519067ffffffffffffffff82116104c85781906118aa6005870154613030565b601f8111611d96575b50602090601f8311600114611d2257600092611d17575b5050816002029160080260020a6000190419161760058401555b60c081015180519067ffffffffffffffff82116104c857819061190a6006870154613030565b601f8111611ce1575b50602090601f8311600114611c6d57600092611c62575b5050816002029160080260020a6000190419161760068401555b60e081015180519067ffffffffffffffff82116104c857819061196a6007870154613030565b601f8111611c2c575b50602090601f8311600114611bb857600092611bad575b5050816002029160080260020a6000190419161760078401555b6119c46101008201511515600885019060ff801983541691151516179055565b61012081015192835167ffffffffffffffff81116104c8576119e96009830154613030565b601f8111611b77575b506020601f8211600114611b01578190600a949596600092611af6575b5050816002029160080260020a6000190419161760098201555b0190611a486101408201511515839060ff801983541691151516179055565b61016081015115159061ff0061010062ff0000620100006101808754950151151502169302169062ffff00191617179055600754680100000000000000008110156104c8576001810180600755811015611add57600160a060020a03907fa66cc928b5edb82af9bd49922954155ab7b0942694bea4ce44661d9a8736c688019116600160a060020a0319825416179055600080f35b60e060020a634e487b7102600052603260045260246000fd5b015190508680611a0f565b6009830160005260206000209560005b601f1984168110611b5f575091600a94959660029260019483601f19811610611b44575b50505002016009820155611a29565b01516008601f841602840a6000190419169055878080611b35565b82820151885560019097019660209283019201611b11565b611ba7906009840160005260206000206020601f85010481019160208510610ba957601f60209101040190613207565b856119f2565b01519050858061198a565b91506007860160005260206000209160005b601f1985168110611c145750918391600293600195601f19811610611bf9575b505050020160078401556119a4565b01516008601f841602840a6000190419169055868080611bea565b91926020600181928685015181550194019201611bca565b611c5c906007880160005260206000206020601f86010481019160208610610ba957601f60209101040190613207565b86611973565b01519050858061192a565b91506006860160005260206000209160005b601f1985168110611cc95750918391600293600195601f19811610611cae575b50505002016006840155611944565b01516008601f841602840a6000190419169055868080611c9f565b91926020600181928685015181550194019201611c7f565b611d11906006880160005260206000206020601f86010481019160208610610ba957601f60209101040190613207565b86611913565b0151905085806118ca565b91506005860160005260206000209160005b601f1985168110611d7e5750918391600293600195601f19811610611d63575b505050020160058401556118e4565b01516008601f841602840a6000190419169055868080611d54565b91926020600181928685015181550194019201611d34565b611dc6906005880160005260206000206020601f86010481019160208610610ba957601f60209101040190613207565b866118b3565b01519050858061186a565b91506004860160005260206000209160005b601f1985168110611e335750918391600293600195601f19811610611e18575b50505002016004840155611884565b01516008601f841602840a6000190419169055868080611e09565b91926020600181928685015181550194019201611de9565b611e7b906004880160005260206000206020601f86010481019160208610610ba957601f60209101040190613207565b86611853565b01519050858061180a565b91506003860160005260206000209160005b601f1985168110611ee85750918391600293600195601f19811610611ecd575b50505002016003840155611824565b01516008601f841602840a6000190419169055868080611ebe565b91926020600181928685015181550194019201611e9e565b611f30906003880160005260206000206020601f86010481019160208610610ba957601f60209101040190613207565b866117f3565b0151905085806117aa565b91506002860160005260206000209160005b601f1985168110611f9d5750918391600293600195601f19811610611f82575b505050020160028401556117c4565b01516008601f841602840a6000190419169055868080611f73565b91926020600181928685015181550194019201611f53565b611fe5906002880160005260206000206020601f86010481019160208610610ba957601f60209101040190613207565b86611793565b01519050858061174a565b91506001860160005260206000209160005b601f19851681106120525750918391600293600195601f19811610612037575b50505002016001840155611764565b01516008601f841602840a6000190419169055868080612028565b91926020600181928685015181550194019201612008565b61209a906001880160005260206000206020601f86010481019160208610610ba957601f60209101040190613207565b86611733565b346102b9576020806003193601126102b9576120ba612f20565b9033600052600681526120db60ff610100600a604060002001540416613255565b6120e63315156132c9565b3360005260088152604060002091600160a060020a03809116928360005282528281604060002054160361218a57826009937fdb7176e79cffef81cb01767dd0447a0b24bb72ca9778d4b245581086b2a7e6db600080a23360005260088352604060002081600052835261215d6040600020613385565b3360005260088352604060002090600052825260406000205416600052526121886040600020613385565b005b6064826040519060e560020a62461bcd0282526004820152601260248201527f52657461696c6572206e6f7420666f756e6400000000000000000000000000006044820152fd5b346102b95760003660031901126102b957604051806007548083526020809301809160076000527fa66cc928b5edb82af9bd49922954155ab7b0942694bea4ce44661d9a8736c6889060005b8682821061227c57868661223382880383612fb7565b604051928392818401908285525180915260408401929160005b82811061225c57505050500390f35b8351600160a060020a03168552869550938101939281019260010161224d565b8354600160a060020a03168552909301926001928301920161221d565b346102b95760003660031901126102b9576020600454604051908152f35b346102b9576020806003193601126102b9576122df600160a060020a03600054163314613193565b6122ea331515613193565b336000526005815260016040600020015460405182810190600435825283815261231381612f9b565b5190200361233b5760059033600052526002604060002001600160ff19825416179055600080f35b6084906040519060e560020a62461bcd0282526004820152602360248201527f496e76616c69642070617373776f7264206f66206163636f756e74206164647260448201527f65737300000000000000000000000000000000000000000000000000000000006064820152fd5b346102b95760203660031901126102b95760043567ffffffffffffffff81116102b9576123e36123de6020923690600401612fd9565b6133b9565b6040519015158152f35b346102b95760403660031901126102b957612406612f20565b60243567ffffffffffffffff81116102b95761242e600160a060020a03913690600401612fd9565b911690816000526020906006825260ff610100600a6040600020015404161561256557826000526006825260ff600a6040600020015416156124f85761248b908360005260068352612486600960406000200161306e565b6133f1565b156124b15760009182526006905260409020600a01805462ff0000191662010000179055005b6064906040519060e560020a62461bcd0282526004820152601b60248201527f496e76616c69642061646472657373206f722070617373776f726400000000006044820152fd5b6084826040519060e560020a62461bcd0282526004820152602660248201527f596f7572206e6f74207665726966696564206173206d616e756661637475726560448201527f72207965742100000000000000000000000000000000000000000000000000006064820152fd5b6064826040519060e560020a62461bcd0282526004820152601860248201527f596f7572206e6f742072656769737465726564207965742100000000000000006044820152fd5b346102b95760803660031901126102b95767ffffffffffffffff6004358181116102b9576125de903690600401612fd9565b6024918235916044358281116102b9576125fc903690600401612fd9565b906064358381116102b957612615903690600401612fd9565b9333600052602090600a8252604060002081600052825261263d83612486604060002061306e565b15612a415780600052600c82526001928360ff604060002054161515036129fb578451156129b55786511561296f578261272691837f63bcdba1660b19ba3aaaf6afe05409cc2811b84ad557ca33f7eda874ac3a89b0604051827f611520fe479942fc842c72a2974cc0bf4746653a8b34285ba197c7192fd4721d600080a2806126c88d8c83613113565b0390a260405190847f2c43e921afd657149a59b6382398172493954880204131eb2a51b28468908389600080a28481519284818185019561270a818389612f36565b8101600d81520301902055604051938492839251928391612f36565b8101600e8152030190208360ff198254161790556040519361274785612f9b565b8452818401958652600052600f815260406000209251928351908582116129575783916127748254613030565b95601f9687811161292b575b5084908783116001146128c35760009190836128b8575b5050816002029160080260020a6000190419161781555b0194519586519485116128a157506127c68554613030565b83811161286b575b50809280851160011461280357505050819293600092610b04575050816002029160080260020a600019041916179055600080f35b90919392601f198416968660005283600020936000905b89821061285457505084600296979810612839575b5050505002019055005b0151908316600802840a60001904191690558480808061282f565b80888597829496860151815501960193019061281a565b612892908660005282600020838681818a0104830193828a10612898575b01040190613207565b866127ce565b93508293612889565b60e060020a634e487b710260005260416004526000fd5b015190508a80612797565b90601f1983169184600052866000209260005b88828210612915575050916002939185889694106128fb575b505050020181556127ae565b01516008838b1602840a60001904191690558b80806128ef565b8385015186558a989095019493840193016128d6565b612951908460005286600020878a81818801048301938288106128985701040190613207565b8a612780565b8760e060020a634e487b710260005260416004526000fd5b606483601b8a6040519260e560020a62461bcd02845260048401528201527f4465736372697074696f6e2063616e6e6f7420626520656d70747900000000006044820152fd5b60648360198a6040519260e560020a62461bcd02845260048401528201527f4974656d206e616d652063616e6e6f7420626520656d707479000000000000006044820152fd5b606483600f8a6040519260e560020a62461bcd02845260048401528201527f49442069736e27742073746f72656400000000000000000000000000000000006044820152fd5b6064826011896040519260e560020a62461bcd02845260048401528201527f486173682069736e27742073746f7265640000000000000000000000000000006044820152fd5b346102b95760403660031901126102b957602435612ab1600160a060020a03600054163314613193565b612abc331515613193565b33600052602060058152600160406000200154604051828101906004358252838152612ae781612f9b565b51902003612c0557336000526005815260016040600020015460405182810190848252838152612b1681612f9b565b51902014612bbe573360005260058152600160ff60026040600020015416151503612b7757600590337f85a52c4d6d605a61db8affa2383ae4d5aeefe6f4363c35174504042b4a0ee9b6600080a23360005252600160406000200155600080f35b6064906040519060e560020a62461bcd0282526004820152600d60248201527f4e6f74206c6f6767656420696e000000000000000000000000000000000000006044820152fd5b6064906040519060e560020a62461bcd0282526004820152601460248201527f496e76616c6964206e65772070617373776f72640000000000000000000000006044820152fd5b6064906040519060e560020a62461bcd0282526004820152601460248201527f496e76616c6964206f6c642070617373776f72640000000000000000000000006044820152fd5b346102b95760203660031901126102b957600435600052600f6020526040600020612c7b60016106098361306e565b9061061d60405192839283613113565b346102b9576020806003193601126102b9576004359067ffffffffffffffff82116102b957612ce981612cc46040943690600401612fd9565b6060828651612cd281612f9b565b828152015281855193828580945193849201612f36565b8101600d81520301902054600052600f815261061d8260002091612d46612d286001865195612d1787612f9b565b612d208161306e565b87520161306e565b91808501928352855195869582875251918601526060850190612f59565b9051838203601f19016040850152612f59565b346102b95760203660031901126102b957600160a060020a0380612d7b612f20565b1660005260066020526040600020612d9283612f7e565b805482168352612da46001820161306e565b6020840190815291612db86002830161306e565b6040850190815292612dcc6003840161306e565b60608601908152612ddf6004850161306e565b60808701908152612df26005860161306e565b60a08801908152612e056006870161306e565b60c0890190815290612e196007880161306e565b9260e08a01938452600888015460ff169461010098898c01961515875260098101612e439061306e565b6101208d0152600a01549760ff891615159b8c996101409d8e8301528b810460ff16151561016083015262010000900460ff1615156101808201525116995196519051915192519351945195511515966040519b8c9b8c528060208d01528b01612eac91612f59565b8a810360408c0152612ebd91612f59565b89810360608b0152612ece91612f59565b88810360808a0152612edf91612f59565b87810360a0890152612ef091612f59565b86810360c0880152612f0191612f59565b85810360e0870152612f1291612f59565b928401526101208301520390f35b60043590600160a060020a03821682036102b957565b60005b838110612f495750506000910152565b8181015183820152602001612f39565b90602091612f7281518092818552858086019101612f36565b601f01601f1916010190565b6101a0810190811067ffffffffffffffff8211176104c857604052565b6040810190811067ffffffffffffffff8211176104c857604052565b90601f8019910116810190811067ffffffffffffffff8211176104c857604052565b81601f820112156102b95780359067ffffffffffffffff82116104c8576040519261300e601f8401601f191660200185612fb7565b828452602083830101116102b957816000926020809301838601378301015290565b9060016002830492168015613064575b602083101461304b57565b60e060020a634e487b7102600052602260045260246000fd5b91607f1691613040565b906040519182600082549261308284613030565b9081845260019485811690816000146130f157506001146130ae575b50506130ac92500383612fb7565b565b9093915060005260209081600020936000915b8183106130d95750506130ac9350820101388061309e565b855488840185015294850194879450918301916130c1565b9150506130ac94506020925060ff19168284015215158102820101388061309e565b909161312a61313893604084526040840190612f59565b916020818403910152612f59565b90565b9390613138959361316961318594600160a060020a036131779416885260a0602089015260a0880190612f59565b908682036040880152612f59565b908482036060860152612f59565b916080818403910152612f59565b1561319a57565b608460405160e560020a62461bcd02815260206004820152602960248201527f4f6e6c792073797374656d206f776e65722063616e20706572666f726d20746860448201527f697320616374696f6e00000000000000000000000000000000000000000000006064820152fd5b818110613212575050565b60008155600101613207565b600b54811015611add57600b6000527f0175b7a638427703f0dbe7bb9bbf987a2551717b34e79f33b5b1008d1fa01db90190600090565b1561325c57565b608460405160e560020a62461bcd02815260206004820152602a60248201527f4f6e6c79206d616e7566616374757265722063616e206164642072657461696c60448201527f65722064657461696c73000000000000000000000000000000000000000000006064820152fd5b156132d057565b608460405160e560020a62461bcd02815260206004820152602960248201527f4f6e6c79206d616e7566616374757265722063616e20706572666f726d20746860448201527f697320616374696f6e00000000000000000000000000000000000000000000006064820152fd5b6133478154613030565b9081613351575050565b81601f60009311600114613363575055565b9080839182526133816020601f818520950104840160018501613207565b5555565b60046130ac916000815561339b6001820161333d565b6133a76002820161333d565b6133b36003820161333d565b0161333d565b6133d4602060ff928160405193828580945193849201612f36565b8101600e81520301902054166000146133ec57600190565b600090565b906040519160209261341f8482816134128183019687815193849201612f36565b8101038084520182612fb7565b5190209161343f6040519182816134128183019687815193849201612f36565b519020149056fea264697066735822122049316604cd69e711b440507da5910c31c0d9c5e9436169151695bf5347b6aa7964736f6c63430008130033",
  "immutableReferences": {},
  "source": "// SPDX-License-Identifier: MIT\npragma solidity ^0.8.19;\n\ncontract QrCode {\n    event ManufacturerAdded(address indexed manufacturer);\n    event RetailerAdded(string retailer);\n    event RetailerRemoved(address indexed retailerAddress);\n\n    event PasswordChanged(address indexed admin);\n    event ownershipTransferred(address indexed newAdmin);\n\n    event ItemAdded_M(uint256 indexed id);\n    event ItemDetailsUpdated_M(\n        uint256 indexed id,\n        string itemName,\n        string description\n    );\n    event ItemRecorded_M(uint256 indexed id);\n\n    event qrHashStored(uint indexed timestamp);\n    event qrHashDeleted(uint256 _blockId);\n\n    struct Manufacturer {\n        address manPublicAddress;\n        string fullName;\n        string email;\n        string brand;\n        string licenseUri;\n        string country;\n        string region;\n        string state;\n        bool agreement;\n        string password;\n        bool isVerified;\n        bool isRegistered;\n        bool isLogin;\n    }\n\n    struct Retailer {\n        address publicAddress;\n        string name;\n        string location;\n        string email;\n        string password;\n    }\n\n    struct ItemDetails {\n        string itemName;\n        string description;\n    }\n\n    //@dev create system account structure\n    struct SystemOwner {\n        address sysOwner;\n        bytes32 password; /*audit*/\n        bool isLogin;\n    }\n\n    address private owner;\n    SystemOwner private sysowner;\n\n    uint256 public s_retailerID;\n\n    mapping(address => SystemOwner) private sysOwnerMap;\n\n    mapping(address => Manufacturer) public manufacturerDetails;\n    address[] private manufactureAddressArray; // manufacturer address array\n\n    mapping(address => mapping(address => Retailer)) public manufacturerToRetailerDetails;\n    mapping(address => Retailer) public retailerDetails;\n\n    //STORING\n    mapping(address => mapping(uint256 => string)) private qrHashMapByManufacturer; // stored by manufacturer when generating hash + id\n\n    uint256[] private manufacturerIDHashArr; //scanned by only manufacturer\n    mapping(uint => bool) private storedIDs; //just stored\n\n    //MATCHING\n    mapping(string => uint256) public matchHashToId; //used by users when scanning\n\n    mapping(string => bool) public matchedItems; //matched hash to items\n\n    mapping(uint256 => ItemDetails) public itemDetails;\n\n    constructor() {\n        owner = msg.sender;\n        sysowner = SystemOwner(owner, keccak256(abi.encode((\"admin\"))), false);\n        sysOwnerMap[owner] = sysowner;\n    }\n\n    modifier onlySysOwner() {\n        require(\n            msg.sender == owner,\n            \"Only system owner can perform this action\"\n        );\n        require(\n            msg.sender != address(0),\n            \"Only system owner can perform this action\"\n        );\n        _;\n    }\n\n    modifier onlyManufacturer() {\n        require(\n            manufacturerDetails[msg.sender].isRegistered,\n            \"Only manufacturer can add retailer details\"\n        );\n        require(\n            msg.sender != address(0),\n            \"Only manufacturer can perform this action\"\n        );\n        _;\n    }\n\n    /*@dev System Owner functions*/\n    function loginSysOwner(\n        bytes32 _password\n    ) external onlySysOwner {\n        require(\n            sysOwnerMap[msg.sender].password ==\n                keccak256(abi.encode(_password)),\n            \"Invalid password of account address\"\n        );\n        sysOwnerMap[msg.sender].isLogin = true;\n    }\n\n    function changePassword(\n        bytes32 oldPassword,\n        bytes32 _newPassword\n    ) external onlySysOwner {\n        require(\n            sysOwnerMap[msg.sender].password ==\n                keccak256(abi.encode(oldPassword)),\n            \"Invalid old password\"\n        );\n        require(_newPassword.length > 0, \"Password should not be empty\");\n        require(\n            sysOwnerMap[msg.sender].password !=\n                keccak256(abi.encode(_newPassword)),\n            \"Invalid new password\"\n        );\n        require(sysOwnerMap[msg.sender].isLogin == true, \"Not logged in\");\n\n        emit PasswordChanged(msg.sender);\n        sysOwnerMap[msg.sender].password = _newPassword;\n    }\n\n    function transferOwnership(address _address) external onlySysOwner {\n        delete sysOwnerMap[owner];\n        emit ownershipTransferred(_address);\n        owner = _address;\n        sysOwnerMap[owner];\n    }\n\n    /**@dev Manufacturer functions*/\n    function signUpManufacturer(\n        address _manPublicAddress,\n        string memory _fullName,\n        string memory _email,\n        string memory _brand,\n        string memory _licenseUri,\n        string memory _country,\n        string memory _region,\n        string memory _state,\n        bool _agreement,\n        string memory _password\n    ) external {\n       /* require(msg.sender != owner, \"Address shouldn't be system owner\");\n        require(_manPublicAddress != address(0), \"Address not valid\");\n        require(\n            manufacturerDetails[_manPublicAddress].isRegistered,\n            \"Manufacturer is already registered\"\n        );\n        require(bytes(_fullName).length > 0,\"Manufacturer name shouldn't be empty\");\n        require(bytes(_email).length > 0, \"Email address shouldn't be empty\");\n        require(bytes(_brand).length > 0, \"Brand shouldn't be empty\");\n        require(bytes(_licenseUri).length > 0, \"License Uri shouldn't be empty\");\n        require(bytes(_country).length > 0, \"Country shouldn't be empty\");\n        require(bytes(_region).length > 0, \"Region shouldn't be empty\");\n        require(bytes(_state).length > 0, \"State shouldn't be empty\");\n        require(bytes(_password).length > 0, \"Password shouldn't be empty\");*/\n\n        emit ManufacturerAdded(msg.sender);\n        manufacturerDetails[msg.sender] = Manufacturer(\n            _manPublicAddress,\n            _fullName,\n            _email,\n            _brand,\n            _licenseUri,\n            _country,\n            _region,\n            _state,\n            _agreement,\n            _password,\n            false,\n            true,\n            false\n        );\n        manufactureAddressArray.push(_manPublicAddress);\n    }\n\n    function verifyManufacturer(address _manufacturerAddress) public onlySysOwner{\n        require(manufacturerDetails[_manufacturerAddress].isRegistered, \"manufacturer is not registered\");\n        manufacturerDetails[_manufacturerAddress].isVerified = true;\n    }\n\n    function manufacturerLogin(address _MNPublicAddress, string memory _password) public {\n        require(manufacturerDetails[_MNPublicAddress].isRegistered, \"Your not registered yet!\");\n        require(manufacturerDetails[_MNPublicAddress].isVerified, \"Your not verified as manufacturer yet!\");\n        // require(!manufacturerDetails[_MNPublicAddress].isLogin, \"Your Already login\");\n        require(compareStrings(manufacturerDetails[_MNPublicAddress].password, _password), \"Invalid address or password\");\n\n        manufacturerDetails[_MNPublicAddress].isLogin = true;\n    }\n\n    function addRetailer(\n        address _publicAddress,\n        string memory _name,\n        string memory _location,\n        string memory _email,\n        string memory _password\n    ) external onlyManufacturer {\n        require(_publicAddress != address(0), \"Retailer public address not valid\");\n        require(bytes(_name).length > 0, \"Retailer name cannot be empty\");\n        require(bytes(_location).length > 0, \"Location name cannot be empty\");\n        require(bytes(_email).length > 0, \"Email address cannot be empty\");\n        require(bytes(_password).length > 0, \"Phone number cannot be empty\");\n\n        emit RetailerAdded(_name);\n        Retailer memory retailer = Retailer(\n            _publicAddress,\n            _name,\n            _location,\n            _email,\n            _password\n        );\n        manufacturerToRetailerDetails[msg.sender][_publicAddress] = retailer;\n        retailerDetails[_publicAddress] = retailer;\n    }\n\n    function removeRetailer(address _retailerAddress) external onlyManufacturer {\n        require(\n            manufacturerToRetailerDetails[msg.sender][_retailerAddress].publicAddress ==\n                _retailerAddress,\n            \"Retailer not found\"\n        );\n        emit RetailerRemoved(_retailerAddress);\n        delete manufacturerToRetailerDetails[msg.sender][_retailerAddress];\n        delete retailerDetails[manufacturerToRetailerDetails[msg.sender][_retailerAddress].publicAddress];\n    }\n\n    function storeQrHash(string memory _qrHash) external {\n        // onlyManufacturer\n        uint256 timestamp = block.timestamp;\n        emit qrHashStored(timestamp);\n\n        qrHashMapByManufacturer[msg.sender][timestamp] = _qrHash;\n        manufacturerIDHashArr.push(timestamp);\n        storedIDs[timestamp] = true;\n    }\n\n    function deleteQrHash(uint _blockId) external {\n        // onlyManufacturer\n        emit qrHashDeleted(_blockId);\n        delete qrHashMapByManufacturer[msg.sender][_blockId];\n        delete manufacturerIDHashArr[_blockId];\n        delete storedIDs[_blockId];\n    }\n\n    /// @dev returns manufacturer address array to the frontend\n    function getManufacturerArray()\n        external\n        view\n        returns (address[] memory)\n    {\n        //onlyManufacturer\n        \n        return manufactureAddressArray;\n    }\n\n    function getManufacturer(address _manPublicAddress)\n        public\n        view\n        returns (\n            address manPublicAddress,\n            string memory email,\n            string memory fullName,\n            string memory brand,\n            string memory licenseUri,\n            string memory country,\n            string memory region,\n            string memory state,\n            bool agreement,\n            bool isVerified \n        )       \n    {\n        //onlyManufacturer\n        \n        Manufacturer memory manufacturer = manufacturerDetails[_manPublicAddress];\n        manPublicAddress = manufacturer.manPublicAddress;\n        email = manufacturer.email;\n        fullName = manufacturer.fullName;\n        brand = manufacturer.brand;\n        licenseUri = manufacturer.licenseUri;\n        country = manufacturer.country;\n        region = manufacturer.region;\n        state = manufacturer.state;\n        agreement = manufacturer.agreement;\n        isVerified = manufacturer.isVerified;\n\n    }\n\n    /// @dev returns qrcodeHash array to the manufacturer frontend\n    function getManfItemIDList()\n        external\n        view\n        returns (uint256[] memory)\n    {\n        //onlyManufacturer\n        \n        return manufacturerIDHashArr;\n    }\n\n    /// @dev !! views qrcodeHash and ID one by one. Used when manf wants to match stored ids & hashes to every item\n    function getQrHashAndID(address _manPublicAddress, uint256 _blockId)\n        public\n        view\n        returns (string memory qrHash, uint256 blockId)\n    {\n        //onlyManufacturer\n        \n        qrHash = qrHashMapByManufacturer[_manPublicAddress][_blockId];\n        blockId = _blockId;\n\n    }\n\n    /*@dev matches the stored hashes to each item & returns a bool for evidence */\n    function addItemDetails(\n        string memory _qrHash,\n        uint256 _blockId,\n        string memory _itemName,\n        string memory _description\n    ) external {\n        //onlyManufacturer\n        require(compareStrings(qrHashMapByManufacturer[msg.sender][_blockId],_qrHash),\"Hash isn't stored\");\n        require(storedIDs[_blockId] == true, \"ID isn't stored\");\n        require(bytes(_itemName).length > 0, \"Item name cannot be empty\");\n        require(bytes(_description).length > 0, \"Description cannot be empty\");\n\n        emit ItemAdded_M(_blockId);\n        emit ItemDetailsUpdated_M(_blockId, _itemName, _description);\n        emit ItemRecorded_M(_blockId);\n\n        matchHashToId[_qrHash] = _blockId; //update by matching\n        matchedItems[_qrHash] = true;\n\n        itemDetails[_blockId] = ItemDetails(_itemName, _description);\n    }\n\n    function scanItem(string memory _qrHash) external view returns (bool) {\n        if (matchedItems[_qrHash]) {\n            return true;\n        } else {\n            return false;\n        }\n    }\n\n    function moreDetailsForScannedItem(\n        string memory _qrHash\n    ) external view returns (ItemDetails memory) {\n        uint id = matchHashToId[_qrHash];\n        return itemDetails[id];\n    }\n\n    // Cannot directly compare strings in Solidity\n    // This function hashes the 2 strings and then compares the 2 hashes\n    function compareStrings(\n        string memory a,\n        string memory b\n    ) internal pure returns (bool) {\n        return keccak256(abi.encodePacked(a)) == keccak256(abi.encodePacked(b));\n    }\n}",
  "sourcePath": "/home/temba/fake product identification blockchain-based System/contracts/QrCode.sol",
  "compiler": {
    "name": "solc",
    "version": "0.8.19+commit.7dd6d404.Emscripten.clang"
  },
  "schemaVersion": "3.4.16",
  "updatedAt": "2024-03-24T14:15:06.896Z",
  "networkType": "ethereum",
  "devdoc": {
    "kind": "dev",
    "methods": {
      "getManfItemIDList()": {
        "details": "returns qrcodeHash array to the manufacturer frontend"
      },
      "getManufacturerArray()": {
        "details": "returns manufacturer address array to the frontend"
      },
      "getQrHashAndID(address,uint256)": {
        "details": "!! views qrcodeHash and ID one by one. Used when manf wants to match stored ids & hashes to every item"
      },
      "signUpManufacturer(address,string,string,string,string,string,string,string,bool,string)": {
        "details": "Manufacturer functions"
      }
    },
    "version": 1
  },
  "userdoc": {
    "kind": "user",
    "methods": {},
    "version": 1
  }
}